{
  "_format": "hh-sol-artifact-1",
  "contractName": "AskMiFactory",
  "sourceName": "contracts/askmi-factory.sol",
  "abi": [
    {
      "inputs": [],
      "stateMutability": "nonpayable",
      "type": "constructor"
    },
    {
      "anonymous": false,
      "inputs": [
        {
          "indexed": false,
          "internalType": "address",
          "name": "askMi",
          "type": "address"
        }
      ],
      "name": "AskMiInstantiated",
      "type": "event"
    },
    {
      "inputs": [
        {
          "internalType": "address",
          "name": "owner",
          "type": "address"
        }
      ],
      "name": "getMyAskMi",
      "outputs": [
        {
          "internalType": "address",
          "name": "",
          "type": "address"
        }
      ],
      "stateMutability": "view",
      "type": "function"
    },
    {
      "inputs": [
        {
          "internalType": "address",
          "name": "tiersToken",
          "type": "address"
        },
        {
          "internalType": "address",
          "name": "tipToken",
          "type": "address"
        },
        {
          "internalType": "uint256[]",
          "name": "tiers",
          "type": "uint256[]"
        },
        {
          "internalType": "uint256",
          "name": "tip",
          "type": "uint256"
        },
        {
          "internalType": "uint256",
          "name": "removalFee",
          "type": "uint256"
        }
      ],
      "name": "instantiateAskMi",
      "outputs": [],
      "stateMutability": "nonpayable",
      "type": "function"
    }
  ],
  "bytecode": "0x608060405234801561001057600080fd5b5033600260006101000a81548173ffffffffffffffffffffffffffffffffffffffff021916908373ffffffffffffffffffffffffffffffffffffffff16021790555060008080600181540180825580915050600190039060005260206000200160009091909190916101000a81548173ffffffffffffffffffffffffffffffffffffffff021916908373ffffffffffffffffffffffffffffffffffffffff16021790555061309c806100c36000396000f3fe60806040523480156200001157600080fd5b50600436106200003a5760003560e01c80633e990d7d146200003f5780637840a87b146200005f575b600080fd5b6200005d600480360381019062000057919062000475565b62000095565b005b6200007d600480360381019062000077919062000449565b62000272565b6040516200008c91906200064b565b60405180910390f35b6000600160003373ffffffffffffffffffffffffffffffffffffffff1673ffffffffffffffffffffffffffffffffffffffff16815260200190815260200160002054146200011a576040517f08c379a00000000000000000000000000000000000000000000000000000000081526004016200011190620006ec565b60405180910390fd5b6000600260009054906101000a900473ffffffffffffffffffffffffffffffffffffffff1633878787878760405162000153906200036b565b62000165979695949392919062000668565b604051809103906000f08015801562000182573d6000803e3d6000fd5b509050600080549050600160003373ffffffffffffffffffffffffffffffffffffffff1673ffffffffffffffffffffffffffffffffffffffff168152602001908152602001600020819055506000819080600181540180825580915050600190039060005260206000200160009091909190916101000a81548173ffffffffffffffffffffffffffffffffffffffff021916908373ffffffffffffffffffffffffffffffffffffffff1602179055507f853ffed38f1ea517c00ec790a694ac2338e70620f84d8b2057e4b9b8102f6cd6816040516200026291906200064b565b60405180910390a1505050505050565b600080600160008473ffffffffffffffffffffffffffffffffffffffff1673ffffffffffffffffffffffffffffffffffffffff16815260200190815260200160002054905060008111620002fd576040517f08c379a0000000000000000000000000000000000000000000000000000000008152600401620002f4906200070e565b60405180910390fd5b6000818154811062000338577f4e487b7100000000000000000000000000000000000000000000000000000000600052603260045260246000fd5b9060005260206000200160009054906101000a900473ffffffffffffffffffffffffffffffffffffffff16915050919050565b6127e8806200087f83390190565b6000620003906200038a8462000764565b62000730565b90508083825260208201905082856020860282011115620003b057600080fd5b60005b85811015620003e45781620003c9888262000432565b845260208401935060208301925050600181019050620003b3565b5050509392505050565b600081359050620003ff816200084a565b92915050565b600082601f8301126200041757600080fd5b81356200042984826020860162000379565b91505092915050565b600081359050620004438162000864565b92915050565b6000602082840312156200045c57600080fd5b60006200046c84828501620003ee565b91505092915050565b600080600080600060a086880312156200048e57600080fd5b60006200049e88828901620003ee565b9550506020620004b188828901620003ee565b945050604086013567ffffffffffffffff811115620004cf57600080fd5b620004dd8882890162000405565b9350506060620004f08882890162000432565b9250506080620005038882890162000432565b9150509295509295909350565b60006200051e838362000629565b60208301905092915050565b6200053581620007dd565b82525050565b60006200054882620007a3565b620005548185620007bb565b9350620005618362000793565b8060005b83811015620005985781516200057c888262000510565b97506200058983620007ae565b92505060018101905062000565565b5085935050505092915050565b6000620005b4600483620007cc565b91507f45525232000000000000000000000000000000000000000000000000000000006000830152602082019050919050565b6000620005f6600483620007cc565b91507f45525231000000000000000000000000000000000000000000000000000000006000830152602082019050919050565b620006348162000811565b82525050565b620006458162000811565b82525050565b60006020820190506200066260008301846200052a565b92915050565b600060e0820190506200067f600083018a6200052a565b6200068e60208301896200052a565b6200069d60408301886200052a565b620006ac60608301876200052a565b8181036080830152620006c081866200053b565b9050620006d160a08301856200063a565b620006e060c08301846200063a565b98975050505050505050565b600060208201905081810360008301526200070781620005a5565b9050919050565b600060208201905081810360008301526200072981620005e7565b9050919050565b6000604051905081810181811067ffffffffffffffff821117156200075a57620007596200081b565b5b8060405250919050565b600067ffffffffffffffff8211156200078257620007816200081b565b5b602082029050602081019050919050565b6000819050602082019050919050565b600081519050919050565b6000602082019050919050565b600082825260208201905092915050565b600082825260208201905092915050565b6000620007ea82620007f1565b9050919050565b600073ffffffffffffffffffffffffffffffffffffffff82169050919050565b6000819050919050565b7f4e487b7100000000000000000000000000000000000000000000000000000000600052604160045260246000fd5b6200085581620007dd565b81146200086157600080fd5b50565b6200086f8162000811565b81146200087b57600080fd5b5056fe60806040523480156200001157600080fd5b50604051620027e8380380620027e883398181016040528101906200003791906200054c565b86600360006101000a81548173ffffffffffffffffffffffffffffffffffffffff021916908373ffffffffffffffffffffffffffffffffffffffff160217905550856000806101000a81548173ffffffffffffffffffffffffffffffffffffffff021916908373ffffffffffffffffffffffffffffffffffffffff16021790555060c86004600101819055506000811162000109576040517f08c379a0000000000000000000000000000000000000000000000000000000008152600401620001009062000768565b60405180910390fd5b806004600001819055506000835190506000811180156200012a5750600a81105b6200016c576040517f08c379a0000000000000000000000000000000000000000000000000000000008152600401620001639062000724565b60405180910390fd5b60005b8181101562000215576000858281518110620001b4577f4e487b7100000000000000000000000000000000000000000000000000000000600052603260045260246000fd5b602002602001015111620001ff576040517f08c379a0000000000000000000000000000000000000000000000000000000008152600401620001f69062000746565b60405180910390fd5b80806200020c906200083c565b9150506200016f565b50600980549050600a60008873ffffffffffffffffffffffffffffffffffffffff1673ffffffffffffffffffffffffffffffffffffffff168152602001908152602001600020819055506009869080600181540180825580915050600190039060005260206000200160009091909190916101000a81548173ffffffffffffffffffffffffffffffffffffffff021916908373ffffffffffffffffffffffffffffffffffffffff16021790555083600b60008873ffffffffffffffffffffffffffffffffffffffff1673ffffffffffffffffffffffffffffffffffffffff1681526020019081526020016000209080519060200190620003179291906200040b565b5060405180604001604052808673ffffffffffffffffffffffffffffffffffffffff16815260200184815250600160008201518160000160006101000a81548173ffffffffffffffffffffffffffffffffffffffff021916908373ffffffffffffffffffffffffffffffffffffffff16021790555060208201518160010155905050600660009080600181540180825580915050600190039060005260206000200160009091909190916101000a81548173ffffffffffffffffffffffffffffffffffffffff021916908373ffffffffffffffffffffffffffffffffffffffff16021790555050505050505050506200091c565b8280548282559060005260206000209081019282156200044a579160200282015b82811115620004495782518255916020019190600101906200042c565b5b5090506200045991906200045d565b5090565b5b80821115620004785760008160009055506001016200045e565b5090565b6000620004936200048d84620007be565b6200078a565b90508083825260208201905082856020860282011115620004b357600080fd5b60005b85811015620004e75781620004cc888262000535565b845260208401935060208301925050600181019050620004b6565b5050509392505050565b6000815190506200050281620008e8565b92915050565b600082601f8301126200051a57600080fd5b81516200052c8482602086016200047c565b91505092915050565b600081519050620005468162000902565b92915050565b600080600080600080600060e0888a0312156200056857600080fd5b6000620005788a828b01620004f1565b97505060206200058b8a828b01620004f1565b96505060406200059e8a828b01620004f1565b9550506060620005b18a828b01620004f1565b945050608088015167ffffffffffffffff811115620005cf57600080fd5b620005dd8a828b0162000508565b93505060a0620005f08a828b0162000535565b92505060c0620006038a828b0162000535565b91505092959891949750929550565b600062000621601383620007ed565b91507f43686f6f7365203120746f2039207469657273000000000000000000000000006000830152602082019050919050565b600062000663602183620007ed565b91507f546965722076616c7565206d7573742062652067726561746572207468616e2060008301527f30000000000000000000000000000000000000000000000000000000000000006020830152604082019050919050565b6000620006cb602183620007ed565b91507f52656d6f76616c20466565206d75737420626520677265617465207468616e2060008301527f30000000000000000000000000000000000000000000000000000000000000006020830152604082019050919050565b600060208201905081810360008301526200073f8162000612565b9050919050565b60006020820190508181036000830152620007618162000654565b9050919050565b600060208201905081810360008301526200078381620006bc565b9050919050565b6000604051905081810181811067ffffffffffffffff82111715620007b457620007b3620008b9565b5b8060405250919050565b600067ffffffffffffffff821115620007dc57620007db620008b9565b5b602082029050602081019050919050565b600082825260208201905092915050565b60006200080b8262000812565b9050919050565b600073ffffffffffffffffffffffffffffffffffffffff82169050919050565b6000819050919050565b6000620008498262000832565b91507fffffffffffffffffffffffffffffffffffffffffffffffffffffffffffffffff8214156200087f576200087e6200088a565b5b600182019050919050565b7f4e487b7100000000000000000000000000000000000000000000000000000000600052601160045260246000fd5b7f4e487b7100000000000000000000000000000000000000000000000000000000600052604160045260246000fd5b620008f381620007fe565b8114620008ff57600080fd5b50565b6200090d8162000832565b81146200091957600080fd5b50565b611ebc806200092c6000396000f3fe6080604052600436106100e85760003560e01c8063709acc751161008a578063b2bdfa7b11610059578063b2bdfa7b146102d1578063cef3d8aa146102fc578063d212a69a14610328578063e3a490c714610354576100e8565b8063709acc75146102295780638628f26114610252578063b002249d1461027b578063b014a3d4146102a6576100e8565b806357013023116100c6578063570130231461015d57806359e5fd04146101865780635eaf8b97146101af5780636a064d2d146101ec576100e8565b806313e13c5a146100ed57806345dd6ddd146101165780634d11284714610132575b600080fd5b3480156100f957600080fd5b50610114600480360381019061010f91906113c8565b610370565b005b610130600480360381019061012b91906112d8565b6104b0565b005b34801561013e57600080fd5b506101476105f9565b6040516101549190611a65565b60405180910390f35b34801561016957600080fd5b50610184600480360381019061017f9190611271565b61060c565b005b34801561019257600080fd5b506101ad60048036038101906101a89190611379565b61074c565b005b3480156101bb57600080fd5b506101d660048036038101906101d19190611248565b61088c565b6040516101e39190611a43565b60405180910390f35b3480156101f857600080fd5b50610213600480360381019061020e9190611248565b610923565b6040516102209190611a21565b60405180910390f35b34801561023557600080fd5b50610250600480360381019061024b9190611248565b610ba9565b005b34801561025e57600080fd5b50610279600480360381019061027491906112d8565b610cda565b005b34801561028757600080fd5b50610290610e5c565b60405161029d91906119ff565b60405180910390f35b3480156102b257600080fd5b506102bb610eea565b6040516102c891906119ff565b60405180910390f35b3480156102dd57600080fd5b506102e6610f78565b6040516102f39190611931565b60405180910390f35b34801561030857600080fd5b50610311610f9c565b60405161031f9291906119d6565b60405180910390f35b34801561033457600080fd5b5061033d610fce565b60405161034b929190611b89565b60405180910390f35b61036e60048036038101906103699190611379565b610fe0565b005b60008373ffffffffffffffffffffffffffffffffffffffff16838360405160240161039c929190611b60565b6040516020818303038152906040527ff2bcd515000000000000000000000000000000000000000000000000000000007bffffffffffffffffffffffffffffffffffffffffffffffffffffffff19166020820180517bffffffffffffffffffffffffffffffffffffffffffffffffffffffff8381831617835250505050604051610426919061191a565b600060405180830381855af49150503d8060008114610461576040519150601f19603f3d011682016040523d82523d6000602084013e610466565b606091505b50509050806104aa576040517f08c379a00000000000000000000000000000000000000000000000000000000081526004016104a190611b20565b60405180910390fd5b50505050565b60008673ffffffffffffffffffffffffffffffffffffffff1686868686866040516024016104e295949392919061197c565b6040516020818303038152906040527ff65bf460000000000000000000000000000000000000000000000000000000007bffffffffffffffffffffffffffffffffffffffffffffffffffffffff19166020820180517bffffffffffffffffffffffffffffffffffffffffffffffffffffffff838183161783525050505060405161056c919061191a565b600060405180830381855af49150503d80600081146105a7576040519150601f19603f3d011682016040523d82523d6000602084013e6105ac565b606091505b50509050806105f0576040517f08c379a00000000000000000000000000000000000000000000000000000000081526004016105e790611ac0565b60405180910390fd5b50505050505050565b600060159054906101000a900460ff1681565b60008373ffffffffffffffffffffffffffffffffffffffff16838360405160240161063892919061194c565b6040516020818303038152906040527f3080e2ed000000000000000000000000000000000000000000000000000000007bffffffffffffffffffffffffffffffffffffffffffffffffffffffff19166020820180517bffffffffffffffffffffffffffffffffffffffffffffffffffffffff83818316178352505050506040516106c2919061191a565b600060405180830381855af49150503d80600081146106fd576040519150601f19603f3d011682016040523d82523d6000602084013e610702565b606091505b5050905080610746576040517f08c379a000000000000000000000000000000000000000000000000000000000815260040161073d90611a80565b60405180910390fd5b50505050565b60008373ffffffffffffffffffffffffffffffffffffffff1683836040516024016107789291906119d6565b6040516020818303038152906040527fabe7f1ab000000000000000000000000000000000000000000000000000000007bffffffffffffffffffffffffffffffffffffffffffffffffffffffff19166020820180517bffffffffffffffffffffffffffffffffffffffffffffffffffffffff8381831617835250505050604051610802919061191a565b600060405180830381855af49150503d806000811461083d576040519150601f19603f3d011682016040523d82523d6000602084013e610842565b606091505b5050905080610886576040517f08c379a000000000000000000000000000000000000000000000000000000000815260040161087d90611aa0565b60405180910390fd5b50505050565b6060600b60008373ffffffffffffffffffffffffffffffffffffffff1673ffffffffffffffffffffffffffffffffffffffff16815260200190815260200160002080548060200260200160405190810160405280929190818152602001828054801561091757602002820191906000526020600020905b815481526020019060010190808311610903575b50505050509050919050565b6060600860008373ffffffffffffffffffffffffffffffffffffffff1673ffffffffffffffffffffffffffffffffffffffff168152602001908152602001600020805480602002602001604051908101604052809291908181526020016000905b82821015610b9e57838290600052602060002090600a02016040518060c0016040529081600082016040518060600160405290816000820180546109c790611db7565b80601f01602080910402602001604051908101604052809291908181526020018280546109f390611db7565b8015610a405780601f10610a1557610100808354040283529160200191610a40565b820191906000526020600020905b815481529060010190602001808311610a2357829003601f168201915b5050505050815260200160018201548152602001600282015481525050815260200160038201604051806060016040529081600082018054610a8190611db7565b80601f0160208091040260200160405190810160405280929190818152602001828054610aad90611db7565b8015610afa5780601f10610acf57610100808354040283529160200191610afa565b820191906000526020600020905b815481529060010190602001808311610add57829003601f168201915b505050505081526020016001820154815260200160028201548152505081526020016006820160009054906101000a900473ffffffffffffffffffffffffffffffffffffffff1673ffffffffffffffffffffffffffffffffffffffff1673ffffffffffffffffffffffffffffffffffffffff168152602001600782015481526020016008820154815260200160098201548152505081526020019060010190610984565b505050509050919050565b60008173ffffffffffffffffffffffffffffffffffffffff166040516024016040516020818303038152906040527f621b99a7000000000000000000000000000000000000000000000000000000007bffffffffffffffffffffffffffffffffffffffffffffffffffffffff19166020820180517bffffffffffffffffffffffffffffffffffffffffffffffffffffffff8381831617835250505050604051610c52919061191a565b600060405180830381855af49150503d8060008114610c8d576040519150601f19603f3d011682016040523d82523d6000602084013e610c92565b606091505b5050905080610cd6576040517f08c379a0000000000000000000000000000000000000000000000000000000008152600401610ccd90611ae0565b60405180910390fd5b5050565b60008673ffffffffffffffffffffffffffffffffffffffff168686868686604051602401610d0c95949392919061197c565b6040516020818303038152906040527fe4c0967c000000000000000000000000000000000000000000000000000000007bffffffffffffffffffffffffffffffffffffffffffffffffffffffff19166020820180517bffffffffffffffffffffffffffffffffffffffffffffffffffffffff8381831617835250505050604051610d96919061191a565b600060405180830381855af49150503d8060008114610dd1576040519150601f19603f3d011682016040523d82523d6000602084013e610dd6565b606091505b5050905080610e1a576040517f08c379a0000000000000000000000000000000000000000000000000000000008152600401610e1190611b40565b60405180910390fd5b7f429c694aa6647ed579b2576c88071af439f05fe6dc41964661e1bf0937f324c18683604051610e4b9291906119d6565b60405180910390a150505050505050565b60606009805480602002602001604051908101604052809291908181526020018280548015610ee057602002820191906000526020600020905b8160009054906101000a900473ffffffffffffffffffffffffffffffffffffffff1673ffffffffffffffffffffffffffffffffffffffff1681526020019060010190808311610e96575b5050505050905090565b60606006805480602002602001604051908101604052809291908181526020018280548015610f6e57602002820191906000526020600020905b8160009054906101000a900473ffffffffffffffffffffffffffffffffffffffff1673ffffffffffffffffffffffffffffffffffffffff1681526020019060010190808311610f24575b5050505050905090565b60008054906101000a900473ffffffffffffffffffffffffffffffffffffffff1681565b60018060000160009054906101000a900473ffffffffffffffffffffffffffffffffffffffff16908060010154905082565b60048060000154908060010154905082565b60008373ffffffffffffffffffffffffffffffffffffffff16838360405160240161100c9291906119d6565b6040516020818303038152906040527f05beb077000000000000000000000000000000000000000000000000000000007bffffffffffffffffffffffffffffffffffffffffffffffffffffffff19166020820180517bffffffffffffffffffffffffffffffffffffffffffffffffffffffff8381831617835250505050604051611096919061191a565b600060405180830381855af49150503d80600081146110d1576040519150601f19603f3d011682016040523d82523d6000602084013e6110d6565b606091505b505090508061111a576040517f08c379a000000000000000000000000000000000000000000000000000000000815260040161111190611b00565b60405180910390fd5b50505050565b600061113361112e84611be3565b611bb2565b9050808382526020820190508285602086028201111561115257600080fd5b60005b8581101561118257816111688882611233565b845260208401935060208301925050600181019050611155565b5050509392505050565b600061119f61119a84611c0f565b611bb2565b9050828152602081018484840111156111b757600080fd5b6111c2848285611d75565b509392505050565b6000813590506111d981611e58565b92915050565b600082601f8301126111f057600080fd5b8135611200848260208601611120565b91505092915050565b600082601f83011261121a57600080fd5b813561122a84826020860161118c565b91505092915050565b60008135905061124281611e6f565b92915050565b60006020828403121561125a57600080fd5b6000611268848285016111ca565b91505092915050565b60008060006060848603121561128657600080fd5b6000611294868287016111ca565b93505060206112a5868287016111ca565b925050604084013567ffffffffffffffff8111156112c257600080fd5b6112ce868287016111df565b9150509250925092565b60008060008060008060c087890312156112f157600080fd5b60006112ff89828a016111ca565b965050602061131089828a016111ca565b955050604087013567ffffffffffffffff81111561132d57600080fd5b61133989828a01611209565b945050606061134a89828a01611233565b935050608061135b89828a01611233565b92505060a061136c89828a01611233565b9150509295509295509295565b60008060006060848603121561138e57600080fd5b600061139c868287016111ca565b93505060206113ad868287016111ca565b92505060406113be86828701611233565b9150509250925092565b6000806000606084860312156113dd57600080fd5b60006113eb868287016111ca565b93505060206113fc86828701611233565b925050604061140d868287016111ca565b9150509250925092565b6000611423838361145b565b60208301905092915050565b600061143b838361186c565b905092915050565b600061144f83836118fc565b60208301905092915050565b61146481611d2d565b82525050565b61147381611d2d565b82525050565b600061148482611c6f565b61148e8185611ccd565b935061149983611c3f565b8060005b838110156114ca5781516114b18882611417565b97506114bc83611ca6565b92505060018101905061149d565b5085935050505092915050565b60006114e282611c7a565b6114ec8185611cde565b9350836020820285016114fe85611c4f565b8060005b8581101561153a578484038952815161151b858261142f565b945061152683611cb3565b925060208a01995050600181019050611502565b50829750879550505050505092915050565b600061155782611c85565b6115618185611cef565b935061156c83611c5f565b8060005b8381101561159d5781516115848882611443565b975061158f83611cc0565b925050600181019050611570565b5085935050505092915050565b6115b381611d3f565b82525050565b60006115c482611c90565b6115ce8185611d00565b93506115de818560208601611d84565b80840191505092915050565b60006115f582611c9b565b6115ff8185611d0b565b935061160f818560208601611d84565b61161881611e47565b840191505092915050565b600061162e82611c9b565b6116388185611d1c565b9350611648818560208601611d84565b61165181611e47565b840191505092915050565b6000611669601483611d1c565b91507f75706461746554696572732829206661696c65640000000000000000000000006000830152602082019050919050565b60006116a9600f83611d1c565b91507f72656d6f76652829206661696c656400000000000000000000000000000000006000830152602082019050919050565b60006116e9600c83611d1c565b91507f61736b2829206661696c656400000000000000000000000000000000000000006000830152602082019050919050565b6000611729601783611d1c565b91507f746f67676c6544697361626c65642829206661696c65640000000000000000006000830152602082019050919050565b6000611769601183611d1c565b91507f69737375655469702829206661696c65640000000000000000000000000000006000830152602082019050919050565b60006117a9601283611d1c565b91507f7570646174655469702829206661696c656400000000000000000000000000006000830152602082019050919050565b60006117e9601083611d1c565b91507f726573706f6e642829206661696c6564000000000000000000000000000000006000830152602082019050919050565b6000606083016000830151848203600086015261183982826115ea565b915050602083015161184e60208601826118fc565b50604083015161186160408601826118fc565b508091505092915050565b600060c0830160008301518482036000860152611889828261181c565b915050602083015184820360208601526118a3828261181c565b91505060408301516118b8604086018261145b565b5060608301516118cb60608601826118fc565b5060808301516118de60808601826118fc565b5060a08301516118f160a08601826118fc565b508091505092915050565b61190581611d6b565b82525050565b61191481611d6b565b82525050565b600061192682846115b9565b915081905092915050565b6000602082019050611946600083018461146a565b92915050565b6000604082019050611961600083018561146a565b8181036020830152611973818461154c565b90509392505050565b600060a082019050611991600083018861146a565b81810360208301526119a38187611623565b90506119b2604083018661190b565b6119bf606083018561190b565b6119cc608083018461190b565b9695505050505050565b60006040820190506119eb600083018561146a565b6119f8602083018461190b565b9392505050565b60006020820190508181036000830152611a198184611479565b905092915050565b60006020820190508181036000830152611a3b81846114d7565b905092915050565b60006020820190508181036000830152611a5d818461154c565b905092915050565b6000602082019050611a7a60008301846115aa565b92915050565b60006020820190508181036000830152611a998161165c565b9050919050565b60006020820190508181036000830152611ab98161169c565b9050919050565b60006020820190508181036000830152611ad9816116dc565b9050919050565b60006020820190508181036000830152611af98161171c565b9050919050565b60006020820190508181036000830152611b198161175c565b9050919050565b60006020820190508181036000830152611b398161179c565b9050919050565b60006020820190508181036000830152611b59816117dc565b9050919050565b6000604082019050611b75600083018561190b565b611b82602083018461146a565b9392505050565b6000604082019050611b9e600083018561190b565b611bab602083018461190b565b9392505050565b6000604051905081810181811067ffffffffffffffff82111715611bd957611bd8611e18565b5b8060405250919050565b600067ffffffffffffffff821115611bfe57611bfd611e18565b5b602082029050602081019050919050565b600067ffffffffffffffff821115611c2a57611c29611e18565b5b601f19601f8301169050602081019050919050565b6000819050602082019050919050565b6000819050602082019050919050565b6000819050602082019050919050565b600081519050919050565b600081519050919050565b600081519050919050565b600081519050919050565b600081519050919050565b6000602082019050919050565b6000602082019050919050565b6000602082019050919050565b600082825260208201905092915050565b600082825260208201905092915050565b600082825260208201905092915050565b600081905092915050565b600082825260208201905092915050565b600082825260208201905092915050565b6000611d3882611d4b565b9050919050565b60008115159050919050565b600073ffffffffffffffffffffffffffffffffffffffff82169050919050565b6000819050919050565b82818337600083830152505050565b60005b83811015611da2578082015181840152602081019050611d87565b83811115611db1576000848401525b50505050565b60006002820490506001821680611dcf57607f821691505b60208210811415611de357611de2611de9565b5b50919050565b7f4e487b7100000000000000000000000000000000000000000000000000000000600052602260045260246000fd5b7f4e487b7100000000000000000000000000000000000000000000000000000000600052604160045260246000fd5b6000601f19601f8301169050919050565b611e6181611d2d565b8114611e6c57600080fd5b50565b611e7881611d6b565b8114611e8357600080fd5b5056fea26469706673582212200b97ab75e90a78c54b800199c454fbdef5e72e78039b81dfbfcca1169848029c64736f6c63430008000033a264697066735822122087754a46ad6800b2e3d70d2cc466ce877387ba95e38881c606fb8dce6a1a2f8a64736f6c63430008000033",
  "linkReferences": {},
  "deployedLinkReferences": {}
}