{
  "_format": "hh-sol-artifact-1",
  "contractName": "AskMiFactory_ERC20",
  "sourceName": "contracts/askmi-factory-erc20.sol",
  "abi": [
    {
      "inputs": [
        {
          "internalType": "address",
          "name": "_token",
          "type": "address"
        }
      ],
      "stateMutability": "nonpayable",
      "type": "constructor"
    },
    {
      "anonymous": false,
      "inputs": [
        {
          "indexed": false,
          "internalType": "address",
          "name": "_askMiAddress",
          "type": "address"
        }
      ],
      "name": "AskMiInstantiated",
      "type": "event"
    },
    {
      "inputs": [
        {
          "internalType": "address",
          "name": "_owner",
          "type": "address"
        }
      ],
      "name": "getMyAskMi",
      "outputs": [
        {
          "internalType": "address",
          "name": "",
          "type": "address"
        }
      ],
      "stateMutability": "view",
      "type": "function"
    },
    {
      "inputs": [
        {
          "internalType": "uint256[]",
          "name": "_tiers",
          "type": "uint256[]"
        },
        {
          "internalType": "uint256",
          "name": "_tip",
          "type": "uint256"
        }
      ],
      "name": "instantiateAskMi",
      "outputs": [],
      "stateMutability": "nonpayable",
      "type": "function"
    },
    {
      "inputs": [],
      "name": "token",
      "outputs": [
        {
          "internalType": "contract IERC20",
          "name": "",
          "type": "address"
        }
      ],
      "stateMutability": "view",
      "type": "function"
    }
  ],
  "bytecode": "0x608060405234801561001057600080fd5b5060405162004d2038038062004d2083398181016040528101906100349190610134565b806000806101000a81548173ffffffffffffffffffffffffffffffffffffffff021916908373ffffffffffffffffffffffffffffffffffffffff16021790555033600360006101000a81548173ffffffffffffffffffffffffffffffffffffffff021916908373ffffffffffffffffffffffffffffffffffffffff160217905550600160009080600181540180825580915050600190039060005260206000200160009091909190916101000a81548173ffffffffffffffffffffffffffffffffffffffff021916908373ffffffffffffffffffffffffffffffffffffffff160217905550506101a6565b60008151905061012e8161018f565b92915050565b60006020828403121561014657600080fd5b60006101548482850161011f565b91505092915050565b60006101688261016f565b9050919050565b600073ffffffffffffffffffffffffffffffffffffffff82169050919050565b6101988161015d565b81146101a357600080fd5b50565b614b6a80620001b66000396000f3fe60806040523480156200001157600080fd5b5060043610620000465760003560e01c806307f07507146200004b5780637840a87b146200006b578063fc0c546a14620000a1575b600080fd5b620000696004803603810190620000639190620006a5565b620000c3565b005b62000089600480360381019062000083919062000679565b62000467565b604051620000989190620009b9565b60405180910390f35b620000ab62000560565b604051620000ba919062000a3a565b60405180910390f35b6000600260003373ffffffffffffffffffffffffffffffffffffffff1673ffffffffffffffffffffffffffffffffffffffff168152602001908152602001600020541462000148576040517f08c379a00000000000000000000000000000000000000000000000000000000081526004016200013f9062000a9b565b60405180910390fd5b60008251905060008060009054906101000a900473ffffffffffffffffffffffffffffffffffffffff1673ffffffffffffffffffffffffffffffffffffffff166318160ddd6040518163ffffffff1660e01b815260040160206040518083038186803b158015620001b857600080fd5b505afa158015620001cd573d6000803e3d6000fd5b505050506040513d601f19601f82011682018060405250810190620001f39190620006ff565b905060008211801562000207575060038211155b62000249576040517f08c379a0000000000000000000000000000000000000000000000000000000008152600401620002409062000a79565b60405180910390fd5b60005b82811015620002f2578185828151811062000290577f4e487b7100000000000000000000000000000000000000000000000000000000600052603260045260246000fd5b60200260200101511115620002dc576040517f08c379a0000000000000000000000000000000000000000000000000000000008152600401620002d39062000a57565b60405180910390fd5b8080620002e99062000bf2565b9150506200024c565b5060008060009054906101000a900473ffffffffffffffffffffffffffffffffffffffff16338686600360009054906101000a900473ffffffffffffffffffffffffffffffffffffffff166040516200034b9062000584565b6200035b959493929190620009d6565b604051809103906000f08015801562000378573d6000803e3d6000fd5b509050600180549050600260003373ffffffffffffffffffffffffffffffffffffffff1673ffffffffffffffffffffffffffffffffffffffff168152602001908152602001600020819055506001819080600181540180825580915050600190039060005260206000200160009091909190916101000a81548173ffffffffffffffffffffffffffffffffffffffff021916908373ffffffffffffffffffffffffffffffffffffffff1602179055507f853ffed38f1ea517c00ec790a694ac2338e70620f84d8b2057e4b9b8102f6cd681604051620004589190620009b9565b60405180910390a15050505050565b600080600260008473ffffffffffffffffffffffffffffffffffffffff1673ffffffffffffffffffffffffffffffffffffffff16815260200190815260200160002054905060008111620004f2576040517f08c379a0000000000000000000000000000000000000000000000000000000008152600401620004e99062000abd565b60405180910390fd5b600181815481106200052d577f4e487b7100000000000000000000000000000000000000000000000000000000600052603260045260246000fd5b9060005260206000200160009054906101000a900473ffffffffffffffffffffffffffffffffffffffff16915050919050565b60008054906101000a900473ffffffffffffffffffffffffffffffffffffffff1681565b613e628062000cd383390190565b6000620005a9620005a38462000b13565b62000adf565b90508083825260208201905082856020860282011115620005c957600080fd5b60005b85811015620005fd5781620005e288826200064b565b845260208401935060208301925050600181019050620005cc565b5050509392505050565b600081359050620006188162000c9e565b92915050565b600082601f8301126200063057600080fd5b81356200064284826020860162000592565b91505092915050565b6000813590506200065c8162000cb8565b92915050565b600081519050620006738162000cb8565b92915050565b6000602082840312156200068c57600080fd5b60006200069c8482850162000607565b91505092915050565b60008060408385031215620006b957600080fd5b600083013567ffffffffffffffff811115620006d457600080fd5b620006e2858286016200061e565b9250506020620006f5858286016200064b565b9150509250929050565b6000602082840312156200071257600080fd5b6000620007228482850162000662565b91505092915050565b600062000739838362000997565b60208301905092915050565b620007508162000b8c565b82525050565b6000620007638262000b52565b6200076f818562000b6a565b93506200077c8362000b42565b8060005b83811015620007b35781516200079788826200072b565b9750620007a48362000b5d565b92505060018101905062000780565b5085935050505092915050565b620007cb8162000bca565b82525050565b6000620007e0604c8362000b7b565b91507f4174206c65617374206f6e65206f66207468652074696572732068617320612060008301527f76616c75652067726561746572207468616e2074686520746f6b656e2773207460208301527f6f74616c20737570706c792e00000000000000000000000000000000000000006040830152606082019050919050565b60006200086e60248362000b7b565b91507f5468657265206d757374206265206265747765656e203120616e64203320746960008301527f6572732e000000000000000000000000000000000000000000000000000000006020830152604082019050919050565b6000620008d6602c8362000b7b565b91507f54686973206164647265737320616c7265616479206f776e7320616e2041736b60008301527f4d6920696e7374616e63652e00000000000000000000000000000000000000006020830152604082019050919050565b60006200093e60378362000b7b565b91507f5468652073656c6563746564206164647265737320686173206e6f742063726560008301527f6174656420616e2041736b4d6920636f6e74726163742e0000000000000000006020830152604082019050919050565b620009a28162000bc0565b82525050565b620009b38162000bc0565b82525050565b6000602082019050620009d0600083018462000745565b92915050565b600060a082019050620009ed600083018862000745565b620009fc602083018762000745565b818103604083015262000a10818662000756565b905062000a216060830185620009a8565b62000a30608083018462000745565b9695505050505050565b600060208201905062000a516000830184620007c0565b92915050565b6000602082019050818103600083015262000a7281620007d1565b9050919050565b6000602082019050818103600083015262000a94816200085f565b9050919050565b6000602082019050818103600083015262000ab681620008c7565b9050919050565b6000602082019050818103600083015262000ad8816200092f565b9050919050565b6000604051905081810181811067ffffffffffffffff8211171562000b095762000b0862000c6f565b5b8060405250919050565b600067ffffffffffffffff82111562000b315762000b3062000c6f565b5b602082029050602081019050919050565b6000819050602082019050919050565b600081519050919050565b6000602082019050919050565b600082825260208201905092915050565b600082825260208201905092915050565b600062000b998262000ba0565b9050919050565b600073ffffffffffffffffffffffffffffffffffffffff82169050919050565b6000819050919050565b600062000bd78262000bde565b9050919050565b600062000beb8262000ba0565b9050919050565b600062000bff8262000bc0565b91507fffffffffffffffffffffffffffffffffffffffffffffffffffffffffffffffff82141562000c355762000c3462000c40565b5b600182019050919050565b7f4e487b7100000000000000000000000000000000000000000000000000000000600052601160045260246000fd5b7f4e487b7100000000000000000000000000000000000000000000000000000000600052604160045260246000fd5b62000ca98162000b8c565b811462000cb557600080fd5b50565b62000cc38162000bc0565b811462000ccf57600080fd5b5056fe608060405260c86004553480156200001657600080fd5b5060405162003e6238038062003e6283398181016040528101906200003c9190620002ce565b846000806101000a81548173ffffffffffffffffffffffffffffffffffffffff021916908373ffffffffffffffffffffffffffffffffffffffff16021790555083600160006101000a81548173ffffffffffffffffffffffffffffffffffffffff021916908373ffffffffffffffffffffffffffffffffffffffff1602179055508260059080519060200190620000d59291906200018d565b508160028190555080600360006101000a81548173ffffffffffffffffffffffffffffffffffffffff021916908373ffffffffffffffffffffffffffffffffffffffff160217905550600860009080600181540180825580915050600190039060005260206000200160009091909190916101000a81548173ffffffffffffffffffffffffffffffffffffffff021916908373ffffffffffffffffffffffffffffffffffffffff16021790555050505050506200046d565b828054828255906000526020600020908101928215620001cc579160200282015b82811115620001cb578251825591602001919060010190620001ae565b5b509050620001db9190620001df565b5090565b5b80821115620001fa576000816000905550600101620001e0565b5090565b6000620002156200020f846200039d565b62000369565b905080838252602082019050828560208602820111156200023557600080fd5b60005b858110156200026957816200024e8882620002b7565b84526020840193506020830192505060018101905062000238565b5050509392505050565b600081519050620002848162000439565b92915050565b600082601f8301126200029c57600080fd5b8151620002ae848260208601620001fe565b91505092915050565b600081519050620002c88162000453565b92915050565b600080600080600060a08688031215620002e757600080fd5b6000620002f78882890162000273565b95505060206200030a8882890162000273565b945050604086015167ffffffffffffffff8111156200032857600080fd5b62000336888289016200028a565b93505060606200034988828901620002b7565b92505060806200035c8882890162000273565b9150509295509295909350565b6000604051905081810181811067ffffffffffffffff821117156200039357620003926200040a565b5b8060405250919050565b600067ffffffffffffffff821115620003bb57620003ba6200040a565b5b602082029050602081019050919050565b6000620003d982620003e0565b9050919050565b600073ffffffffffffffffffffffffffffffffffffffff82169050919050565b6000819050919050565b7f4e487b7100000000000000000000000000000000000000000000000000000000600052604160045260246000fd5b6200044481620003cc565b81146200045057600080fd5b50565b6200045e8162000400565b81146200046a57600080fd5b50565b6139e5806200047d6000396000f3fe6080604052600436106100c65760003560e01c8063ba3db4f31161007f578063de17057011610059578063de17057014610243578063e4c0967c1461026e578063f46cd0a814610297578063fc0c546a146102c2576100cd565b8063ba3db4f3146101c6578063c3da5961146101ef578063ddca3f4314610218576100cd565b806305beb077146100d25780630dedc14c146100ee5780631605c9ef1461012b5780632755cd2d1461014757806388e3547a146101725780638da5cb5b1461019b576100cd565b366100cd57005b600080fd5b6100ec60048036038101906100e79190612976565b6102ed565b005b3480156100fa57600080fd5b50610115600480360381019061011091906128be565b610823565b60405161012291906132fa565b60405180910390f35b61014560048036038101906101409190612a1c565b610a53565b005b34801561015357600080fd5b5061015c610e3a565b6040516101699190613519565b60405180910390f35b34801561017e57600080fd5b5061019960048036038101906101949190612a97565b610e40565b005b3480156101a757600080fd5b506101b0610ff0565b6040516101bd919061325d565b60405180910390f35b3480156101d257600080fd5b506101ed60048036038101906101e89190612976565b611016565b005b3480156101fb57600080fd5b50610216600480360381019061021191906129b2565b611aa0565b005b34801561022457600080fd5b5061022d611ccd565b60405161023a9190613519565b60405180910390f35b34801561024f57600080fd5b50610258611cd3565b604051610265919061331c565b60405180910390f35b34801561027a57600080fd5b50610295600480360381019061029091906128e7565b611d2b565b005b3480156102a357600080fd5b506102ac612439565b6040516102b991906132d8565b60405180910390f35b3480156102ce57600080fd5b506102d76124c7565b6040516102e4919061333e565b60405180910390f35b600160009054906101000a900473ffffffffffffffffffffffffffffffffffffffff1673ffffffffffffffffffffffffffffffffffffffff163373ffffffffffffffffffffffffffffffffffffffff16141561037e576040517f08c379a000000000000000000000000000000000000000000000000000000000815260040161037590613479565b60405180910390fd5b6000600660008473ffffffffffffffffffffffffffffffffffffffff1673ffffffffffffffffffffffffffffffffffffffff168152602001908152602001600020805480602002602001604051908101604052809291908181526020016000905b828210156105a357838290600052602060002090600902016040518060a00160405290816000820160405180606001604052908160008201805461042290613822565b80601f016020809104026020016040519081016040528092919081815260200182805461044e90613822565b801561049b5780601f106104705761010080835404028352916020019161049b565b820191906000526020600020905b81548152906001019060200180831161047e57829003601f168201915b50505050508152602001600182015481526020016002820154815250508152602001600382016040518060600160405290816000820180546104dc90613822565b80601f016020809104026020016040519081016040528092919081815260200182805461050890613822565b80156105555780601f1061052a57610100808354040283529160200191610555565b820191906000526020600020905b81548152906001019060200180831161053857829003601f168201915b505050505081526020016001820154815260200160028201548152505081526020016006820154815260200160078201548152602001600882015481525050815260200190600101906103df565b505050509050805182106105ec576040517f08c379a00000000000000000000000000000000000000000000000000000000081526004016105e390613359565b60405180910390fd5b6000818381518110610627577f4e487b7100000000000000000000000000000000000000000000000000000000600052603260045260246000fd5b60200260200101519050600182848151811061066c577f4e487b7100000000000000000000000000000000000000000000000000000000600052603260045260246000fd5b60200260200101516080015161068291906136b9565b816080018181525050808284815181106106c5577f4e487b7100000000000000000000000000000000000000000000000000000000600052603260045260246000fd5b602002602001018190525060008054906101000a900473ffffffffffffffffffffffffffffffffffffffff1673ffffffffffffffffffffffffffffffffffffffff166323b872dd33600160009054906101000a900473ffffffffffffffffffffffffffffffffffffffff166002546040518463ffffffff1660e01b815260040161075193929190613278565b602060405180830381600087803b15801561076b57600080fd5b505af115801561077f573d6000803e3d6000fd5b505050506040513d601f19601f820116820180604052508101906107a391906129f3565b6107e2576040517f08c379a00000000000000000000000000000000000000000000000000000000081526004016107d9906134f9565b60405180910390fd5b7f5a50cca853216358cef16b50b4372aeffa1408785da94c57e62bc17839905f7933858560405161081593929190613278565b60405180910390a150505050565b6060600660008373ffffffffffffffffffffffffffffffffffffffff1673ffffffffffffffffffffffffffffffffffffffff168152602001908152602001600020805480602002602001604051908101604052809291908181526020016000905b82821015610a4857838290600052602060002090600902016040518060a0016040529081600082016040518060600160405290816000820180546108c790613822565b80601f01602080910402602001604051908101604052809291908181526020018280546108f390613822565b80156109405780601f1061091557610100808354040283529160200191610940565b820191906000526020600020905b81548152906001019060200180831161092357829003601f168201915b505050505081526020016001820154815260200160028201548152505081526020016003820160405180606001604052908160008201805461098190613822565b80601f01602080910402602001604051908101604052809291908181526020018280546109ad90613822565b80156109fa5780601f106109cf576101008083540402835291602001916109fa565b820191906000526020600020905b8154815290600101906020018083116109dd57829003601f168201915b50505050508152602001600182015481526020016002820154815250508152602001600682015481526020016007820154815260200160088201548152505081526020019060010190610884565b505050509050919050565b600160009054906101000a900473ffffffffffffffffffffffffffffffffffffffff1673ffffffffffffffffffffffffffffffffffffffff163373ffffffffffffffffffffffffffffffffffffffff161415610ae4576040517f08c379a0000000000000000000000000000000000000000000000000000000008152600401610adb90613479565b60405180910390fd5b60008054906101000a900473ffffffffffffffffffffffffffffffffffffffff1673ffffffffffffffffffffffffffffffffffffffff166323b872dd333060058581548110610b5c577f4e487b7100000000000000000000000000000000000000000000000000000000600052603260045260246000fd5b90600052602060002001546040518463ffffffff1660e01b8152600401610b8593929190613278565b602060405180830381600087803b158015610b9f57600080fd5b505af1158015610bb3573d6000803e3d6000fd5b505050506040513d601f19601f82011682018060405250810190610bd791906129f3565b610c16576040517f08c379a0000000000000000000000000000000000000000000000000000000008152600401610c0d906133d9565b60405180910390fd5b610c1e6124eb565b60006040518060600160405280868152602001858152602001848152509050610c4561261b565b6000600660003373ffffffffffffffffffffffffffffffffffffffff1673ffffffffffffffffffffffffffffffffffffffff168152602001908152602001600020805490509050600660003373ffffffffffffffffffffffffffffffffffffffff1673ffffffffffffffffffffffffffffffffffffffff1681526020019081526020016000206040518060a0016040528085815260200184815260200183815260200160058781548110610d22577f4e487b7100000000000000000000000000000000000000000000000000000000600052603260045260246000fd5b90600052602060002001548152602001600081525090806001815401808255809150506001900390600052602060002090600902016000909190919091506000820151816000016000820151816000019080519060200190610d8592919061263c565b50602082015181600101556040820151816002015550506020820151816003016000820151816000019080519060200190610dc192919061263c565b506020820151816001015560408201518160020155505060408201518160060155606082015181600701556080820151816008015550507f2e7298985f2dd624a11368cfbd0102c3a4d43891b7b687d2f922b615b550cacd3382604051610e299291906132af565b60405180910390a150505050505050565b60025481565b600160009054906101000a900473ffffffffffffffffffffffffffffffffffffffff1673ffffffffffffffffffffffffffffffffffffffff163373ffffffffffffffffffffffffffffffffffffffff1614610ed0576040517f08c379a0000000000000000000000000000000000000000000000000000000008152600401610ec790613379565b60405180910390fd5b60008054906101000a900473ffffffffffffffffffffffffffffffffffffffff1673ffffffffffffffffffffffffffffffffffffffff166318160ddd6040518163ffffffff1660e01b815260040160206040518083038186803b158015610f3657600080fd5b505afa158015610f4a573d6000803e3d6000fd5b505050506040513d601f19601f82011682018060405250810190610f6e9190612ac0565b8110610faf576040517f08c379a0000000000000000000000000000000000000000000000000000000008152600401610fa690613439565b60405180910390fd5b806002819055507f8e4f1d019407583d95e3ff711040e061e5135f06290bf3d551a0f006684ad77281604051610fe59190613519565b60405180910390a150565b600160009054906101000a900473ffffffffffffffffffffffffffffffffffffffff1681565b600960009054906101000a900460ff1615611066576040517f08c379a000000000000000000000000000000000000000000000000000000000815260040161105d906134b9565b60405180910390fd5b6001600960006101000a81548160ff0219169083151502179055506000600160009054906101000a900473ffffffffffffffffffffffffffffffffffffffff1673ffffffffffffffffffffffffffffffffffffffff163373ffffffffffffffffffffffffffffffffffffffff1614156110e1578290506110e5565b3390505b6000600660008373ffffffffffffffffffffffffffffffffffffffff1673ffffffffffffffffffffffffffffffffffffffff1681526020019081526020016000209050600081805490501161116f576040517f08c379a000000000000000000000000000000000000000000000000000000000815260040161116690613419565b60405180910390fd5b808054905083106111b5576040517f08c379a00000000000000000000000000000000000000000000000000000000081526004016111ac90613459565b60405180910390fd5b6040518060200160405280600081525080519060200120818481548110611205577f4e487b7100000000000000000000000000000000000000000000000000000000600052603260045260246000fd5b90600052602060002090600902016003016000016040516112269190613246565b60405180910390201461126e576040517f08c379a000000000000000000000000000000000000000000000000000000000815260040161126590613499565b60405180910390fd5b60008184815481106112a9577f4e487b7100000000000000000000000000000000000000000000000000000000600052603260045260246000fd5b90600052602060002090600902016007015490506001828054905014156115be576000600860016008805490506112e09190613740565b81548110611317577f4e487b7100000000000000000000000000000000000000000000000000000000600052603260045260246000fd5b9060005260206000200160009054906101000a900473ffffffffffffffffffffffffffffffffffffffff1690506000600760008673ffffffffffffffffffffffffffffffffffffffff1673ffffffffffffffffffffffffffffffffffffffff16815260200190815260200160002054905080600760008473ffffffffffffffffffffffffffffffffffffffff1673ffffffffffffffffffffffffffffffffffffffff168152602001908152602001600020819055508160088281548110611407577f4e487b7100000000000000000000000000000000000000000000000000000000600052603260045260246000fd5b9060005260206000200160006101000a81548173ffffffffffffffffffffffffffffffffffffffff021916908373ffffffffffffffffffffffffffffffffffffffff1602179055506008805480611487577f4e487b7100000000000000000000000000000000000000000000000000000000600052603160045260246000fd5b6001900381819060005260206000200160006101000a81549073ffffffffffffffffffffffffffffffffffffffff021916905590556000600760008773ffffffffffffffffffffffffffffffffffffffff1673ffffffffffffffffffffffffffffffffffffffff1681526020019081526020016000208190555083805480611538577f4e487b7100000000000000000000000000000000000000000000000000000000600052603160045260246000fd5b600190038181906000526020600020906009020160008082016000808201600061156291906126c2565b600182016000905560028201600090555050600382016000808201600061158991906126c2565b600182016000905560028201600090555050600682016000905560078201600090556008820160009055505090555050611959565b600082600184805490506115d29190613740565b81548110611609577f4e487b7100000000000000000000000000000000000000000000000000000000600052603260045260246000fd5b90600052602060002090600902016040518060a00160405290816000820160405180606001604052908160008201805461164290613822565b80601f016020809104026020016040519081016040528092919081815260200182805461166e90613822565b80156116bb5780601f10611690576101008083540402835291602001916116bb565b820191906000526020600020905b81548152906001019060200180831161169e57829003601f168201915b50505050508152602001600182015481526020016002820154815250508152602001600382016040518060600160405290816000820180546116fc90613822565b80601f016020809104026020016040519081016040528092919081815260200182805461172890613822565b80156117755780601f1061174a57610100808354040283529160200191611775565b820191906000526020600020905b81548152906001019060200180831161175857829003601f168201915b505050505081526020016001820154815260200160028201548152505081526020016006820154815260200160078201548152602001600882015481525050905084816040018181525050808386815481106117fa577f4e487b7100000000000000000000000000000000000000000000000000000000600052603260045260246000fd5b9060005260206000209060090201600082015181600001600082015181600001908051906020019061182d92919061263c565b5060208201518160010155604082015181600201555050602082015181600301600082015181600001908051906020019061186992919061263c565b5060208201518160010155604082015181600201555050604082015181600601556060820151816007015560808201518160080155905050828054806118d8577f4e487b7100000000000000000000000000000000000000000000000000000000600052603160045260246000fd5b600190038181906000526020600020906009020160008082016000808201600061190291906126c2565b600182016000905560028201600090555050600382016000808201600061192991906126c2565b60018201600090556002820160009055505060068201600090556007820160009055600882016000905550509055505b60008054906101000a900473ffffffffffffffffffffffffffffffffffffffff1673ffffffffffffffffffffffffffffffffffffffff1663a9059cbb84836040518363ffffffff1660e01b81526004016119b49291906132af565b602060405180830381600087803b1580156119ce57600080fd5b505af11580156119e2573d6000803e3d6000fd5b505050506040513d601f19601f82011682018060405250810190611a0691906129f3565b611a45576040517f08c379a0000000000000000000000000000000000000000000000000000000008152600401611a3c906134d9565b60405180910390fd5b7f9f023eae2648b1dc9ce9ef4768da366f2ae94207233ba25fb5894fd5227de2628385604051611a769291906132af565b60405180910390a15050506000600960006101000a81548160ff0219169083151502179055505050565b600160009054906101000a900473ffffffffffffffffffffffffffffffffffffffff1673ffffffffffffffffffffffffffffffffffffffff163373ffffffffffffffffffffffffffffffffffffffff1614611b30576040517f08c379a0000000000000000000000000000000000000000000000000000000008152600401611b2790613379565b60405180910390fd5b60008151905060008060009054906101000a900473ffffffffffffffffffffffffffffffffffffffff1673ffffffffffffffffffffffffffffffffffffffff166318160ddd6040518163ffffffff1660e01b815260040160206040518083038186803b158015611b9f57600080fd5b505afa158015611bb3573d6000803e3d6000fd5b505050506040513d601f19601f82011682018060405250810190611bd79190612ac0565b905060005b82811015611c795781848281518110611c1e577f4e487b7100000000000000000000000000000000000000000000000000000000600052603260045260246000fd5b602002602001015110611c66576040517f08c379a0000000000000000000000000000000000000000000000000000000008152600401611c5d90613399565b60405180910390fd5b8080611c7190613854565b915050611bdc565b508260059080519060200190611c90929190612702565b507fe0fb520658d55c7cad928e0eb0d97b2c8b74648f5d3a3966062460167836e0dd83604051611cc0919061331c565b60405180910390a1505050565b60045481565b60606005805480602002602001604051908101604052809291908181526020018280548015611d2157602002820191906000526020600020905b815481526020019060010190808311611d0d575b5050505050905090565b600960009054906101000a900460ff1615611d7b576040517f08c379a0000000000000000000000000000000000000000000000000000000008152600401611d72906134b9565b60405180910390fd5b6001600960006101000a81548160ff021916908315150217905550600160009054906101000a900473ffffffffffffffffffffffffffffffffffffffff1673ffffffffffffffffffffffffffffffffffffffff163373ffffffffffffffffffffffffffffffffffffffff1614611e26576040517f08c379a0000000000000000000000000000000000000000000000000000000008152600401611e1d90613379565b60405180910390fd5b6000600660008773ffffffffffffffffffffffffffffffffffffffff1673ffffffffffffffffffffffffffffffffffffffff168152602001908152602001600020805480602002602001604051908101604052809291908181526020016000905b8282101561204b57838290600052602060002090600902016040518060a001604052908160008201604051806060016040529081600082018054611eca90613822565b80601f0160208091040260200160405190810160405280929190818152602001828054611ef690613822565b8015611f435780601f10611f1857610100808354040283529160200191611f43565b820191906000526020600020905b815481529060010190602001808311611f2657829003601f168201915b5050505050815260200160018201548152602001600282015481525050815260200160038201604051806060016040529081600082018054611f8490613822565b80601f0160208091040260200160405190810160405280929190818152602001828054611fb090613822565b8015611ffd5780601f10611fd257610100808354040283529160200191611ffd565b820191906000526020600020905b815481529060010190602001808311611fe057829003601f168201915b50505050508152602001600182015481526020016002820154815250508152602001600682015481526020016007820154815260200160088201548152505081526020019060010190611e87565b50505050905080518210612094576040517f08c379a000000000000000000000000000000000000000000000000000000000815260040161208b90613359565b60405180910390fd5b60008183815181106120cf577f4e487b7100000000000000000000000000000000000000000000000000000000600052603260045260246000fd5b60200260200101516060015190506000600454826120ed919061370f565b9050600081836120fd9190613740565b9050600060405180606001604052808a81526020018981526020018881525090506000858781518110612159577f4e487b7100000000000000000000000000000000000000000000000000000000600052603260045260246000fd5b602002602001015190508181602001819052506000816060018181525050808688815181106121b1577f4e487b7100000000000000000000000000000000000000000000000000000000600052603260045260246000fd5b602002602001018190525060008054906101000a900473ffffffffffffffffffffffffffffffffffffffff1673ffffffffffffffffffffffffffffffffffffffff1663a9059cbb600160009054906101000a900473ffffffffffffffffffffffffffffffffffffffff16856040518363ffffffff1660e01b81526004016122399291906132af565b602060405180830381600087803b15801561225357600080fd5b505af1158015612267573d6000803e3d6000fd5b505050506040513d601f19601f8201168201806040525081019061228b91906129f3565b6122ca576040517f08c379a00000000000000000000000000000000000000000000000000000000081526004016122c1906133f9565b60405180910390fd5b60008054906101000a900473ffffffffffffffffffffffffffffffffffffffff1673ffffffffffffffffffffffffffffffffffffffff1663a9059cbb600360009054906101000a900473ffffffffffffffffffffffffffffffffffffffff16866040518363ffffffff1660e01b81526004016123479291906132af565b602060405180830381600087803b15801561236157600080fd5b505af1158015612375573d6000803e3d6000fd5b505050506040513d601f19601f8201168201806040525081019061239991906129f3565b6123d8576040517f08c379a00000000000000000000000000000000000000000000000000000000081526004016123cf906133b9565b60405180910390fd5b7f429c694aa6647ed579b2576c88071af439f05fe6dc41964661e1bf0937f324c18b886040516124099291906132af565b60405180910390a15050505050506000600960006101000a81548160ff0219169083151502179055505050505050565b606060088054806020026020016040519081016040528092919081815260200182805480156124bd57602002820191906000526020600020905b8160009054906101000a900473ffffffffffffffffffffffffffffffffffffffff1673ffffffffffffffffffffffffffffffffffffffff1681526020019060010190808311612473575b5050505050905090565b60008054906101000a900473ffffffffffffffffffffffffffffffffffffffff1681565b600073ffffffffffffffffffffffffffffffffffffffff163373ffffffffffffffffffffffffffffffffffffffff161415801561256757506000600760003373ffffffffffffffffffffffffffffffffffffffff1673ffffffffffffffffffffffffffffffffffffffff16815260200190815260200160002054145b1561261957600880549050600760003373ffffffffffffffffffffffffffffffffffffffff1673ffffffffffffffffffffffffffffffffffffffff168152602001908152602001600020819055506008339080600181540180825580915050600190039060005260206000200160009091909190916101000a81548173ffffffffffffffffffffffffffffffffffffffff021916908373ffffffffffffffffffffffffffffffffffffffff1602179055505b565b60405180606001604052806060815260200160008152602001600081525090565b82805461264890613822565b90600052602060002090601f01602090048101928261266a57600085556126b1565b82601f1061268357805160ff19168380011785556126b1565b828001600101855582156126b1579182015b828111156126b0578251825591602001919060010190612695565b5b5090506126be919061274f565b5090565b5080546126ce90613822565b6000825580601f106126e057506126ff565b601f0160209004906000526020600020908101906126fe919061274f565b5b50565b82805482825590600052602060002090810192821561273e579160200282015b8281111561273d578251825591602001919060010190612722565b5b50905061274b919061274f565b5090565b5b80821115612768576000816000905550600101612750565b5090565b600061277f61277a84613565565b613534565b9050808382526020820190508285602086028201111561279e57600080fd5b60005b858110156127ce57816127b48882612894565b8452602084019350602083019250506001810190506127a1565b5050509392505050565b60006127eb6127e684613591565b613534565b90508281526020810184848401111561280357600080fd5b61280e8482856137e0565b509392505050565b6000813590506128258161396a565b92915050565b600082601f83011261283c57600080fd5b813561284c84826020860161276c565b91505092915050565b60008151905061286481613981565b92915050565b600082601f83011261287b57600080fd5b813561288b8482602086016127d8565b91505092915050565b6000813590506128a381613998565b92915050565b6000815190506128b881613998565b92915050565b6000602082840312156128d057600080fd5b60006128de84828501612816565b91505092915050565b600080600080600060a086880312156128ff57600080fd5b600061290d88828901612816565b955050602086013567ffffffffffffffff81111561292a57600080fd5b6129368882890161286a565b945050604061294788828901612894565b935050606061295888828901612894565b925050608061296988828901612894565b9150509295509295909350565b6000806040838503121561298957600080fd5b600061299785828601612816565b92505060206129a885828601612894565b9150509250929050565b6000602082840312156129c457600080fd5b600082013567ffffffffffffffff8111156129de57600080fd5b6129ea8482850161282b565b91505092915050565b600060208284031215612a0557600080fd5b6000612a1384828501612855565b91505092915050565b60008060008060808587031215612a3257600080fd5b600085013567ffffffffffffffff811115612a4c57600080fd5b612a588782880161286a565b9450506020612a6987828801612894565b9350506040612a7a87828801612894565b9250506060612a8b87828801612894565b91505092959194509250565b600060208284031215612aa957600080fd5b6000612ab784828501612894565b91505092915050565b600060208284031215612ad257600080fd5b6000612ae0848285016128a9565b91505092915050565b6000612af58383612b2d565b60208301905092915050565b6000612b0d83836131ab565b905092915050565b6000612b218383613228565b60208301905092915050565b612b3681613774565b82525050565b612b4581613774565b82525050565b6000612b5682613606565b612b608185613659565b9350612b6b836135c1565b8060005b83811015612b9c578151612b838882612ae9565b9750612b8e83613632565b925050600181019050612b6f565b5085935050505092915050565b6000612bb482613611565b612bbe818561366a565b935083602082028501612bd0856135d1565b8060005b85811015612c0c5784840389528151612bed8582612b01565b9450612bf88361363f565b925060208a01995050600181019050612bd4565b50829750879550505050505092915050565b6000612c298261361c565b612c33818561367b565b9350612c3e836135e1565b8060005b83811015612c6f578151612c568882612b15565b9750612c618361364c565b925050600181019050612c42565b5085935050505092915050565b60008154612c8981613822565b612c93818661368c565b94506001821660008114612cae5760018114612cbf57612cf2565b60ff19831686528186019350612cf2565b612cc8856135f1565b60005b83811015612cea57815481890152600182019150602081019050612ccb565b838801955050505b50505092915050565b612d04816137bc565b82525050565b6000612d1582613627565b612d1f8185613697565b9350612d2f8185602086016137ef565b612d3881613959565b840191505092915050565b6000612d506018836136a8565b91507f45786368616e676520646f6573206e6f742065786973742e00000000000000006000830152602082019050919050565b6000612d90601c836136a8565b91507f556e617574686f72697a65643a204d757374206265206f776e65722e000000006000830152602082019050919050565b6000612dd0604c836136a8565b91507f4174206c65617374206f6e65206f66207468652074696572732068617320612060008301527f76616c75652067726561746572207468616e2074686520746f6b656e2773207460208301527f6f74616c20737570706c792e00000000000000000000000000000000000000006040830152606082019050919050565b6000612e5c6018836136a8565b91507f4661696c656420746f2070617920646576656c6f7065722e00000000000000006000830152602082019050919050565b6000612e9c6012836136a8565b91507f496e73756666696369656e742066756e647300000000000000000000000000006000830152602082019050919050565b6000612edc6014836136a8565b91507f4661696c656420746f20706179206f776e65722e0000000000000000000000006000830152602082019050919050565b6000612f1c6021836136a8565b91507f4e6f207175657374696f6e7320617661696c61626c6520746f2072656d6f766560008301527f2e000000000000000000000000000000000000000000000000000000000000006020830152604082019050919050565b6000612f82602c836136a8565b91507f546865207469702070726963652067726561746572207468616e20746865207460008301527f6f74616c20737570706c792e00000000000000000000000000000000000000006020830152604082019050919050565b6000612fe86018836136a8565b91507f5175657374696f6e20646f6573206e6f742065786973742e00000000000000006000830152602082019050919050565b60006130286020836136a8565b91507f556e617574686f72697a65643a204d757374206e6f74206265206f776e65722e6000830152602082019050919050565b6000613068601a836136a8565b91507f5175657374696f6e20616c726561647920616e7377657265642e0000000000006000830152602082019050919050565b60006130a8600f836136a8565b91507f4e6f2072652d656e7472616e63792e00000000000000000000000000000000006000830152602082019050919050565b60006130e8601c836136a8565b91507f4661696c656420746f2073656e6420697373756520726566756e642e000000006000830152602082019050919050565b60006131286019836136a8565b91507f4661696c656420746f2073656e64206973737565207469702e000000000000006000830152602082019050919050565b600060608301600083015184820360008601526131788282612d0a565b915050602083015161318d6020860182613228565b5060408301516131a06040860182613228565b508091505092915050565b600060a08301600083015184820360008601526131c8828261315b565b915050602083015184820360208601526131e2828261315b565b91505060408301516131f76040860182613228565b50606083015161320a6060860182613228565b50608083015161321d6080860182613228565b508091505092915050565b613231816137b2565b82525050565b613240816137b2565b82525050565b60006132528284612c7c565b915081905092915050565b60006020820190506132726000830184612b3c565b92915050565b600060608201905061328d6000830186612b3c565b61329a6020830185612b3c565b6132a76040830184613237565b949350505050565b60006040820190506132c46000830185612b3c565b6132d16020830184613237565b9392505050565b600060208201905081810360008301526132f28184612b4b565b905092915050565b600060208201905081810360008301526133148184612ba9565b905092915050565b600060208201905081810360008301526133368184612c1e565b905092915050565b60006020820190506133536000830184612cfb565b92915050565b6000602082019050818103600083015261337281612d43565b9050919050565b6000602082019050818103600083015261339281612d83565b9050919050565b600060208201905081810360008301526133b281612dc3565b9050919050565b600060208201905081810360008301526133d281612e4f565b9050919050565b600060208201905081810360008301526133f281612e8f565b9050919050565b6000602082019050818103600083015261341281612ecf565b9050919050565b6000602082019050818103600083015261343281612f0f565b9050919050565b6000602082019050818103600083015261345281612f75565b9050919050565b6000602082019050818103600083015261347281612fdb565b9050919050565b600060208201905081810360008301526134928161301b565b9050919050565b600060208201905081810360008301526134b28161305b565b9050919050565b600060208201905081810360008301526134d28161309b565b9050919050565b600060208201905081810360008301526134f2816130db565b9050919050565b600060208201905081810360008301526135128161311b565b9050919050565b600060208201905061352e6000830184613237565b92915050565b6000604051905081810181811067ffffffffffffffff8211171561355b5761355a61392a565b5b8060405250919050565b600067ffffffffffffffff8211156135805761357f61392a565b5b602082029050602081019050919050565b600067ffffffffffffffff8211156135ac576135ab61392a565b5b601f19601f8301169050602081019050919050565b6000819050602082019050919050565b6000819050602082019050919050565b6000819050602082019050919050565b60008190508160005260206000209050919050565b600081519050919050565b600081519050919050565b600081519050919050565b600081519050919050565b6000602082019050919050565b6000602082019050919050565b6000602082019050919050565b600082825260208201905092915050565b600082825260208201905092915050565b600082825260208201905092915050565b600081905092915050565b600082825260208201905092915050565b600082825260208201905092915050565b60006136c4826137b2565b91506136cf836137b2565b9250827fffffffffffffffffffffffffffffffffffffffffffffffffffffffffffffffff038211156137045761370361389d565b5b828201905092915050565b600061371a826137b2565b9150613725836137b2565b925082613735576137346138cc565b5b828204905092915050565b600061374b826137b2565b9150613756836137b2565b9250828210156137695761376861389d565b5b828203905092915050565b600061377f82613792565b9050919050565b60008115159050919050565b600073ffffffffffffffffffffffffffffffffffffffff82169050919050565b6000819050919050565b60006137c7826137ce565b9050919050565b60006137d982613792565b9050919050565b82818337600083830152505050565b60005b8381101561380d5780820151818401526020810190506137f2565b8381111561381c576000848401525b50505050565b6000600282049050600182168061383a57607f821691505b6020821081141561384e5761384d6138fb565b5b50919050565b600061385f826137b2565b91507fffffffffffffffffffffffffffffffffffffffffffffffffffffffffffffffff8214156138925761389161389d565b5b600182019050919050565b7f4e487b7100000000000000000000000000000000000000000000000000000000600052601160045260246000fd5b7f4e487b7100000000000000000000000000000000000000000000000000000000600052601260045260246000fd5b7f4e487b7100000000000000000000000000000000000000000000000000000000600052602260045260246000fd5b7f4e487b7100000000000000000000000000000000000000000000000000000000600052604160045260246000fd5b6000601f19601f8301169050919050565b61397381613774565b811461397e57600080fd5b50565b61398a81613786565b811461399557600080fd5b50565b6139a1816137b2565b81146139ac57600080fd5b5056fea2646970667358221220490177a34df8f4c7109085f7c7aaf922553fde2f164148efd6cdb024d18a341f64736f6c63430008000033a2646970667358221220cbdd97f4eaea04c225f5c25e87886791cf032326a5194d8719b716f7c90ce97f64736f6c63430008000033",
  "linkReferences": {},
  "deployedLinkReferences": {}
}