{
  "_format": "hh-sol-artifact-1",
  "contractName": "AskMi",
  "sourceName": "contracts/askmi.sol",
  "abi": [
    {
      "inputs": [
        {
          "internalType": "address",
          "name": "developer",
          "type": "address"
        },
        {
          "internalType": "address",
          "name": "owner",
          "type": "address"
        },
        {
          "internalType": "address",
          "name": "tiersToken",
          "type": "address"
        },
        {
          "internalType": "address",
          "name": "tipToken",
          "type": "address"
        },
        {
          "internalType": "uint256[]",
          "name": "tiers",
          "type": "uint256[]"
        },
        {
          "internalType": "uint256",
          "name": "tip",
          "type": "uint256"
        },
        {
          "internalType": "uint256",
          "name": "removalFee",
          "type": "uint256"
        }
      ],
      "stateMutability": "nonpayable",
      "type": "constructor"
    },
    {
      "anonymous": false,
      "inputs": [
        {
          "indexed": false,
          "internalType": "address",
          "name": "questioner",
          "type": "address"
        },
        {
          "indexed": false,
          "internalType": "uint256",
          "name": "index",
          "type": "uint256"
        }
      ],
      "name": "QuestionAnswered",
      "type": "event"
    },
    {
      "inputs": [],
      "name": "_disabled",
      "outputs": [
        {
          "internalType": "bool",
          "name": "",
          "type": "bool"
        }
      ],
      "stateMutability": "view",
      "type": "function"
    },
    {
      "inputs": [],
      "name": "_fees",
      "outputs": [
        {
          "internalType": "uint256",
          "name": "removal",
          "type": "uint256"
        },
        {
          "internalType": "uint256",
          "name": "developer",
          "type": "uint256"
        }
      ],
      "stateMutability": "view",
      "type": "function"
    },
    {
      "inputs": [],
      "name": "_owner",
      "outputs": [
        {
          "internalType": "address",
          "name": "",
          "type": "address"
        }
      ],
      "stateMutability": "view",
      "type": "function"
    },
    {
      "inputs": [],
      "name": "_tip",
      "outputs": [
        {
          "internalType": "address",
          "name": "token",
          "type": "address"
        },
        {
          "internalType": "uint256",
          "name": "tip",
          "type": "uint256"
        }
      ],
      "stateMutability": "view",
      "type": "function"
    },
    {
      "inputs": [
        {
          "internalType": "address",
          "name": "functionsContract",
          "type": "address"
        },
        {
          "internalType": "address",
          "name": "token",
          "type": "address"
        },
        {
          "internalType": "string",
          "name": "digest",
          "type": "string"
        },
        {
          "internalType": "uint256",
          "name": "hashFunction",
          "type": "uint256"
        },
        {
          "internalType": "uint256",
          "name": "size",
          "type": "uint256"
        },
        {
          "internalType": "uint256",
          "name": "index",
          "type": "uint256"
        }
      ],
      "name": "ask",
      "outputs": [],
      "stateMutability": "payable",
      "type": "function"
    },
    {
      "inputs": [
        {
          "internalType": "address",
          "name": "token",
          "type": "address"
        }
      ],
      "name": "getTiers",
      "outputs": [
        {
          "internalType": "uint256[]",
          "name": "",
          "type": "uint256[]"
        }
      ],
      "stateMutability": "view",
      "type": "function"
    },
    {
      "inputs": [
        {
          "internalType": "address",
          "name": "functionsContract",
          "type": "address"
        },
        {
          "internalType": "address",
          "name": "questioner",
          "type": "address"
        },
        {
          "internalType": "uint256",
          "name": "index",
          "type": "uint256"
        }
      ],
      "name": "issueTip",
      "outputs": [],
      "stateMutability": "payable",
      "type": "function"
    },
    {
      "inputs": [],
      "name": "questioners",
      "outputs": [
        {
          "internalType": "address[]",
          "name": "",
          "type": "address[]"
        }
      ],
      "stateMutability": "view",
      "type": "function"
    },
    {
      "inputs": [
        {
          "internalType": "address",
          "name": "questioner",
          "type": "address"
        }
      ],
      "name": "questions",
      "outputs": [
        {
          "components": [
            {
              "components": [
                {
                  "internalType": "string",
                  "name": "digest",
                  "type": "string"
                },
                {
                  "internalType": "uint256",
                  "name": "hashFunction",
                  "type": "uint256"
                },
                {
                  "internalType": "uint256",
                  "name": "size",
                  "type": "uint256"
                }
              ],
              "internalType": "struct AskMi.Cid",
              "name": "question",
              "type": "tuple"
            },
            {
              "components": [
                {
                  "internalType": "string",
                  "name": "digest",
                  "type": "string"
                },
                {
                  "internalType": "uint256",
                  "name": "hashFunction",
                  "type": "uint256"
                },
                {
                  "internalType": "uint256",
                  "name": "size",
                  "type": "uint256"
                }
              ],
              "internalType": "struct AskMi.Cid",
              "name": "answer",
              "type": "tuple"
            },
            {
              "internalType": "address",
              "name": "token",
              "type": "address"
            },
            {
              "internalType": "uint256",
              "name": "index",
              "type": "uint256"
            },
            {
              "internalType": "uint256",
              "name": "balance",
              "type": "uint256"
            },
            {
              "internalType": "uint256",
              "name": "tips",
              "type": "uint256"
            }
          ],
          "internalType": "struct AskMi.Exchange[]",
          "name": "",
          "type": "tuple[]"
        }
      ],
      "stateMutability": "view",
      "type": "function"
    },
    {
      "inputs": [
        {
          "internalType": "address",
          "name": "functionsContract",
          "type": "address"
        },
        {
          "internalType": "address",
          "name": "questioner",
          "type": "address"
        },
        {
          "internalType": "uint256",
          "name": "index",
          "type": "uint256"
        }
      ],
      "name": "remove",
      "outputs": [],
      "stateMutability": "nonpayable",
      "type": "function"
    },
    {
      "inputs": [
        {
          "internalType": "address",
          "name": "functionsContract",
          "type": "address"
        },
        {
          "internalType": "address",
          "name": "questioner",
          "type": "address"
        },
        {
          "internalType": "string",
          "name": "digest",
          "type": "string"
        },
        {
          "internalType": "uint256",
          "name": "hashFunction",
          "type": "uint256"
        },
        {
          "internalType": "uint256",
          "name": "size",
          "type": "uint256"
        },
        {
          "internalType": "uint256",
          "name": "index",
          "type": "uint256"
        }
      ],
      "name": "respond",
      "outputs": [],
      "stateMutability": "nonpayable",
      "type": "function"
    },
    {
      "inputs": [],
      "name": "supportedTokens",
      "outputs": [
        {
          "internalType": "address[]",
          "name": "",
          "type": "address[]"
        }
      ],
      "stateMutability": "view",
      "type": "function"
    },
    {
      "inputs": [
        {
          "internalType": "address",
          "name": "functionsContract",
          "type": "address"
        }
      ],
      "name": "toggleDisabled",
      "outputs": [],
      "stateMutability": "nonpayable",
      "type": "function"
    },
    {
      "inputs": [
        {
          "internalType": "address",
          "name": "functionsContract",
          "type": "address"
        },
        {
          "internalType": "uint256",
          "name": "removalFee",
          "type": "uint256"
        }
      ],
      "name": "updateRemovalFee",
      "outputs": [],
      "stateMutability": "nonpayable",
      "type": "function"
    },
    {
      "inputs": [
        {
          "internalType": "address",
          "name": "functionsContract",
          "type": "address"
        },
        {
          "internalType": "address",
          "name": "token",
          "type": "address"
        },
        {
          "internalType": "uint256[]",
          "name": "tiers",
          "type": "uint256[]"
        }
      ],
      "name": "updateTiers",
      "outputs": [],
      "stateMutability": "nonpayable",
      "type": "function"
    },
    {
      "inputs": [
        {
          "internalType": "address",
          "name": "functionsContract",
          "type": "address"
        },
        {
          "internalType": "uint256",
          "name": "tip",
          "type": "uint256"
        },
        {
          "internalType": "address",
          "name": "token",
          "type": "address"
        }
      ],
      "name": "updateTip",
      "outputs": [],
      "stateMutability": "nonpayable",
      "type": "function"
    }
  ],
  "bytecode": "0x60806040523480156200001157600080fd5b5060405162002a1238038062002a1283398181016040528101906200003791906200054e565b86600360006101000a81548173ffffffffffffffffffffffffffffffffffffffff021916908373ffffffffffffffffffffffffffffffffffffffff160217905550856000806101000a81548173ffffffffffffffffffffffffffffffffffffffff021916908373ffffffffffffffffffffffffffffffffffffffff16021790555060326004600101819055506127108111156200010b576040517f08c379a0000000000000000000000000000000000000000000000000000000008152600401620001029062000748565b60405180910390fd5b806004600001819055506000835190506000811180156200012c5750600a81105b6200016e576040517f08c379a0000000000000000000000000000000000000000000000000000000008152600401620001659062000726565b60405180910390fd5b60005b8181101562000217576000858281518110620001b6577f4e487b7100000000000000000000000000000000000000000000000000000000600052603260045260246000fd5b60200260200101511162000201576040517f08c379a0000000000000000000000000000000000000000000000000000000008152600401620001f8906200076a565b60405180910390fd5b80806200020e906200083e565b91505062000171565b50600980549050600a60008873ffffffffffffffffffffffffffffffffffffffff1673ffffffffffffffffffffffffffffffffffffffff168152602001908152602001600020819055506009869080600181540180825580915050600190039060005260206000200160009091909190916101000a81548173ffffffffffffffffffffffffffffffffffffffff021916908373ffffffffffffffffffffffffffffffffffffffff16021790555083600b60008873ffffffffffffffffffffffffffffffffffffffff1673ffffffffffffffffffffffffffffffffffffffff1681526020019081526020016000209080519060200190620003199291906200040d565b5060405180604001604052808673ffffffffffffffffffffffffffffffffffffffff16815260200184815250600160008201518160000160006101000a81548173ffffffffffffffffffffffffffffffffffffffff021916908373ffffffffffffffffffffffffffffffffffffffff16021790555060208201518160010155905050600660009080600181540180825580915050600190039060005260206000200160009091909190916101000a81548173ffffffffffffffffffffffffffffffffffffffff021916908373ffffffffffffffffffffffffffffffffffffffff16021790555050505050505050506200091e565b8280548282559060005260206000209081019282156200044c579160200282015b828111156200044b5782518255916020019190600101906200042e565b5b5090506200045b91906200045f565b5090565b5b808211156200047a57600081600090555060010162000460565b5090565b6000620004956200048f84620007c0565b6200078c565b90508083825260208201905082856020860282011115620004b557600080fd5b60005b85811015620004e95781620004ce888262000537565b845260208401935060208301925050600181019050620004b8565b5050509392505050565b6000815190506200050481620008ea565b92915050565b600082601f8301126200051c57600080fd5b81516200052e8482602086016200047e565b91505092915050565b600081519050620005488162000904565b92915050565b600080600080600080600060e0888a0312156200056a57600080fd5b60006200057a8a828b01620004f3565b97505060206200058d8a828b01620004f3565b9650506040620005a08a828b01620004f3565b9550506060620005b38a828b01620004f3565b945050608088015167ffffffffffffffff811115620005d157600080fd5b620005df8a828b016200050a565b93505060a0620005f28a828b0162000537565b92505060c0620006058a828b0162000537565b91505092959891949750929550565b600062000623601383620007ef565b91507f43686f6f7365203120746f2039207469657273000000000000000000000000006000830152602082019050919050565b600062000665602383620007ef565b91507f52656d6f76616c20466565206d757374206265206c657373207468616e20313060008301527f30303000000000000000000000000000000000000000000000000000000000006020830152604082019050919050565b6000620006cd602183620007ef565b91507f546965722076616c7565206d7573742062652067726561746572207468616e2060008301527f30000000000000000000000000000000000000000000000000000000000000006020830152604082019050919050565b60006020820190508181036000830152620007418162000614565b9050919050565b60006020820190508181036000830152620007638162000656565b9050919050565b600060208201905081810360008301526200078581620006be565b9050919050565b6000604051905081810181811067ffffffffffffffff82111715620007b657620007b5620008bb565b5b8060405250919050565b600067ffffffffffffffff821115620007de57620007dd620008bb565b5b602082029050602081019050919050565b600082825260208201905092915050565b60006200080d8262000814565b9050919050565b600073ffffffffffffffffffffffffffffffffffffffff82169050919050565b6000819050919050565b60006200084b8262000834565b91507fffffffffffffffffffffffffffffffffffffffffffffffffffffffffffffffff8214156200088157620008806200088c565b5b600182019050919050565b7f4e487b7100000000000000000000000000000000000000000000000000000000600052601160045260246000fd5b7f4e487b7100000000000000000000000000000000000000000000000000000000600052604160045260246000fd5b620008f58162000800565b81146200090157600080fd5b50565b6200090f8162000834565b81146200091b57600080fd5b50565b6120e4806200092e6000396000f3fe6080604052600436106100f35760003560e01c80638628f2611161008a578063cef3d8aa11610059578063cef3d8aa14610307578063d212a69a14610333578063e3a490c71461035f578063f7da86b11461037b576100f3565b80638628f2611461025d578063b002249d14610286578063b014a3d4146102b1578063b2bdfa7b146102dc576100f3565b806359e5fd04116100c657806359e5fd04146101915780635eaf8b97146101ba5780636a064d2d146101f7578063709acc7514610234576100f3565b806313e13c5a146100f857806345dd6ddd146101215780634d1128471461013d5780635701302314610168575b600080fd5b34801561010457600080fd5b5061011f600480360381019061011a9190611575565b6103a4565b005b61013b60048036038101906101369190611449565b6104e4565b005b34801561014957600080fd5b5061015261062d565b60405161015f9190611c52565b60405180910390f35b34801561017457600080fd5b5061018f600480360381019061018a91906113e2565b610640565b005b34801561019d57600080fd5b506101b860048036038101906101b391906114ea565b610780565b005b3480156101c657600080fd5b506101e160048036038101906101dc91906113b9565b6108c0565b6040516101ee9190611c30565b60405180910390f35b34801561020357600080fd5b5061021e600480360381019061021991906113b9565b610957565b60405161022b9190611c0e565b60405180910390f35b34801561024057600080fd5b5061025b600480360381019061025691906113b9565b610bdd565b005b34801561026957600080fd5b50610284600480360381019061027f9190611449565b610d0e565b005b34801561029257600080fd5b5061029b610e90565b6040516102a89190611bec565b60405180910390f35b3480156102bd57600080fd5b506102c6610f1e565b6040516102d39190611bec565b60405180910390f35b3480156102e857600080fd5b506102f1610fac565b6040516102fe9190611b1e565b60405180910390f35b34801561031357600080fd5b5061031c610fd0565b60405161032a929190611bc3565b60405180910390f35b34801561033f57600080fd5b50610348611002565b604051610356929190611db1565b60405180910390f35b610379600480360381019061037491906114ea565b611014565b005b34801561038757600080fd5b506103a2600480360381019061039d9190611539565b611154565b005b60008373ffffffffffffffffffffffffffffffffffffffff1683836040516024016103d0929190611d88565b6040516020818303038152906040527ff2bcd515000000000000000000000000000000000000000000000000000000007bffffffffffffffffffffffffffffffffffffffffffffffffffffffff19166020820180517bffffffffffffffffffffffffffffffffffffffffffffffffffffffff838183161783525050505060405161045a9190611b07565b600060405180830381855af49150503d8060008114610495576040519150601f19603f3d011682016040523d82523d6000602084013e61049a565b606091505b50509050806104de576040517f08c379a00000000000000000000000000000000000000000000000000000000081526004016104d590611d0d565b60405180910390fd5b50505050565b60008673ffffffffffffffffffffffffffffffffffffffff168686868686604051602401610516959493929190611b69565b6040516020818303038152906040527ff65bf460000000000000000000000000000000000000000000000000000000007bffffffffffffffffffffffffffffffffffffffffffffffffffffffff19166020820180517bffffffffffffffffffffffffffffffffffffffffffffffffffffffff83818316178352505050506040516105a09190611b07565b600060405180830381855af49150503d80600081146105db576040519150601f19603f3d011682016040523d82523d6000602084013e6105e0565b606091505b5050905080610624576040517f08c379a000000000000000000000000000000000000000000000000000000000815260040161061b90611cad565b60405180910390fd5b50505050505050565b600060159054906101000a900460ff1681565b60008373ffffffffffffffffffffffffffffffffffffffff16838360405160240161066c929190611b39565b6040516020818303038152906040527f3080e2ed000000000000000000000000000000000000000000000000000000007bffffffffffffffffffffffffffffffffffffffffffffffffffffffff19166020820180517bffffffffffffffffffffffffffffffffffffffffffffffffffffffff83818316178352505050506040516106f69190611b07565b600060405180830381855af49150503d8060008114610731576040519150601f19603f3d011682016040523d82523d6000602084013e610736565b606091505b505090508061077a576040517f08c379a000000000000000000000000000000000000000000000000000000000815260040161077190611c6d565b60405180910390fd5b50505050565b60008373ffffffffffffffffffffffffffffffffffffffff1683836040516024016107ac929190611bc3565b6040516020818303038152906040527fabe7f1ab000000000000000000000000000000000000000000000000000000007bffffffffffffffffffffffffffffffffffffffffffffffffffffffff19166020820180517bffffffffffffffffffffffffffffffffffffffffffffffffffffffff83818316178352505050506040516108369190611b07565b600060405180830381855af49150503d8060008114610871576040519150601f19603f3d011682016040523d82523d6000602084013e610876565b606091505b50509050806108ba576040517f08c379a00000000000000000000000000000000000000000000000000000000081526004016108b190611c8d565b60405180910390fd5b50505050565b6060600b60008373ffffffffffffffffffffffffffffffffffffffff1673ffffffffffffffffffffffffffffffffffffffff16815260200190815260200160002080548060200260200160405190810160405280929190818152602001828054801561094b57602002820191906000526020600020905b815481526020019060010190808311610937575b50505050509050919050565b6060600860008373ffffffffffffffffffffffffffffffffffffffff1673ffffffffffffffffffffffffffffffffffffffff168152602001908152602001600020805480602002602001604051908101604052809291908181526020016000905b82821015610bd257838290600052602060002090600a02016040518060c0016040529081600082016040518060600160405290816000820180546109fb90611fdf565b80601f0160208091040260200160405190810160405280929190818152602001828054610a2790611fdf565b8015610a745780601f10610a4957610100808354040283529160200191610a74565b820191906000526020600020905b815481529060010190602001808311610a5757829003601f168201915b5050505050815260200160018201548152602001600282015481525050815260200160038201604051806060016040529081600082018054610ab590611fdf565b80601f0160208091040260200160405190810160405280929190818152602001828054610ae190611fdf565b8015610b2e5780601f10610b0357610100808354040283529160200191610b2e565b820191906000526020600020905b815481529060010190602001808311610b1157829003601f168201915b505050505081526020016001820154815260200160028201548152505081526020016006820160009054906101000a900473ffffffffffffffffffffffffffffffffffffffff1673ffffffffffffffffffffffffffffffffffffffff1673ffffffffffffffffffffffffffffffffffffffff1681526020016007820154815260200160088201548152602001600982015481525050815260200190600101906109b8565b505050509050919050565b60008173ffffffffffffffffffffffffffffffffffffffff166040516024016040516020818303038152906040527f621b99a7000000000000000000000000000000000000000000000000000000007bffffffffffffffffffffffffffffffffffffffffffffffffffffffff19166020820180517bffffffffffffffffffffffffffffffffffffffffffffffffffffffff8381831617835250505050604051610c869190611b07565b600060405180830381855af49150503d8060008114610cc1576040519150601f19603f3d011682016040523d82523d6000602084013e610cc6565b606091505b5050905080610d0a576040517f08c379a0000000000000000000000000000000000000000000000000000000008152600401610d0190611ccd565b60405180910390fd5b5050565b60008673ffffffffffffffffffffffffffffffffffffffff168686868686604051602401610d40959493929190611b69565b6040516020818303038152906040527fe4c0967c000000000000000000000000000000000000000000000000000000007bffffffffffffffffffffffffffffffffffffffffffffffffffffffff19166020820180517bffffffffffffffffffffffffffffffffffffffffffffffffffffffff8381831617835250505050604051610dca9190611b07565b600060405180830381855af49150503d8060008114610e05576040519150601f19603f3d011682016040523d82523d6000602084013e610e0a565b606091505b5050905080610e4e576040517f08c379a0000000000000000000000000000000000000000000000000000000008152600401610e4590611d4d565b60405180910390fd5b7f429c694aa6647ed579b2576c88071af439f05fe6dc41964661e1bf0937f324c18683604051610e7f929190611bc3565b60405180910390a150505050505050565b60606009805480602002602001604051908101604052809291908181526020018280548015610f1457602002820191906000526020600020905b8160009054906101000a900473ffffffffffffffffffffffffffffffffffffffff1673ffffffffffffffffffffffffffffffffffffffff1681526020019060010190808311610eca575b5050505050905090565b60606006805480602002602001604051908101604052809291908181526020018280548015610fa257602002820191906000526020600020905b8160009054906101000a900473ffffffffffffffffffffffffffffffffffffffff1673ffffffffffffffffffffffffffffffffffffffff1681526020019060010190808311610f58575b5050505050905090565b60008054906101000a900473ffffffffffffffffffffffffffffffffffffffff1681565b60018060000160009054906101000a900473ffffffffffffffffffffffffffffffffffffffff16908060010154905082565b60048060000154908060010154905082565b60008373ffffffffffffffffffffffffffffffffffffffff168383604051602401611040929190611bc3565b6040516020818303038152906040527f05beb077000000000000000000000000000000000000000000000000000000007bffffffffffffffffffffffffffffffffffffffffffffffffffffffff19166020820180517bffffffffffffffffffffffffffffffffffffffffffffffffffffffff83818316178352505050506040516110ca9190611b07565b600060405180830381855af49150503d8060008114611105576040519150601f19603f3d011682016040523d82523d6000602084013e61110a565b606091505b505090508061114e576040517f08c379a000000000000000000000000000000000000000000000000000000000815260040161114590611ced565b60405180910390fd5b50505050565b60008273ffffffffffffffffffffffffffffffffffffffff168260405160240161117e9190611d6d565b6040516020818303038152906040527f65b1b48e000000000000000000000000000000000000000000000000000000007bffffffffffffffffffffffffffffffffffffffffffffffffffffffff19166020820180517bffffffffffffffffffffffffffffffffffffffffffffffffffffffff83818316178352505050506040516112089190611b07565b600060405180830381855af49150503d8060008114611243576040519150601f19603f3d011682016040523d82523d6000602084013e611248565b606091505b505090508061128c576040517f08c379a000000000000000000000000000000000000000000000000000000000815260040161128390611d2d565b60405180910390fd5b505050565b60006112a461129f84611e0b565b611dda565b905080838252602082019050828560208602820111156112c357600080fd5b60005b858110156112f357816112d988826113a4565b8452602084019350602083019250506001810190506112c6565b5050509392505050565b600061131061130b84611e37565b611dda565b90508281526020810184848401111561132857600080fd5b611333848285611f9d565b509392505050565b60008135905061134a81612080565b92915050565b600082601f83011261136157600080fd5b8135611371848260208601611291565b91505092915050565b600082601f83011261138b57600080fd5b813561139b8482602086016112fd565b91505092915050565b6000813590506113b381612097565b92915050565b6000602082840312156113cb57600080fd5b60006113d98482850161133b565b91505092915050565b6000806000606084860312156113f757600080fd5b60006114058682870161133b565b93505060206114168682870161133b565b925050604084013567ffffffffffffffff81111561143357600080fd5b61143f86828701611350565b9150509250925092565b60008060008060008060c0878903121561146257600080fd5b600061147089828a0161133b565b965050602061148189828a0161133b565b955050604087013567ffffffffffffffff81111561149e57600080fd5b6114aa89828a0161137a565b94505060606114bb89828a016113a4565b93505060806114cc89828a016113a4565b92505060a06114dd89828a016113a4565b9150509295509295509295565b6000806000606084860312156114ff57600080fd5b600061150d8682870161133b565b935050602061151e8682870161133b565b925050604061152f868287016113a4565b9150509250925092565b6000806040838503121561154c57600080fd5b600061155a8582860161133b565b925050602061156b858286016113a4565b9150509250929050565b60008060006060848603121561158a57600080fd5b60006115988682870161133b565b93505060206115a9868287016113a4565b92505060406115ba8682870161133b565b9150509250925092565b60006115d08383611608565b60208301905092915050565b60006115e88383611a59565b905092915050565b60006115fc8383611ae9565b60208301905092915050565b61161181611f55565b82525050565b61162081611f55565b82525050565b600061163182611e97565b61163b8185611ef5565b935061164683611e67565b8060005b8381101561167757815161165e88826115c4565b975061166983611ece565b92505060018101905061164a565b5085935050505092915050565b600061168f82611ea2565b6116998185611f06565b9350836020820285016116ab85611e77565b8060005b858110156116e757848403895281516116c885826115dc565b94506116d383611edb565b925060208a019950506001810190506116af565b50829750879550505050505092915050565b600061170482611ead565b61170e8185611f17565b935061171983611e87565b8060005b8381101561174a57815161173188826115f0565b975061173c83611ee8565b92505060018101905061171d565b5085935050505092915050565b61176081611f67565b82525050565b600061177182611eb8565b61177b8185611f28565b935061178b818560208601611fac565b80840191505092915050565b60006117a282611ec3565b6117ac8185611f33565b93506117bc818560208601611fac565b6117c58161206f565b840191505092915050565b60006117db82611ec3565b6117e58185611f44565b93506117f5818560208601611fac565b6117fe8161206f565b840191505092915050565b6000611816601483611f44565b91507f75706461746554696572732829206661696c65640000000000000000000000006000830152602082019050919050565b6000611856600f83611f44565b91507f72656d6f76652829206661696c656400000000000000000000000000000000006000830152602082019050919050565b6000611896600c83611f44565b91507f61736b2829206661696c656400000000000000000000000000000000000000006000830152602082019050919050565b60006118d6601783611f44565b91507f746f67676c6544697361626c65642829206661696c65640000000000000000006000830152602082019050919050565b6000611916601183611f44565b91507f69737375655469702829206661696c65640000000000000000000000000000006000830152602082019050919050565b6000611956601283611f44565b91507f7570646174655469702829206661696c656400000000000000000000000000006000830152602082019050919050565b6000611996601983611f44565b91507f75706461746552656d6f76616c4665652829206661696c6564000000000000006000830152602082019050919050565b60006119d6601083611f44565b91507f726573706f6e642829206661696c6564000000000000000000000000000000006000830152602082019050919050565b60006060830160008301518482036000860152611a268282611797565b9150506020830151611a3b6020860182611ae9565b506040830151611a4e6040860182611ae9565b508091505092915050565b600060c0830160008301518482036000860152611a768282611a09565b91505060208301518482036020860152611a908282611a09565b9150506040830151611aa56040860182611608565b506060830151611ab86060860182611ae9565b506080830151611acb6080860182611ae9565b5060a0830151611ade60a0860182611ae9565b508091505092915050565b611af281611f93565b82525050565b611b0181611f93565b82525050565b6000611b138284611766565b915081905092915050565b6000602082019050611b336000830184611617565b92915050565b6000604082019050611b4e6000830185611617565b8181036020830152611b6081846116f9565b90509392505050565b600060a082019050611b7e6000830188611617565b8181036020830152611b9081876117d0565b9050611b9f6040830186611af8565b611bac6060830185611af8565b611bb96080830184611af8565b9695505050505050565b6000604082019050611bd86000830185611617565b611be56020830184611af8565b9392505050565b60006020820190508181036000830152611c068184611626565b905092915050565b60006020820190508181036000830152611c288184611684565b905092915050565b60006020820190508181036000830152611c4a81846116f9565b905092915050565b6000602082019050611c676000830184611757565b92915050565b60006020820190508181036000830152611c8681611809565b9050919050565b60006020820190508181036000830152611ca681611849565b9050919050565b60006020820190508181036000830152611cc681611889565b9050919050565b60006020820190508181036000830152611ce6816118c9565b9050919050565b60006020820190508181036000830152611d0681611909565b9050919050565b60006020820190508181036000830152611d2681611949565b9050919050565b60006020820190508181036000830152611d4681611989565b9050919050565b60006020820190508181036000830152611d66816119c9565b9050919050565b6000602082019050611d826000830184611af8565b92915050565b6000604082019050611d9d6000830185611af8565b611daa6020830184611617565b9392505050565b6000604082019050611dc66000830185611af8565b611dd36020830184611af8565b9392505050565b6000604051905081810181811067ffffffffffffffff82111715611e0157611e00612040565b5b8060405250919050565b600067ffffffffffffffff821115611e2657611e25612040565b5b602082029050602081019050919050565b600067ffffffffffffffff821115611e5257611e51612040565b5b601f19601f8301169050602081019050919050565b6000819050602082019050919050565b6000819050602082019050919050565b6000819050602082019050919050565b600081519050919050565b600081519050919050565b600081519050919050565b600081519050919050565b600081519050919050565b6000602082019050919050565b6000602082019050919050565b6000602082019050919050565b600082825260208201905092915050565b600082825260208201905092915050565b600082825260208201905092915050565b600081905092915050565b600082825260208201905092915050565b600082825260208201905092915050565b6000611f6082611f73565b9050919050565b60008115159050919050565b600073ffffffffffffffffffffffffffffffffffffffff82169050919050565b6000819050919050565b82818337600083830152505050565b60005b83811015611fca578082015181840152602081019050611faf565b83811115611fd9576000848401525b50505050565b60006002820490506001821680611ff757607f821691505b6020821081141561200b5761200a612011565b5b50919050565b7f4e487b7100000000000000000000000000000000000000000000000000000000600052602260045260246000fd5b7f4e487b7100000000000000000000000000000000000000000000000000000000600052604160045260246000fd5b6000601f19601f8301169050919050565b61208981611f55565b811461209457600080fd5b50565b6120a081611f93565b81146120ab57600080fd5b5056fea26469706673582212200b1c549f647a604a1fe53423a23ce5a18ad6e518e31bd6f614f7c3adf373a5c564736f6c63430008000033",
  "linkReferences": {},
  "deployedLinkReferences": {}
}