{
  "_format": "hh-sol-artifact-1",
  "contractName": "AskMi",
  "sourceName": "contracts/askmi.sol",
  "abi": [
    {
      "inputs": [
        {
          "internalType": "address",
          "name": "_owner",
          "type": "address"
        },
        {
          "internalType": "uint256[]",
          "name": "_tiers",
          "type": "uint256[]"
        },
        {
          "internalType": "uint256",
          "name": "_tip",
          "type": "uint256"
        },
        {
          "internalType": "address",
          "name": "_dev",
          "type": "address"
        }
      ],
      "stateMutability": "nonpayable",
      "type": "constructor"
    },
    {
      "anonymous": false,
      "inputs": [
        {
          "indexed": false,
          "internalType": "address",
          "name": "_questioner",
          "type": "address"
        },
        {
          "indexed": false,
          "internalType": "uint256",
          "name": "_exchangeIndex",
          "type": "uint256"
        }
      ],
      "name": "QuestionAnswered",
      "type": "event"
    },
    {
      "anonymous": false,
      "inputs": [
        {
          "indexed": false,
          "internalType": "address",
          "name": "_questioner",
          "type": "address"
        },
        {
          "indexed": false,
          "internalType": "uint256",
          "name": "_exchangeIndex",
          "type": "uint256"
        }
      ],
      "name": "QuestionAsked",
      "type": "event"
    },
    {
      "anonymous": false,
      "inputs": [
        {
          "indexed": false,
          "internalType": "address",
          "name": "_questioner",
          "type": "address"
        },
        {
          "indexed": false,
          "internalType": "uint256",
          "name": "_exchangeIndex",
          "type": "uint256"
        }
      ],
      "name": "QuestionRemoved",
      "type": "event"
    },
    {
      "anonymous": false,
      "inputs": [
        {
          "indexed": false,
          "internalType": "uint256[]",
          "name": "_newTiers",
          "type": "uint256[]"
        }
      ],
      "name": "TiersUpdated",
      "type": "event"
    },
    {
      "anonymous": false,
      "inputs": [
        {
          "indexed": false,
          "internalType": "address",
          "name": "_tipper",
          "type": "address"
        },
        {
          "indexed": false,
          "internalType": "address",
          "name": "_questioner",
          "type": "address"
        },
        {
          "indexed": false,
          "internalType": "uint256",
          "name": "_exchangeIndex",
          "type": "uint256"
        }
      ],
      "name": "TipIssued",
      "type": "event"
    },
    {
      "anonymous": false,
      "inputs": [
        {
          "indexed": false,
          "internalType": "uint256",
          "name": "_newTipPrice",
          "type": "uint256"
        }
      ],
      "name": "TipUpdated",
      "type": "event"
    },
    {
      "inputs": [
        {
          "internalType": "string",
          "name": "_digest",
          "type": "string"
        },
        {
          "internalType": "uint256",
          "name": "_hashFunction",
          "type": "uint256"
        },
        {
          "internalType": "uint256",
          "name": "_size",
          "type": "uint256"
        },
        {
          "internalType": "uint256",
          "name": "_tierIndex",
          "type": "uint256"
        }
      ],
      "name": "ask",
      "outputs": [],
      "stateMutability": "payable",
      "type": "function"
    },
    {
      "inputs": [],
      "name": "fee",
      "outputs": [
        {
          "internalType": "uint256",
          "name": "",
          "type": "uint256"
        }
      ],
      "stateMutability": "view",
      "type": "function"
    },
    {
      "inputs": [],
      "name": "getQuestioners",
      "outputs": [
        {
          "internalType": "address[]",
          "name": "",
          "type": "address[]"
        }
      ],
      "stateMutability": "view",
      "type": "function"
    },
    {
      "inputs": [
        {
          "internalType": "address",
          "name": "_questioner",
          "type": "address"
        }
      ],
      "name": "getQuestions",
      "outputs": [
        {
          "components": [
            {
              "components": [
                {
                  "internalType": "string",
                  "name": "digest",
                  "type": "string"
                },
                {
                  "internalType": "uint256",
                  "name": "hashFunction",
                  "type": "uint256"
                },
                {
                  "internalType": "uint256",
                  "name": "size",
                  "type": "uint256"
                }
              ],
              "internalType": "struct AskMi.Cid",
              "name": "question",
              "type": "tuple"
            },
            {
              "components": [
                {
                  "internalType": "string",
                  "name": "digest",
                  "type": "string"
                },
                {
                  "internalType": "uint256",
                  "name": "hashFunction",
                  "type": "uint256"
                },
                {
                  "internalType": "uint256",
                  "name": "size",
                  "type": "uint256"
                }
              ],
              "internalType": "struct AskMi.Cid",
              "name": "answer",
              "type": "tuple"
            },
            {
              "internalType": "uint256",
              "name": "exchangeIndex",
              "type": "uint256"
            },
            {
              "internalType": "uint256",
              "name": "balance",
              "type": "uint256"
            },
            {
              "internalType": "uint256",
              "name": "tips",
              "type": "uint256"
            }
          ],
          "internalType": "struct AskMi.Exchange[]",
          "name": "",
          "type": "tuple[]"
        }
      ],
      "stateMutability": "view",
      "type": "function"
    },
    {
      "inputs": [],
      "name": "getTiers",
      "outputs": [
        {
          "internalType": "uint256[]",
          "name": "",
          "type": "uint256[]"
        }
      ],
      "stateMutability": "view",
      "type": "function"
    },
    {
      "inputs": [
        {
          "internalType": "address",
          "name": "_questioner",
          "type": "address"
        },
        {
          "internalType": "uint256",
          "name": "_exchangeIndex",
          "type": "uint256"
        }
      ],
      "name": "issueTip",
      "outputs": [],
      "stateMutability": "payable",
      "type": "function"
    },
    {
      "inputs": [],
      "name": "owner",
      "outputs": [
        {
          "internalType": "address",
          "name": "",
          "type": "address"
        }
      ],
      "stateMutability": "view",
      "type": "function"
    },
    {
      "inputs": [
        {
          "internalType": "address",
          "name": "_questioner",
          "type": "address"
        },
        {
          "internalType": "uint256",
          "name": "_exchangeIndex",
          "type": "uint256"
        }
      ],
      "name": "removeQuestion",
      "outputs": [],
      "stateMutability": "nonpayable",
      "type": "function"
    },
    {
      "inputs": [
        {
          "internalType": "address",
          "name": "_questioner",
          "type": "address"
        },
        {
          "internalType": "string",
          "name": "_digest",
          "type": "string"
        },
        {
          "internalType": "uint256",
          "name": "_hashFunction",
          "type": "uint256"
        },
        {
          "internalType": "uint256",
          "name": "_size",
          "type": "uint256"
        },
        {
          "internalType": "uint256",
          "name": "_exchangeIndex",
          "type": "uint256"
        }
      ],
      "name": "respond",
      "outputs": [],
      "stateMutability": "nonpayable",
      "type": "function"
    },
    {
      "inputs": [],
      "name": "tip",
      "outputs": [
        {
          "internalType": "uint256",
          "name": "",
          "type": "uint256"
        }
      ],
      "stateMutability": "view",
      "type": "function"
    },
    {
      "inputs": [
        {
          "internalType": "uint256[]",
          "name": "_newTiers",
          "type": "uint256[]"
        }
      ],
      "name": "updateTiers",
      "outputs": [],
      "stateMutability": "nonpayable",
      "type": "function"
    },
    {
      "inputs": [
        {
          "internalType": "uint256",
          "name": "_newTipPrice",
          "type": "uint256"
        }
      ],
      "name": "updateTip",
      "outputs": [],
      "stateMutability": "nonpayable",
      "type": "function"
    },
    {
      "stateMutability": "payable",
      "type": "receive"
    }
  ],
  "bytecode": "0x608060405260c86003553480156200001657600080fd5b50604051620037093803806200370983398181016040528101906200003c91906200028c565b836000806101000a81548173ffffffffffffffffffffffffffffffffffffffff021916908373ffffffffffffffffffffffffffffffffffffffff1602179055508260049080519060200190620000949291906200014b565b508160018190555080600260006101000a81548173ffffffffffffffffffffffffffffffffffffffff021916908373ffffffffffffffffffffffffffffffffffffffff160217905550600760009080600181540180825580915050600190039060005260206000200160009091909190916101000a81548173ffffffffffffffffffffffffffffffffffffffff021916908373ffffffffffffffffffffffffffffffffffffffff1602179055505050505062000451565b8280548282559060005260206000209081019282156200018a579160200282015b82811115620001895782518255916020019190600101906200016c565b5b5090506200019991906200019d565b5090565b5b80821115620001b85760008160009055506001016200019e565b5090565b6000620001d3620001cd846200033a565b62000311565b90508083825260208201905082856020860282011115620001f357600080fd5b60005b858110156200022757816200020c888262000275565b845260208401935060208301925050600181019050620001f6565b5050509392505050565b60008151905062000242816200041d565b92915050565b600082601f8301126200025a57600080fd5b81516200026c848260208601620001bc565b91505092915050565b600081519050620002868162000437565b92915050565b60008060008060808587031215620002a357600080fd5b6000620002b38782880162000231565b945050602085015167ffffffffffffffff811115620002d157600080fd5b620002df8782880162000248565b9350506040620002f28782880162000275565b9250506060620003058782880162000231565b91505092959194509250565b60006200031d62000330565b90506200032b8282620003a7565b919050565b6000604051905090565b600067ffffffffffffffff821115620003585762000357620003dd565b5b602082029050602081019050919050565b600062000376826200037d565b9050919050565b600073ffffffffffffffffffffffffffffffffffffffff82169050919050565b6000819050919050565b620003b2826200040c565b810181811067ffffffffffffffff82111715620003d457620003d3620003dd565b5b80604052505050565b7f4e487b7100000000000000000000000000000000000000000000000000000000600052604160045260246000fd5b6000601f19601f8301169050919050565b620004288162000369565b81146200043457600080fd5b50565b62000442816200039d565b81146200044e57600080fd5b50565b6132a880620004616000396000f3fe6080604052600436106100ab5760003560e01c8063ba3db4f311610064578063ba3db4f3146101ab578063c3da5961146101d4578063ddca3f43146101fd578063de17057014610228578063e4c0967c14610253578063f46cd0a81461027c576100b2565b806305beb077146100b75780630dedc14c146100d35780631605c9ef146101105780632755cd2d1461012c57806388e3547a146101575780638da5cb5b14610180576100b2565b366100b257005b600080fd5b6100d160048036038101906100cc91906123a6565b6102a7565b005b3480156100df57600080fd5b506100fa60048036038101906100f591906122ee565b6106a7565b6040516101079190612a6a565b60405180910390f35b61012a60048036038101906101259190612423565b6108d7565b005b34801561013857600080fd5b50610141610c15565b60405161014e9190612c0e565b60405180910390f35b34801561016357600080fd5b5061017e6004803603810190610179919061249e565b610c1b565b005b34801561018c57600080fd5b50610195610cea565b6040516101a291906129cd565b60405180910390f35b3480156101b757600080fd5b506101d260048036038101906101cd91906123a6565b610d0e565b005b3480156101e057600080fd5b506101fb60048036038101906101f691906123e2565b611702565b005b34801561020957600080fd5b506102126117e1565b60405161021f9190612c0e565b60405180910390f35b34801561023457600080fd5b5061023d6117e7565b60405161024a9190612a8c565b60405180910390f35b34801561025f57600080fd5b5061027a60048036038101906102759190612317565b61183f565b005b34801561028857600080fd5b50610291611dc2565b60405161029e9190612a48565b60405180910390f35b60008054906101000a900473ffffffffffffffffffffffffffffffffffffffff1673ffffffffffffffffffffffffffffffffffffffff163373ffffffffffffffffffffffffffffffffffffffff161415610336576040517f08c379a000000000000000000000000000000000000000000000000000000000815260040161032d90612b6e565b60405180910390fd5b6000600560008473ffffffffffffffffffffffffffffffffffffffff1673ffffffffffffffffffffffffffffffffffffffff1681526020019081526020016000209050808054905082106103bf576040517f08c379a00000000000000000000000000000000000000000000000000000000081526004016103b690612aae565b60405180910390fd5b6001543414610403576040517f08c379a00000000000000000000000000000000000000000000000000000000081526004016103fa90612b8e565b60405180910390fd5b60003490506000828481548110610443577f4e487b7100000000000000000000000000000000000000000000000000000000600052603260045260246000fd5b90600052602060002090600902019050600183858154811061048e577f4e487b7100000000000000000000000000000000000000000000000000000000600052603260045260246000fd5b9060005260206000209060090201600801546104aa9190612da3565b8160080181905550808385815481106104ec577f4e487b7100000000000000000000000000000000000000000000000000000000600052603260045260246000fd5b90600052602060002090600902016000820181600001600082018160000190805461051690612edc565b610521929190611fe8565b50600182015481600101556002820154816002015550506003820181600301600082018160000190805461055490612edc565b61055f929190611fe8565b506001820154816001015560028201548160020155505060068201548160060155600782015481600701556008820154816008015590505060008060009054906101000a900473ffffffffffffffffffffffffffffffffffffffff1673ffffffffffffffffffffffffffffffffffffffff16836040516105de906129b8565b60006040518083038185875af1925050503d806000811461061b576040519150601f19603f3d011682016040523d82523d6000602084013e610620565b606091505b5050905080610664576040517f08c379a000000000000000000000000000000000000000000000000000000000815260040161065b90612aee565b60405180910390fd5b7f5a50cca853216358cef16b50b4372aeffa1408785da94c57e62bc17839905f79338787604051610697939291906129e8565b60405180910390a1505050505050565b6060600560008373ffffffffffffffffffffffffffffffffffffffff1673ffffffffffffffffffffffffffffffffffffffff168152602001908152602001600020805480602002602001604051908101604052809291908181526020016000905b828210156108cc57838290600052602060002090600902016040518060a00160405290816000820160405180606001604052908160008201805461074b90612edc565b80601f016020809104026020016040519081016040528092919081815260200182805461077790612edc565b80156107c45780601f10610799576101008083540402835291602001916107c4565b820191906000526020600020905b8154815290600101906020018083116107a757829003601f168201915b505050505081526020016001820154815260200160028201548152505081526020016003820160405180606001604052908160008201805461080590612edc565b80601f016020809104026020016040519081016040528092919081815260200182805461083190612edc565b801561087e5780601f106108535761010080835404028352916020019161087e565b820191906000526020600020905b81548152906001019060200180831161086157829003601f168201915b50505050508152602001600182015481526020016002820154815250508152602001600682015481526020016007820154815260200160088201548152505081526020019060010190610708565b505050509050919050565b60008054906101000a900473ffffffffffffffffffffffffffffffffffffffff1673ffffffffffffffffffffffffffffffffffffffff163373ffffffffffffffffffffffffffffffffffffffff161415610966576040517f08c379a000000000000000000000000000000000000000000000000000000000815260040161095d90612b6e565b60405180910390fd5b8060048054905081106109ae576040517f08c379a00000000000000000000000000000000000000000000000000000000081526004016109a590612b0e565b60405180910390fd5b600481815481106109e8577f4e487b7100000000000000000000000000000000000000000000000000000000600052603260045260246000fd5b90600052602060002001543414610a34576040517f08c379a0000000000000000000000000000000000000000000000000000000008152600401610a2b90612bee565b60405180910390fd5b610a3c611e50565b60006040518060600160405280878152602001868152602001858152509050610a63612075565b6000600560003373ffffffffffffffffffffffffffffffffffffffff1673ffffffffffffffffffffffffffffffffffffffff168152602001908152602001600020805490509050600560003373ffffffffffffffffffffffffffffffffffffffff1673ffffffffffffffffffffffffffffffffffffffff1681526020019081526020016000206040518060a00160405280858152602001848152602001838152602001348152602001600081525090806001815401808255809150506001900390600052602060002090600902016000909190919091506000820151816000016000820151816000019080519060200190610b5f929190612096565b50602082015181600101556040820151816002015550506020820151816003016000820151816000019080519060200190610b9b929190612096565b506020820151816001015560408201518160020155505060408201518160060155606082015181600701556080820151816008015550507f2e7298985f2dd624a11368cfbd0102c3a4d43891b7b687d2f922b615b550cacd3382604051610c03929190612a1f565b60405180910390a15050505050505050565b60015481565b60008054906101000a900473ffffffffffffffffffffffffffffffffffffffff1673ffffffffffffffffffffffffffffffffffffffff163373ffffffffffffffffffffffffffffffffffffffff1614610ca9576040517f08c379a0000000000000000000000000000000000000000000000000000000008152600401610ca090612ace565b60405180910390fd5b806001819055507f8e4f1d019407583d95e3ff711040e061e5135f06290bf3d551a0f006684ad77281604051610cdf9190612c0e565b60405180910390a150565b60008054906101000a900473ffffffffffffffffffffffffffffffffffffffff1681565b600860009054906101000a900460ff1615610d5e576040517f08c379a0000000000000000000000000000000000000000000000000000000008152600401610d5590612bce565b60405180910390fd5b6001600860006101000a81548160ff0219169083151502179055506000610d8483611f80565b90506000600560008373ffffffffffffffffffffffffffffffffffffffff1673ffffffffffffffffffffffffffffffffffffffff16815260200190815260200160002090506000818054905011610e10576040517f08c379a0000000000000000000000000000000000000000000000000000000008152600401610e0790612b2e565b60405180910390fd5b80805490508310610e56576040517f08c379a0000000000000000000000000000000000000000000000000000000008152600401610e4d90612b4e565b60405180910390fd5b6040518060200160405280600081525080519060200120818481548110610ea6577f4e487b7100000000000000000000000000000000000000000000000000000000600052603260045260246000fd5b9060005260206000209060090201600301600001604051610ec791906129a1565b604051809103902014610f0f576040517f08c379a0000000000000000000000000000000000000000000000000000000008152600401610f0690612bae565b60405180910390fd5b6000818481548110610f4a577f4e487b7100000000000000000000000000000000000000000000000000000000600052603260045260246000fd5b906000526020600020906009020160070154905060018280549050141561125f57600060076001600780549050610f819190612e2a565b81548110610fb8577f4e487b7100000000000000000000000000000000000000000000000000000000600052603260045260246000fd5b9060005260206000200160009054906101000a900473ffffffffffffffffffffffffffffffffffffffff1690506000600660008673ffffffffffffffffffffffffffffffffffffffff1673ffffffffffffffffffffffffffffffffffffffff16815260200190815260200160002054905080600660008473ffffffffffffffffffffffffffffffffffffffff1673ffffffffffffffffffffffffffffffffffffffff1681526020019081526020016000208190555081600782815481106110a8577f4e487b7100000000000000000000000000000000000000000000000000000000600052603260045260246000fd5b9060005260206000200160006101000a81548173ffffffffffffffffffffffffffffffffffffffff021916908373ffffffffffffffffffffffffffffffffffffffff1602179055506007805480611128577f4e487b7100000000000000000000000000000000000000000000000000000000600052603160045260246000fd5b6001900381819060005260206000200160006101000a81549073ffffffffffffffffffffffffffffffffffffffff021916905590556000600660008773ffffffffffffffffffffffffffffffffffffffff1673ffffffffffffffffffffffffffffffffffffffff16815260200190815260200160002081905550838054806111d9577f4e487b7100000000000000000000000000000000000000000000000000000000600052603160045260246000fd5b6001900381819060005260206000209060090201600080820160008082016000611203919061211c565b600182016000905560028201600090555050600382016000808201600061122a919061211c565b6001820160009055600282016000905550506006820160009055600782016000905560088201600090555050905550506115fa565b600082600184805490506112739190612e2a565b815481106112aa577f4e487b7100000000000000000000000000000000000000000000000000000000600052603260045260246000fd5b90600052602060002090600902016040518060a0016040529081600082016040518060600160405290816000820180546112e390612edc565b80601f016020809104026020016040519081016040528092919081815260200182805461130f90612edc565b801561135c5780601f106113315761010080835404028352916020019161135c565b820191906000526020600020905b81548152906001019060200180831161133f57829003601f168201915b505050505081526020016001820154815260200160028201548152505081526020016003820160405180606001604052908160008201805461139d90612edc565b80601f01602080910402602001604051908101604052809291908181526020018280546113c990612edc565b80156114165780601f106113eb57610100808354040283529160200191611416565b820191906000526020600020905b8154815290600101906020018083116113f957829003601f168201915b5050505050815260200160018201548152602001600282015481525050815260200160068201548152602001600782015481526020016008820154815250509050848160400181815250508083868154811061149b577f4e487b7100000000000000000000000000000000000000000000000000000000600052603260045260246000fd5b906000526020600020906009020160008201518160000160008201518160000190805190602001906114ce929190612096565b5060208201518160010155604082015181600201555050602082015181600301600082015181600001908051906020019061150a929190612096565b506020820151816001015560408201518160020155505060408201518160060155606082015181600701556080820151816008015590505082805480611579577f4e487b7100000000000000000000000000000000000000000000000000000000600052603160045260246000fd5b60019003818190600052602060002090600902016000808201600080820160006115a3919061211c565b60018201600090556002820160009055505060038201600080820160006115ca919061211c565b60018201600090556002820160009055505060068201600090556007820160009055600882016000905550509055505b60008373ffffffffffffffffffffffffffffffffffffffff1682604051611620906129b8565b60006040518083038185875af1925050503d806000811461165d576040519150601f19603f3d011682016040523d82523d6000602084013e611662565b606091505b50509050806116a6576040517f08c379a000000000000000000000000000000000000000000000000000000000815260040161169d90612aee565b60405180910390fd5b7f9f023eae2648b1dc9ce9ef4768da366f2ae94207233ba25fb5894fd5227de26284866040516116d7929190612a1f565b60405180910390a1505050506000600860006101000a81548160ff0219169083151502179055505050565b60008054906101000a900473ffffffffffffffffffffffffffffffffffffffff1673ffffffffffffffffffffffffffffffffffffffff163373ffffffffffffffffffffffffffffffffffffffff1614611790576040517f08c379a000000000000000000000000000000000000000000000000000000000815260040161178790612ace565b60405180910390fd5b80600490805190602001906117a692919061215c565b507fe0fb520658d55c7cad928e0eb0d97b2c8b74648f5d3a3966062460167836e0dd816040516117d69190612a8c565b60405180910390a150565b60035481565b6060600480548060200260200160405190810160405280929190818152602001828054801561183557602002820191906000526020600020905b815481526020019060010190808311611821575b5050505050905090565b600860009054906101000a900460ff161561188f576040517f08c379a000000000000000000000000000000000000000000000000000000000815260040161188690612bce565b60405180910390fd5b6001600860006101000a81548160ff02191690831515021790555060008054906101000a900473ffffffffffffffffffffffffffffffffffffffff1673ffffffffffffffffffffffffffffffffffffffff163373ffffffffffffffffffffffffffffffffffffffff1614611938576040517f08c379a000000000000000000000000000000000000000000000000000000000815260040161192f90612ace565b60405180910390fd5b6000600560008773ffffffffffffffffffffffffffffffffffffffff1673ffffffffffffffffffffffffffffffffffffffff1681526020019081526020016000209050808054905082106119c1576040517f08c379a00000000000000000000000000000000000000000000000000000000081526004016119b890612aae565b60405180910390fd5b60008183815481106119fc577f4e487b7100000000000000000000000000000000000000000000000000000000600052603260045260246000fd5b9060005260206000209060090201600701549050600060035482611a209190612df9565b905060008183611a309190612e2a565b9050600060405180606001604052808a81526020018981526020018881525090506000858781548110611a8c577f4e487b7100000000000000000000000000000000000000000000000000000000600052603260045260246000fd5b9060005260206000209060090201905081816003016000820151816000019080519060200190611abd929190612096565b5060208201518160010155604082015181600201559050506000816007018190555080868881548110611b19577f4e487b7100000000000000000000000000000000000000000000000000000000600052603260045260246000fd5b906000526020600020906009020160008201816000016000820181600001908054611b4390612edc565b611b4e929190611fe8565b506001820154816001015560028201548160020155505060038201816003016000820181600001908054611b8190612edc565b611b8c929190611fe8565b506001820154816001015560028201548160020155505060068201548160060155600782015481600701556008820154816008015590505060008060009054906101000a900473ffffffffffffffffffffffffffffffffffffffff1673ffffffffffffffffffffffffffffffffffffffff1684604051611c0b906129b8565b60006040518083038185875af1925050503d8060008114611c48576040519150601f19603f3d011682016040523d82523d6000602084013e611c4d565b606091505b5050905080611c91576040517f08c379a0000000000000000000000000000000000000000000000000000000008152600401611c8890612aee565b60405180910390fd5b6000600260009054906101000a900473ffffffffffffffffffffffffffffffffffffffff1673ffffffffffffffffffffffffffffffffffffffff1686604051611cd9906129b8565b60006040518083038185875af1925050503d8060008114611d16576040519150601f19603f3d011682016040523d82523d6000602084013e611d1b565b606091505b5050905080611d5f576040517f08c379a0000000000000000000000000000000000000000000000000000000008152600401611d5690612aee565b60405180910390fd5b7f429c694aa6647ed579b2576c88071af439f05fe6dc41964661e1bf0937f324c18d8a604051611d90929190612a1f565b60405180910390a150505050505050506000600860006101000a81548160ff0219169083151502179055505050505050565b60606007805480602002602001604051908101604052809291908181526020018280548015611e4657602002820191906000526020600020905b8160009054906101000a900473ffffffffffffffffffffffffffffffffffffffff1673ffffffffffffffffffffffffffffffffffffffff1681526020019060010190808311611dfc575b5050505050905090565b600073ffffffffffffffffffffffffffffffffffffffff163373ffffffffffffffffffffffffffffffffffffffff1614158015611ecc57506000600660003373ffffffffffffffffffffffffffffffffffffffff1673ffffffffffffffffffffffffffffffffffffffff16815260200190815260200160002054145b15611f7e57600780549050600660003373ffffffffffffffffffffffffffffffffffffffff1673ffffffffffffffffffffffffffffffffffffffff168152602001908152602001600020819055506007339080600181540180825580915050600190039060005260206000200160009091909190916101000a81548173ffffffffffffffffffffffffffffffffffffffff021916908373ffffffffffffffffffffffffffffffffffffffff1602179055505b565b60008060009054906101000a900473ffffffffffffffffffffffffffffffffffffffff1673ffffffffffffffffffffffffffffffffffffffff163373ffffffffffffffffffffffffffffffffffffffff161415611fdf57819050611fe3565b3390505b919050565b828054611ff490612edc565b90600052602060002090601f0160209004810192826120165760008555612064565b82601f106120275780548555612064565b8280016001018555821561206457600052602060002091601f016020900482015b82811115612063578254825591600101919060010190612048565b5b50905061207191906121a9565b5090565b60405180606001604052806060815260200160008152602001600081525090565b8280546120a290612edc565b90600052602060002090601f0160209004810192826120c4576000855561210b565b82601f106120dd57805160ff191683800117855561210b565b8280016001018555821561210b579182015b8281111561210a5782518255916020019190600101906120ef565b5b50905061211891906121a9565b5090565b50805461212890612edc565b6000825580601f1061213a5750612159565b601f01602090049060005260206000209081019061215891906121a9565b5b50565b828054828255906000526020600020908101928215612198579160200282015b8281111561219757825182559160200191906001019061217c565b5b5090506121a591906121a9565b5090565b5b808211156121c25760008160009055506001016121aa565b5090565b60006121d96121d484612c4e565b612c29565b905080838252602082019050828560208602820111156121f857600080fd5b60005b85811015612228578161220e88826122d9565b8452602084019350602083019250506001810190506121fb565b5050509392505050565b600061224561224084612c7a565b612c29565b90508281526020810184848401111561225d57600080fd5b612268848285612e9a565b509392505050565b60008135905061227f81613244565b92915050565b600082601f83011261229657600080fd5b81356122a68482602086016121c6565b91505092915050565b600082601f8301126122c057600080fd5b81356122d0848260208601612232565b91505092915050565b6000813590506122e88161325b565b92915050565b60006020828403121561230057600080fd5b600061230e84828501612270565b91505092915050565b600080600080600060a0868803121561232f57600080fd5b600061233d88828901612270565b955050602086013567ffffffffffffffff81111561235a57600080fd5b612366888289016122af565b9450506040612377888289016122d9565b9350506060612388888289016122d9565b9250506080612399888289016122d9565b9150509295509295909350565b600080604083850312156123b957600080fd5b60006123c785828601612270565b92505060206123d8858286016122d9565b9150509250929050565b6000602082840312156123f457600080fd5b600082013567ffffffffffffffff81111561240e57600080fd5b61241a84828501612285565b91505092915050565b6000806000806080858703121561243957600080fd5b600085013567ffffffffffffffff81111561245357600080fd5b61245f878288016122af565b9450506020612470878288016122d9565b9350506040612481878288016122d9565b9250506060612492878288016122d9565b91505092959194509250565b6000602082840312156124b057600080fd5b60006124be848285016122d9565b91505092915050565b60006124d3838361250b565b60208301905092915050565b60006124eb8383612906565b905092915050565b60006124ff8383612983565b60208301905092915050565b61251481612e5e565b82525050565b61252381612e5e565b82525050565b600061253482612cf0565b61253e8185612d43565b935061254983612cab565b8060005b8381101561257a57815161256188826124c7565b975061256c83612d1c565b92505060018101905061254d565b5085935050505092915050565b600061259282612cfb565b61259c8185612d54565b9350836020820285016125ae85612cbb565b8060005b858110156125ea57848403895281516125cb85826124df565b94506125d683612d29565b925060208a019950506001810190506125b2565b50829750879550505050505092915050565b600061260782612d06565b6126118185612d65565b935061261c83612ccb565b8060005b8381101561264d57815161263488826124f3565b975061263f83612d36565b925050600181019050612620565b5085935050505092915050565b6000815461266781612edc565b6126718186612d76565b9450600182166000811461268c576001811461269d576126d0565b60ff198316865281860193506126d0565b6126a685612cdb565b60005b838110156126c8578154818901526001820191506020810190506126a9565b838801955050505b50505092915050565b60006126e482612d11565b6126ee8185612d81565b93506126fe818560208601612ea9565b61270781612ffb565b840191505092915050565b600061271f601883612d92565b915061272a8261300c565b602082019050919050565b6000612742601c83612d92565b915061274d82613035565b602082019050919050565b6000612765601483612d92565b91506127708261305e565b602082019050919050565b6000612788602183612d92565b915061279382613087565b604082019050919050565b60006127ab602183612d92565b91506127b6826130d6565b604082019050919050565b60006127ce601883612d92565b91506127d982613125565b602082019050919050565b60006127f1600083612d76565b91506127fc8261314e565b600082019050919050565b6000612814602083612d92565b915061281f82613151565b602082019050919050565b6000612837601c83612d92565b91506128428261317a565b602082019050919050565b600061285a601a83612d92565b9150612865826131a3565b602082019050919050565b600061287d600f83612d92565b9150612888826131cc565b602082019050919050565b60006128a0602b83612d92565b91506128ab826131f5565b604082019050919050565b600060608301600083015184820360008601526128d382826126d9565b91505060208301516128e86020860182612983565b5060408301516128fb6040860182612983565b508091505092915050565b600060a083016000830151848203600086015261292382826128b6565b9150506020830151848203602086015261293d82826128b6565b91505060408301516129526040860182612983565b5060608301516129656060860182612983565b5060808301516129786080860182612983565b508091505092915050565b61298c81612e90565b82525050565b61299b81612e90565b82525050565b60006129ad828461265a565b915081905092915050565b60006129c3826127e4565b9150819050919050565b60006020820190506129e2600083018461251a565b92915050565b60006060820190506129fd600083018661251a565b612a0a602083018561251a565b612a176040830184612992565b949350505050565b6000604082019050612a34600083018561251a565b612a416020830184612992565b9392505050565b60006020820190508181036000830152612a628184612529565b905092915050565b60006020820190508181036000830152612a848184612587565b905092915050565b60006020820190508181036000830152612aa681846125fc565b905092915050565b60006020820190508181036000830152612ac781612712565b9050919050565b60006020820190508181036000830152612ae781612735565b9050919050565b60006020820190508181036000830152612b0781612758565b9050919050565b60006020820190508181036000830152612b278161277b565b9050919050565b60006020820190508181036000830152612b478161279e565b9050919050565b60006020820190508181036000830152612b67816127c1565b9050919050565b60006020820190508181036000830152612b8781612807565b9050919050565b60006020820190508181036000830152612ba78161282a565b9050919050565b60006020820190508181036000830152612bc78161284d565b9050919050565b60006020820190508181036000830152612be781612870565b9050919050565b60006020820190508181036000830152612c0781612893565b9050919050565b6000602082019050612c236000830184612992565b92915050565b6000612c33612c44565b9050612c3f8282612f0e565b919050565b6000604051905090565b600067ffffffffffffffff821115612c6957612c68612fcc565b5b602082029050602081019050919050565b600067ffffffffffffffff821115612c9557612c94612fcc565b5b612c9e82612ffb565b9050602081019050919050565b6000819050602082019050919050565b6000819050602082019050919050565b6000819050602082019050919050565b60008190508160005260206000209050919050565b600081519050919050565b600081519050919050565b600081519050919050565b600081519050919050565b6000602082019050919050565b6000602082019050919050565b6000602082019050919050565b600082825260208201905092915050565b600082825260208201905092915050565b600082825260208201905092915050565b600081905092915050565b600082825260208201905092915050565b600082825260208201905092915050565b6000612dae82612e90565b9150612db983612e90565b9250827fffffffffffffffffffffffffffffffffffffffffffffffffffffffffffffffff03821115612dee57612ded612f3f565b5b828201905092915050565b6000612e0482612e90565b9150612e0f83612e90565b925082612e1f57612e1e612f6e565b5b828204905092915050565b6000612e3582612e90565b9150612e4083612e90565b925082821015612e5357612e52612f3f565b5b828203905092915050565b6000612e6982612e70565b9050919050565b600073ffffffffffffffffffffffffffffffffffffffff82169050919050565b6000819050919050565b82818337600083830152505050565b60005b83811015612ec7578082015181840152602081019050612eac565b83811115612ed6576000848401525b50505050565b60006002820490506001821680612ef457607f821691505b60208210811415612f0857612f07612f9d565b5b50919050565b612f1782612ffb565b810181811067ffffffffffffffff82111715612f3657612f35612fcc565b5b80604052505050565b7f4e487b7100000000000000000000000000000000000000000000000000000000600052601160045260246000fd5b7f4e487b7100000000000000000000000000000000000000000000000000000000600052601260045260246000fd5b7f4e487b7100000000000000000000000000000000000000000000000000000000600052602260045260246000fd5b7f4e487b7100000000000000000000000000000000000000000000000000000000600052604160045260246000fd5b6000601f19601f8301169050919050565b7f45786368616e676520646f6573206e6f742065786973742e0000000000000000600082015250565b7f556e617574686f72697a65643a204d757374206265206f776e65722e00000000600082015250565b7f4661696c656420746f2073656e64204574686572000000000000000000000000600082015250565b7f5468652073656c6563746564207469657220646f6573206e6f7420657869737460008201527f2e00000000000000000000000000000000000000000000000000000000000000602082015250565b7f4e6f207175657374696f6e7320617661696c61626c6520746f2072656d6f766560008201527f2e00000000000000000000000000000000000000000000000000000000000000602082015250565b7f5175657374696f6e20646f6573206e6f742065786973742e0000000000000000600082015250565b50565b7f556e617574686f72697a65643a204d757374206e6f74206265206f776e65722e600082015250565b7f5468652074697020616d6f756e7420697320696e636f72726563742e00000000600082015250565b7f5175657374696f6e20616c726561647920616e7377657265642e000000000000600082015250565b7f4e6f2072652d656e7472616e63792e0000000000000000000000000000000000600082015250565b7f546865206465706f736974206973206e6f7420657175616c20746f207468652060008201527f746965722070726963652e000000000000000000000000000000000000000000602082015250565b61324d81612e5e565b811461325857600080fd5b50565b61326481612e90565b811461326f57600080fd5b5056fea264697066735822122066b0588b0aa711661c61056ce93515f881eb5ade45cc112fe438dca057e65e5064736f6c63430008040033",
  "linkReferences": {},
  "deployedLinkReferences": {}
}