{
  "_format": "hh-sol-artifact-1",
  "contractName": "AskMiFunctions",
  "sourceName": "contracts/askmi-functions.sol",
  "abi": [
    {
      "inputs": [],
      "name": "_disabled",
      "outputs": [
        {
          "internalType": "bool",
          "name": "",
          "type": "bool"
        }
      ],
      "stateMutability": "view",
      "type": "function"
    },
    {
      "inputs": [],
      "name": "_fees",
      "outputs": [
        {
          "internalType": "uint256",
          "name": "removal",
          "type": "uint256"
        },
        {
          "internalType": "uint256",
          "name": "developer",
          "type": "uint256"
        }
      ],
      "stateMutability": "view",
      "type": "function"
    },
    {
      "inputs": [],
      "name": "_owner",
      "outputs": [
        {
          "internalType": "address",
          "name": "",
          "type": "address"
        }
      ],
      "stateMutability": "view",
      "type": "function"
    },
    {
      "inputs": [],
      "name": "_tip",
      "outputs": [
        {
          "internalType": "address",
          "name": "token",
          "type": "address"
        },
        {
          "internalType": "uint256",
          "name": "tip",
          "type": "uint256"
        }
      ],
      "stateMutability": "view",
      "type": "function"
    },
    {
      "inputs": [
        {
          "internalType": "address",
          "name": "token",
          "type": "address"
        },
        {
          "internalType": "string",
          "name": "digest",
          "type": "string"
        },
        {
          "internalType": "uint256",
          "name": "hashFunction",
          "type": "uint256"
        },
        {
          "internalType": "uint256",
          "name": "size",
          "type": "uint256"
        },
        {
          "internalType": "uint256",
          "name": "index",
          "type": "uint256"
        }
      ],
      "name": "ask",
      "outputs": [],
      "stateMutability": "payable",
      "type": "function"
    },
    {
      "inputs": [
        {
          "internalType": "address",
          "name": "questioner",
          "type": "address"
        },
        {
          "internalType": "uint256",
          "name": "index",
          "type": "uint256"
        }
      ],
      "name": "issueTip",
      "outputs": [],
      "stateMutability": "payable",
      "type": "function"
    },
    {
      "inputs": [
        {
          "internalType": "address",
          "name": "questioner",
          "type": "address"
        },
        {
          "internalType": "uint256",
          "name": "index",
          "type": "uint256"
        }
      ],
      "name": "remove",
      "outputs": [],
      "stateMutability": "nonpayable",
      "type": "function"
    },
    {
      "inputs": [
        {
          "internalType": "address",
          "name": "questioner",
          "type": "address"
        },
        {
          "internalType": "string",
          "name": "digest",
          "type": "string"
        },
        {
          "internalType": "uint256",
          "name": "hashFunction",
          "type": "uint256"
        },
        {
          "internalType": "uint256",
          "name": "size",
          "type": "uint256"
        },
        {
          "internalType": "uint256",
          "name": "index",
          "type": "uint256"
        }
      ],
      "name": "respond",
      "outputs": [],
      "stateMutability": "nonpayable",
      "type": "function"
    },
    {
      "inputs": [],
      "name": "toggleDisabled",
      "outputs": [],
      "stateMutability": "nonpayable",
      "type": "function"
    },
    {
      "inputs": [
        {
          "internalType": "uint256",
          "name": "removalFee",
          "type": "uint256"
        }
      ],
      "name": "updateRemovalFee",
      "outputs": [],
      "stateMutability": "nonpayable",
      "type": "function"
    },
    {
      "inputs": [
        {
          "internalType": "address",
          "name": "token",
          "type": "address"
        },
        {
          "internalType": "uint256[]",
          "name": "tiers",
          "type": "uint256[]"
        }
      ],
      "name": "updateTiers",
      "outputs": [],
      "stateMutability": "nonpayable",
      "type": "function"
    },
    {
      "inputs": [
        {
          "internalType": "uint256",
          "name": "tip",
          "type": "uint256"
        },
        {
          "internalType": "address",
          "name": "token",
          "type": "address"
        }
      ],
      "name": "updateTip",
      "outputs": [],
      "stateMutability": "nonpayable",
      "type": "function"
    }
  ],
  "bytecode": "0x608060405234801561001057600080fd5b50614407806100206000396000f3fe6080604052600436106100a75760003560e01c8063b2bdfa7b11610064578063b2bdfa7b14610185578063cef3d8aa146101b0578063d212a69a146101dc578063e4c0967c14610208578063f2bcd51514610231578063f65bf4601461025a576100a7565b806305beb077146100ac5780633080e2ed146100c85780634d112847146100f1578063621b99a71461011c57806365b1b48e14610133578063abe7f1ab1461015c575b600080fd5b6100c660048036038101906100c191906136f0565b610276565b005b3480156100d457600080fd5b506100ef60048036038101906100ea919061360d565b610a7f565b005b3480156100fd57600080fd5b5061010661103b565b6040516101139190613da7565b60405180910390f35b34801561012857600080fd5b5061013161104e565b005b34801561013f57600080fd5b5061015a60048036038101906101559190613755565b611108565b005b34801561016857600080fd5b50610183600480360381019061017e91906136f0565b6111f5565b005b34801561019157600080fd5b5061019a6120e1565b6040516101a79190613d2c565b60405180910390f35b3480156101bc57600080fd5b506101c5612105565b6040516101d3929190613d7e565b60405180910390f35b3480156101e857600080fd5b506101f1612137565b6040516101ff929190614002565b60405180910390f35b34801561021457600080fd5b5061022f600480360381019061022a9190613661565b612149565b005b34801561023d57600080fd5b506102586004803603810190610253919061377e565b612bba565b005b610274600480360381019061026f9190613661565b612c3f565b005b60008054906101000a900473ffffffffffffffffffffffffffffffffffffffff1673ffffffffffffffffffffffffffffffffffffffff163373ffffffffffffffffffffffffffffffffffffffff161415610305576040517f08c379a00000000000000000000000000000000000000000000000000000000081526004016102fc90613fa2565b60405180910390fd5b600060018001541161034c576040517f08c379a000000000000000000000000000000000000000000000000000000000815260040161034390613de2565b60405180910390fd5b6000600860008473ffffffffffffffffffffffffffffffffffffffff1673ffffffffffffffffffffffffffffffffffffffff1681526020019081526020016000209050808054905082106103d5576040517f08c379a00000000000000000000000000000000000000000000000000000000081526004016103cc90613dc2565b60405180910390fd5b6000818381548110610410577f4e487b7100000000000000000000000000000000000000000000000000000000600052603260045260246000fd5b90600052602060002090600a020160060160009054906101000a900473ffffffffffffffffffffffffffffffffffffffff169050600060018001549050600073ffffffffffffffffffffffffffffffffffffffff16600160000160009054906101000a900473ffffffffffffffffffffffffffffffffffffffff1673ffffffffffffffffffffffffffffffffffffffff1614156105bc578034146104e9576040517f08c379a00000000000000000000000000000000000000000000000000000000081526004016104e090613f42565b60405180910390fd5b60008060009054906101000a900473ffffffffffffffffffffffffffffffffffffffff1673ffffffffffffffffffffffffffffffffffffffff163460405161053090613d17565b60006040518083038185875af1925050503d806000811461056d576040519150601f19603f3d011682016040523d82523d6000602084013e610572565b606091505b50509050806105b6576040517f08c379a00000000000000000000000000000000000000000000000000000000081526004016105ad90613f22565b60405180910390fd5b506106b1565b60008290508073ffffffffffffffffffffffffffffffffffffffff166323b872dd3360008054906101000a900473ffffffffffffffffffffffffffffffffffffffff16856040518463ffffffff1660e01b815260040161061e93929190613d47565b602060405180830381600087803b15801561063857600080fd5b505af115801561064c573d6000803e3d6000fd5b505050506040513d601f19601f82011682018060405250810190610670919061372c565b6106af576040517f08c379a00000000000000000000000000000000000000000000000000000000081526004016106a690613e22565b60405180910390fd5b505b60008385815481106106ec577f4e487b7100000000000000000000000000000000000000000000000000000000600052603260045260246000fd5b90600052602060002090600a02016040518060c00160405290816000820160405180606001604052908160008201805461072590614255565b80601f016020809104026020016040519081016040528092919081815260200182805461075190614255565b801561079e5780601f106107735761010080835404028352916020019161079e565b820191906000526020600020905b81548152906001019060200180831161078157829003601f168201915b50505050508152602001600182015481526020016002820154815250508152602001600382016040518060600160405290816000820180546107df90614255565b80601f016020809104026020016040519081016040528092919081815260200182805461080b90614255565b80156108585780601f1061082d57610100808354040283529160200191610858565b820191906000526020600020905b81548152906001019060200180831161083b57829003601f168201915b505050505081526020016001820154815260200160028201548152505081526020016006820160009054906101000a900473ffffffffffffffffffffffffffffffffffffffff1673ffffffffffffffffffffffffffffffffffffffff1673ffffffffffffffffffffffffffffffffffffffff16815260200160078201548152602001600882015481526020016009820154815250509050600184868154811061092a577f4e487b7100000000000000000000000000000000000000000000000000000000600052603260045260246000fd5b90600052602060002090600a02016009015461094691906140e9565b8160a001818152505080848681548110610989577f4e487b7100000000000000000000000000000000000000000000000000000000600052603260045260246000fd5b90600052602060002090600a020160008201518160000160008201518160000190805190602001906109bc92919061337f565b506020820151816001015560408201518160020155505060208201518160030160008201518160000190805190602001906109f892919061337f565b506020820151816001015560408201518160020155505060408201518160060160006101000a81548173ffffffffffffffffffffffffffffffffffffffff021916908373ffffffffffffffffffffffffffffffffffffffff160217905550606082015181600701556080820151816008015560a08201518160090155905050505050505050565b60008054906101000a900473ffffffffffffffffffffffffffffffffffffffff1673ffffffffffffffffffffffffffffffffffffffff163373ffffffffffffffffffffffffffffffffffffffff1614610b0d576040517f08c379a0000000000000000000000000000000000000000000000000000000008152600401610b0490613fc2565b60405180910390fd5b6000815190506000811415610df85781600b60008573ffffffffffffffffffffffffffffffffffffffff1673ffffffffffffffffffffffffffffffffffffffff1681526020019081526020016000209080519060200190610b6f929190613405565b50600060098054905014610df35760016009805490501415610bfd576009805480610bc3577f4e487b7100000000000000000000000000000000000000000000000000000000600052603160045260246000fd5b6001900381819060005260206000200160006101000a81549073ffffffffffffffffffffffffffffffffffffffff02191690559055610df2565b600060096001600980549050610c1391906141ca565b81548110610c4a577f4e487b7100000000000000000000000000000000000000000000000000000000600052603260045260246000fd5b9060005260206000200160009054906101000a900473ffffffffffffffffffffffffffffffffffffffff1690506000600a60008673ffffffffffffffffffffffffffffffffffffffff1673ffffffffffffffffffffffffffffffffffffffff16815260200190815260200160002054905080600a60008473ffffffffffffffffffffffffffffffffffffffff1673ffffffffffffffffffffffffffffffffffffffff168152602001908152602001600020819055508160098281548110610d3a577f4e487b7100000000000000000000000000000000000000000000000000000000600052603260045260246000fd5b9060005260206000200160006101000a81548173ffffffffffffffffffffffffffffffffffffffff021916908373ffffffffffffffffffffffffffffffffffffffff1602179055506009805480610dba577f4e487b7100000000000000000000000000000000000000000000000000000000600052603160045260246000fd5b6001900381819060005260206000200160006101000a81549073ffffffffffffffffffffffffffffffffffffffff0219169055905550505b5b611036565b6000600b60008573ffffffffffffffffffffffffffffffffffffffff1673ffffffffffffffffffffffffffffffffffffffff168152602001908152602001600020805490501415610ef057600980549050600a60008573ffffffffffffffffffffffffffffffffffffffff1673ffffffffffffffffffffffffffffffffffffffff168152602001908152602001600020819055506009839080600181540180825580915050600190039060005260206000200160009091909190916101000a81548173ffffffffffffffffffffffffffffffffffffffff021916908373ffffffffffffffffffffffffffffffffffffffff1602179055505b600081118015610f005750600a81105b610f3f576040517f08c379a0000000000000000000000000000000000000000000000000000000008152600401610f3690613e02565b60405180910390fd5b60005b81811015610fe0576000838281518110610f85577f4e487b7100000000000000000000000000000000000000000000000000000000600052603260045260246000fd5b602002602001015111610fcd576040517f08c379a0000000000000000000000000000000000000000000000000000000008152600401610fc490613e62565b60405180910390fd5b8080610fd890614287565b915050610f42565b5081600b60008573ffffffffffffffffffffffffffffffffffffffff1673ffffffffffffffffffffffffffffffffffffffff1681526020019081526020016000209080519060200190611034929190613405565b505b505050565b600060159054906101000a900460ff1681565b60008054906101000a900473ffffffffffffffffffffffffffffffffffffffff1673ffffffffffffffffffffffffffffffffffffffff163373ffffffffffffffffffffffffffffffffffffffff16146110dc576040517f08c379a00000000000000000000000000000000000000000000000000000000081526004016110d390613fc2565b60405180910390fd5b600060159054906101000a900460ff1615600060156101000a81548160ff021916908315150217905550565b60008054906101000a900473ffffffffffffffffffffffffffffffffffffffff1673ffffffffffffffffffffffffffffffffffffffff163373ffffffffffffffffffffffffffffffffffffffff1614611196576040517f08c379a000000000000000000000000000000000000000000000000000000000815260040161118d90613fc2565b60405180910390fd5b600181101580156111a957506127108111155b6111e8576040517f08c379a00000000000000000000000000000000000000000000000000000000081526004016111df90613f02565b60405180910390fd5b8060046000018190555050565b600060149054906101000a900460ff1615611245576040517f08c379a000000000000000000000000000000000000000000000000000000000815260040161123c90613f62565b60405180910390fd5b6001600060146101000a81548160ff02191690831515021790555060008060009054906101000a900473ffffffffffffffffffffffffffffffffffffffff1673ffffffffffffffffffffffffffffffffffffffff163373ffffffffffffffffffffffffffffffffffffffff1614156112bf578290506112c3565b3390505b6000600860008373ffffffffffffffffffffffffffffffffffffffff1673ffffffffffffffffffffffffffffffffffffffff1681526020019081526020016000209050600081805490501161134d576040517f08c379a000000000000000000000000000000000000000000000000000000000815260040161134490613f82565b60405180910390fd5b80805490508310611393576040517f08c379a000000000000000000000000000000000000000000000000000000000815260040161138a90613ee2565b60405180910390fd5b60405180602001604052806000815250805190602001208184815481106113e3577f4e487b7100000000000000000000000000000000000000000000000000000000600052603260045260246000fd5b90600052602060002090600a02016003016000016040516114049190613d00565b60405180910390201461144c576040517f08c379a000000000000000000000000000000000000000000000000000000000815260040161144390613fe2565b60405180910390fd5b6000818481548110611487577f4e487b7100000000000000000000000000000000000000000000000000000000600052603260045260246000fd5b90600052602060002090600a02016008015490506000612710600460000154836114b19190614170565b6114bb919061413f565b9050600081836114cb91906141ca565b90506000848781548110611508577f4e487b7100000000000000000000000000000000000000000000000000000000600052603260045260246000fd5b90600052602060002090600a020160060160009054906101000a900473ffffffffffffffffffffffffffffffffffffffff169050600073ffffffffffffffffffffffffffffffffffffffff168173ffffffffffffffffffffffffffffffffffffffff1614156116f15760008060009054906101000a900473ffffffffffffffffffffffffffffffffffffffff1673ffffffffffffffffffffffffffffffffffffffff16846040516115b890613d17565b60006040518083038185875af1925050503d80600081146115f5576040519150601f19603f3d011682016040523d82523d6000602084013e6115fa565b606091505b505090508061163e576040517f08c379a000000000000000000000000000000000000000000000000000000000815260040161163590613f22565b60405180910390fd5b60008973ffffffffffffffffffffffffffffffffffffffff168460405161166490613d17565b60006040518083038185875af1925050503d80600081146116a1576040519150601f19603f3d011682016040523d82523d6000602084013e6116a6565b606091505b50509050806116ea576040517f08c379a00000000000000000000000000000000000000000000000000000000081526004016116e190613f22565b60405180910390fd5b5050611936565b6000600b60008373ffffffffffffffffffffffffffffffffffffffff1673ffffffffffffffffffffffffffffffffffffffff168152602001908152602001600020805490501415611777576040517f08c379a000000000000000000000000000000000000000000000000000000000815260040161176e90613ec2565b60405180910390fd5b60008190508073ffffffffffffffffffffffffffffffffffffffff1663a9059cbb60008054906101000a900473ffffffffffffffffffffffffffffffffffffffff16866040518363ffffffff1660e01b81526004016117d7929190613d7e565b602060405180830381600087803b1580156117f157600080fd5b505af1158015611805573d6000803e3d6000fd5b505050506040513d601f19601f82011682018060405250810190611829919061372c565b611868576040517f08c379a000000000000000000000000000000000000000000000000000000000815260040161185f90613e22565b60405180910390fd5b8073ffffffffffffffffffffffffffffffffffffffff1663a9059cbb8a856040518363ffffffff1660e01b81526004016118a3929190613d7e565b602060405180830381600087803b1580156118bd57600080fd5b505af11580156118d1573d6000803e3d6000fd5b505050506040513d601f19601f820116820180604052508101906118f5919061372c565b611934576040517f08c379a000000000000000000000000000000000000000000000000000000000815260040161192b90613e22565b60405180910390fd5b505b600185805490501415611c5e5760006006600160068054905061195991906141ca565b81548110611990577f4e487b7100000000000000000000000000000000000000000000000000000000600052603260045260246000fd5b9060005260206000200160009054906101000a900473ffffffffffffffffffffffffffffffffffffffff1690506000600760008973ffffffffffffffffffffffffffffffffffffffff1673ffffffffffffffffffffffffffffffffffffffff16815260200190815260200160002054905080600760008473ffffffffffffffffffffffffffffffffffffffff1673ffffffffffffffffffffffffffffffffffffffff168152602001908152602001600020819055508160068281548110611a80577f4e487b7100000000000000000000000000000000000000000000000000000000600052603260045260246000fd5b9060005260206000200160006101000a81548173ffffffffffffffffffffffffffffffffffffffff021916908373ffffffffffffffffffffffffffffffffffffffff1602179055506006805480611b00577f4e487b7100000000000000000000000000000000000000000000000000000000600052603160045260246000fd5b6001900381819060005260206000200160006101000a81549073ffffffffffffffffffffffffffffffffffffffff021916905590556000600760008c73ffffffffffffffffffffffffffffffffffffffff1673ffffffffffffffffffffffffffffffffffffffff1681526020019081526020016000208190555086805480611bb1577f4e487b7100000000000000000000000000000000000000000000000000000000600052603160045260246000fd5b60019003818190600052602060002090600a0201600080820160008082016000611bdb9190613452565b6001820160009055600282016000905550506003820160008082016000611c029190613452565b6001820160009055600282016000905550506006820160006101000a81549073ffffffffffffffffffffffffffffffffffffffff02191690556007820160009055600882016000905560098201600090555050905550506120bd565b60008560018780549050611c7291906141ca565b81548110611ca9577f4e487b7100000000000000000000000000000000000000000000000000000000600052603260045260246000fd5b90600052602060002090600a02016040518060c001604052908160008201604051806060016040529081600082018054611ce290614255565b80601f0160208091040260200160405190810160405280929190818152602001828054611d0e90614255565b8015611d5b5780601f10611d3057610100808354040283529160200191611d5b565b820191906000526020600020905b815481529060010190602001808311611d3e57829003601f168201915b5050505050815260200160018201548152602001600282015481525050815260200160038201604051806060016040529081600082018054611d9c90614255565b80601f0160208091040260200160405190810160405280929190818152602001828054611dc890614255565b8015611e155780601f10611dea57610100808354040283529160200191611e15565b820191906000526020600020905b815481529060010190602001808311611df857829003601f168201915b505050505081526020016001820154815260200160028201548152505081526020016006820160009054906101000a900473ffffffffffffffffffffffffffffffffffffffff1673ffffffffffffffffffffffffffffffffffffffff1673ffffffffffffffffffffffffffffffffffffffff168152602001600782015481526020016008820154815260200160098201548152505090508781606001818152505080868981548110611ef0577f4e487b7100000000000000000000000000000000000000000000000000000000600052603260045260246000fd5b90600052602060002090600a02016000820151816000016000820151816000019080519060200190611f2392919061337f565b50602082015181600101556040820151816002015550506020820151816003016000820151816000019080519060200190611f5f92919061337f565b506020820151816001015560408201518160020155505060408201518160060160006101000a81548173ffffffffffffffffffffffffffffffffffffffff021916908373ffffffffffffffffffffffffffffffffffffffff160217905550606082015181600701556080820151816008015560a0820151816009015590505085805480612015577f4e487b7100000000000000000000000000000000000000000000000000000000600052603160045260246000fd5b60019003818190600052602060002090600a020160008082016000808201600061203f9190613452565b60018201600090556002820160009055505060038201600080820160006120669190613452565b6001820160009055600282016000905550506006820160006101000a81549073ffffffffffffffffffffffffffffffffffffffff021916905560078201600090556008820160009055600982016000905550509055505b50505050505060008060146101000a81548160ff0219169083151502179055505050565b60008054906101000a900473ffffffffffffffffffffffffffffffffffffffff1681565b60018060000160009054906101000a900473ffffffffffffffffffffffffffffffffffffffff16908060010154905082565b60048060000154908060010154905082565b600060149054906101000a900460ff1615612199576040517f08c379a000000000000000000000000000000000000000000000000000000000815260040161219090613f62565b60405180910390fd5b6001600060146101000a81548160ff02191690831515021790555060008054906101000a900473ffffffffffffffffffffffffffffffffffffffff1673ffffffffffffffffffffffffffffffffffffffff163373ffffffffffffffffffffffffffffffffffffffff1614612242576040517f08c379a000000000000000000000000000000000000000000000000000000000815260040161223990613fc2565b60405180910390fd5b6000600860008773ffffffffffffffffffffffffffffffffffffffff1673ffffffffffffffffffffffffffffffffffffffff1681526020019081526020016000209050808054905082106122cb576040517f08c379a00000000000000000000000000000000000000000000000000000000081526004016122c290613dc2565b60405180910390fd5b6000818381548110612306577f4e487b7100000000000000000000000000000000000000000000000000000000600052603260045260246000fd5b90600052602060002090600a02016008015490506000612710600460010154836123309190614170565b61233a919061413f565b90506000818361234a91906141ca565b90506000848681548110612387577f4e487b7100000000000000000000000000000000000000000000000000000000600052603260045260246000fd5b90600052602060002090600a020160060160009054906101000a900473ffffffffffffffffffffffffffffffffffffffff169050600073ffffffffffffffffffffffffffffffffffffffff168173ffffffffffffffffffffffffffffffffffffffff1614156125925760008060009054906101000a900473ffffffffffffffffffffffffffffffffffffffff1673ffffffffffffffffffffffffffffffffffffffff168360405161243790613d17565b60006040518083038185875af1925050503d8060008114612474576040519150601f19603f3d011682016040523d82523d6000602084013e612479565b606091505b50509050806124bd576040517f08c379a00000000000000000000000000000000000000000000000000000000081526004016124b490613f22565b60405180910390fd5b6000600360009054906101000a900473ffffffffffffffffffffffffffffffffffffffff1673ffffffffffffffffffffffffffffffffffffffff168560405161250590613d17565b60006040518083038185875af1925050503d8060008114612542576040519150601f19603f3d011682016040523d82523d6000602084013e612547565b606091505b505090508061258b576040517f08c379a000000000000000000000000000000000000000000000000000000000815260040161258290613f22565b60405180910390fd5b50506127f9565b6000600b60008373ffffffffffffffffffffffffffffffffffffffff1673ffffffffffffffffffffffffffffffffffffffff168152602001908152602001600020805490501415612618576040517f08c379a000000000000000000000000000000000000000000000000000000000815260040161260f90613ec2565b60405180910390fd5b60008190508073ffffffffffffffffffffffffffffffffffffffff1663a9059cbb60008054906101000a900473ffffffffffffffffffffffffffffffffffffffff16856040518363ffffffff1660e01b8152600401612678929190613d7e565b602060405180830381600087803b15801561269257600080fd5b505af11580156126a6573d6000803e3d6000fd5b505050506040513d601f19601f820116820180604052508101906126ca919061372c565b612709576040517f08c379a000000000000000000000000000000000000000000000000000000000815260040161270090613e22565b60405180910390fd5b8073ffffffffffffffffffffffffffffffffffffffff1663a9059cbb600360009054906101000a900473ffffffffffffffffffffffffffffffffffffffff16866040518363ffffffff1660e01b8152600401612766929190613d7e565b602060405180830381600087803b15801561278057600080fd5b505af1158015612794573d6000803e3d6000fd5b505050506040513d601f19601f820116820180604052508101906127b8919061372c565b6127f7576040517f08c379a00000000000000000000000000000000000000000000000000000000081526004016127ee90613e22565b60405180910390fd5b505b600060405180606001604052808b81526020018a81526020018981525090506000868881548110612853577f4e487b7100000000000000000000000000000000000000000000000000000000600052603260045260246000fd5b90600052602060002090600a02016040518060c00160405290816000820160405180606001604052908160008201805461288c90614255565b80601f01602080910402602001604051908101604052809291908181526020018280546128b890614255565b80156129055780601f106128da57610100808354040283529160200191612905565b820191906000526020600020905b8154815290600101906020018083116128e857829003601f168201915b505050505081526020016001820154815260200160028201548152505081526020016003820160405180606001604052908160008201805461294690614255565b80601f016020809104026020016040519081016040528092919081815260200182805461297290614255565b80156129bf5780601f10612994576101008083540402835291602001916129bf565b820191906000526020600020905b8154815290600101906020018083116129a257829003601f168201915b505050505081526020016001820154815260200160028201548152505081526020016006820160009054906101000a900473ffffffffffffffffffffffffffffffffffffffff1673ffffffffffffffffffffffffffffffffffffffff1673ffffffffffffffffffffffffffffffffffffffff16815260200160078201548152602001600882015481526020016009820154815250509050818160200181905250600081608001818152505080878981548110612aa4577f4e487b7100000000000000000000000000000000000000000000000000000000600052603260045260246000fd5b90600052602060002090600a02016000820151816000016000820151816000019080519060200190612ad792919061337f565b50602082015181600101556040820151816002015550506020820151816003016000820151816000019080519060200190612b1392919061337f565b506020820151816001015560408201518160020155505060408201518160060160006101000a81548173ffffffffffffffffffffffffffffffffffffffff021916908373ffffffffffffffffffffffffffffffffffffffff160217905550606082015181600701556080820151816008015560a082015181600901559050505050505050505060008060146101000a81548160ff0219169083151502179055505050505050565b60405180604001604052808273ffffffffffffffffffffffffffffffffffffffff16815260200183815250600160008201518160000160006101000a81548173ffffffffffffffffffffffffffffffffffffffff021916908373ffffffffffffffffffffffffffffffffffffffff160217905550602082015181600101559050505050565b60008054906101000a900473ffffffffffffffffffffffffffffffffffffffff1673ffffffffffffffffffffffffffffffffffffffff163373ffffffffffffffffffffffffffffffffffffffff161415612cce576040517f08c379a0000000000000000000000000000000000000000000000000000000008152600401612cc590613fa2565b60405180910390fd5b600060159054906101000a900460ff1615612d1e576040517f08c379a0000000000000000000000000000000000000000000000000000000008152600401612d1590613ea2565b60405180910390fd5b6000600b60008773ffffffffffffffffffffffffffffffffffffffff1673ffffffffffffffffffffffffffffffffffffffff168152602001908152602001600020805480602002602001604051908101604052809291908181526020018280548015612da957602002820191906000526020600020905b815481526020019060010190808311612d95575b5050505050905080518210612df3576040517f08c379a0000000000000000000000000000000000000000000000000000000008152600401612dea90613e82565b60405180910390fd5b600073ffffffffffffffffffffffffffffffffffffffff168673ffffffffffffffffffffffffffffffffffffffff161415612eaf57808281518110612e61577f4e487b7100000000000000000000000000000000000000000000000000000000600052603260045260246000fd5b60200260200101513414612eaa576040517f08c379a0000000000000000000000000000000000000000000000000000000008152600401612ea190613e42565b60405180910390fd5b613009565b600081511415612ef4576040517f08c379a0000000000000000000000000000000000000000000000000000000008152600401612eeb90613ec2565b60405180910390fd5b60008690508073ffffffffffffffffffffffffffffffffffffffff166323b872dd3330858781518110612f50577f4e487b7100000000000000000000000000000000000000000000000000000000600052603260045260246000fd5b60200260200101516040518463ffffffff1660e01b8152600401612f7693929190613d47565b602060405180830381600087803b158015612f9057600080fd5b505af1158015612fa4573d6000803e3d6000fd5b505050506040513d601f19601f82011682018060405250810190612fc8919061372c565b613007576040517f08c379a0000000000000000000000000000000000000000000000000000000008152600401612ffe90613e22565b60405180910390fd5b505b61301161324f565b60006040518060600160405280878152602001868152602001858152509050613038613492565b600860003373ffffffffffffffffffffffffffffffffffffffff1673ffffffffffffffffffffffffffffffffffffffff1681526020019081526020016000206040518060c001604052808481526020018381526020018a73ffffffffffffffffffffffffffffffffffffffff168152602001600860003373ffffffffffffffffffffffffffffffffffffffff1673ffffffffffffffffffffffffffffffffffffffff16815260200190815260200160002080549050815260200185878151811061312b577f4e487b7100000000000000000000000000000000000000000000000000000000600052603260045260246000fd5b60200260200101518152602001600081525090806001815401808255809150506001900390600052602060002090600a0201600090919091909150600082015181600001600082015181600001908051906020019061318b92919061337f565b506020820151816001015560408201518160020155505060208201518160030160008201518160000190805190602001906131c792919061337f565b506020820151816001015560408201518160020155505060408201518160060160006101000a81548173ffffffffffffffffffffffffffffffffffffffff021916908373ffffffffffffffffffffffffffffffffffffffff160217905550606082015181600701556080820151816008015560a0820151816009015550505050505050505050565b600073ffffffffffffffffffffffffffffffffffffffff163373ffffffffffffffffffffffffffffffffffffffff16141580156132cb57506000600760003373ffffffffffffffffffffffffffffffffffffffff1673ffffffffffffffffffffffffffffffffffffffff16815260200190815260200160002054145b1561337d57600680549050600760003373ffffffffffffffffffffffffffffffffffffffff1673ffffffffffffffffffffffffffffffffffffffff168152602001908152602001600020819055506006339080600181540180825580915050600190039060005260206000200160009091909190916101000a81548173ffffffffffffffffffffffffffffffffffffffff021916908373ffffffffffffffffffffffffffffffffffffffff1602179055505b565b82805461338b90614255565b90600052602060002090601f0160209004810192826133ad57600085556133f4565b82601f106133c657805160ff19168380011785556133f4565b828001600101855582156133f4579182015b828111156133f35782518255916020019190600101906133d8565b5b50905061340191906134b3565b5090565b828054828255906000526020600020908101928215613441579160200282015b82811115613440578251825591602001919060010190613425565b5b50905061344e91906134b3565b5090565b50805461345e90614255565b6000825580601f10613470575061348f565b601f01602090049060005260206000209081019061348e91906134b3565b5b50565b60405180606001604052806060815260200160008152602001600081525090565b5b808211156134cc5760008160009055506001016134b4565b5090565b60006134e36134de8461405c565b61402b565b9050808382526020820190508285602086028201111561350257600080fd5b60005b85811015613532578161351888826135f8565b845260208401935060208301925050600181019050613505565b5050509392505050565b600061354f61354a84614088565b61402b565b90508281526020810184848401111561356757600080fd5b613572848285614246565b509392505050565b6000813590506135898161438c565b92915050565b600082601f8301126135a057600080fd5b81356135b08482602086016134d0565b91505092915050565b6000815190506135c8816143a3565b92915050565b600082601f8301126135df57600080fd5b81356135ef84826020860161353c565b91505092915050565b600081359050613607816143ba565b92915050565b6000806040838503121561362057600080fd5b600061362e8582860161357a565b925050602083013567ffffffffffffffff81111561364b57600080fd5b6136578582860161358f565b9150509250929050565b600080600080600060a0868803121561367957600080fd5b60006136878882890161357a565b955050602086013567ffffffffffffffff8111156136a457600080fd5b6136b0888289016135ce565b94505060406136c1888289016135f8565b93505060606136d2888289016135f8565b92505060806136e3888289016135f8565b9150509295509295909350565b6000806040838503121561370357600080fd5b60006137118582860161357a565b9250506020613722858286016135f8565b9150509250929050565b60006020828403121561373e57600080fd5b600061374c848285016135b9565b91505092915050565b60006020828403121561376757600080fd5b6000613775848285016135f8565b91505092915050565b6000806040838503121561379157600080fd5b600061379f858286016135f8565b92505060206137b08582860161357a565b9150509250929050565b6137c3816141fe565b82525050565b6137d281614210565b82525050565b600081546137e581614255565b6137ef81866140cd565b9450600182166000811461380a576001811461381b5761384e565b60ff1983168652818601935061384e565b613824856140b8565b60005b8381101561384657815481890152600182019150602081019050613827565b838801955050505b50505092915050565b60006138646005836140d8565b91507f45525231360000000000000000000000000000000000000000000000000000006000830152602082019050919050565b60006138a46005836140d8565b91507f45525231390000000000000000000000000000000000000000000000000000006000830152602082019050919050565b60006138e46004836140d8565b91507f45525236000000000000000000000000000000000000000000000000000000006000830152602082019050919050565b60006139246005836140d8565b91507f45525231310000000000000000000000000000000000000000000000000000006000830152602082019050919050565b60006139646004836140d8565b91507f45525239000000000000000000000000000000000000000000000000000000006000830152602082019050919050565b60006139a46004836140d8565b91507f45525232000000000000000000000000000000000000000000000000000000006000830152602082019050919050565b60006139e46004836140d8565b91507f45525238000000000000000000000000000000000000000000000000000000006000830152602082019050919050565b6000613a246005836140d8565b91507f45525231380000000000000000000000000000000000000000000000000000006000830152602082019050919050565b6000613a646005836140d8565b91507f45525231300000000000000000000000000000000000000000000000000000006000830152602082019050919050565b6000613aa46005836140d8565b91507f45525231330000000000000000000000000000000000000000000000000000006000830152602082019050919050565b6000613ae46004836140d8565b91507f45525231000000000000000000000000000000000000000000000000000000006000830152602082019050919050565b6000613b246005836140d8565b91507f45525231350000000000000000000000000000000000000000000000000000006000830152602082019050919050565b6000613b646005836140d8565b91507f45525231370000000000000000000000000000000000000000000000000000006000830152602082019050919050565b6000613ba46000836140cd565b9150600082019050919050565b6000613bbe6004836140d8565b91507f45525235000000000000000000000000000000000000000000000000000000006000830152602082019050919050565b6000613bfe6005836140d8565b91507f45525231320000000000000000000000000000000000000000000000000000006000830152602082019050919050565b6000613c3e6004836140d8565b91507f45525234000000000000000000000000000000000000000000000000000000006000830152602082019050919050565b6000613c7e6004836140d8565b91507f45525233000000000000000000000000000000000000000000000000000000006000830152602082019050919050565b6000613cbe6005836140d8565b91507f45525231340000000000000000000000000000000000000000000000000000006000830152602082019050919050565b613cfa8161423c565b82525050565b6000613d0c82846137d8565b915081905092915050565b6000613d2282613b97565b9150819050919050565b6000602082019050613d4160008301846137ba565b92915050565b6000606082019050613d5c60008301866137ba565b613d6960208301856137ba565b613d766040830184613cf1565b949350505050565b6000604082019050613d9360008301856137ba565b613da06020830184613cf1565b9392505050565b6000602082019050613dbc60008301846137c9565b92915050565b60006020820190508181036000830152613ddb81613857565b9050919050565b60006020820190508181036000830152613dfb81613897565b9050919050565b60006020820190508181036000830152613e1b816138d7565b9050919050565b60006020820190508181036000830152613e3b81613917565b9050919050565b60006020820190508181036000830152613e5b81613957565b9050919050565b60006020820190508181036000830152613e7b81613997565b9050919050565b60006020820190508181036000830152613e9b816139d7565b9050919050565b60006020820190508181036000830152613ebb81613a17565b9050919050565b60006020820190508181036000830152613edb81613a57565b9050919050565b60006020820190508181036000830152613efb81613a97565b9050919050565b60006020820190508181036000830152613f1b81613ad7565b9050919050565b60006020820190508181036000830152613f3b81613b17565b9050919050565b60006020820190508181036000830152613f5b81613b57565b9050919050565b60006020820190508181036000830152613f7b81613bb1565b9050919050565b60006020820190508181036000830152613f9b81613bf1565b9050919050565b60006020820190508181036000830152613fbb81613c31565b9050919050565b60006020820190508181036000830152613fdb81613c71565b9050919050565b60006020820190508181036000830152613ffb81613cb1565b9050919050565b60006040820190506140176000830185613cf1565b6140246020830184613cf1565b9392505050565b6000604051905081810181811067ffffffffffffffff821117156140525761405161435d565b5b8060405250919050565b600067ffffffffffffffff8211156140775761407661435d565b5b602082029050602081019050919050565b600067ffffffffffffffff8211156140a3576140a261435d565b5b601f19601f8301169050602081019050919050565b60008190508160005260206000209050919050565b600081905092915050565b600082825260208201905092915050565b60006140f48261423c565b91506140ff8361423c565b9250827fffffffffffffffffffffffffffffffffffffffffffffffffffffffffffffffff03821115614134576141336142d0565b5b828201905092915050565b600061414a8261423c565b91506141558361423c565b925082614165576141646142ff565b5b828204905092915050565b600061417b8261423c565b91506141868361423c565b9250817fffffffffffffffffffffffffffffffffffffffffffffffffffffffffffffffff04831182151516156141bf576141be6142d0565b5b828202905092915050565b60006141d58261423c565b91506141e08361423c565b9250828210156141f3576141f26142d0565b5b828203905092915050565b60006142098261421c565b9050919050565b60008115159050919050565b600073ffffffffffffffffffffffffffffffffffffffff82169050919050565b6000819050919050565b82818337600083830152505050565b6000600282049050600182168061426d57607f821691505b602082108114156142815761428061432e565b5b50919050565b60006142928261423c565b91507fffffffffffffffffffffffffffffffffffffffffffffffffffffffffffffffff8214156142c5576142c46142d0565b5b600182019050919050565b7f4e487b7100000000000000000000000000000000000000000000000000000000600052601160045260246000fd5b7f4e487b7100000000000000000000000000000000000000000000000000000000600052601260045260246000fd5b7f4e487b7100000000000000000000000000000000000000000000000000000000600052602260045260246000fd5b7f4e487b7100000000000000000000000000000000000000000000000000000000600052604160045260246000fd5b614395816141fe565b81146143a057600080fd5b50565b6143ac81614210565b81146143b757600080fd5b50565b6143c38161423c565b81146143ce57600080fd5b5056fea264697066735822122015ceee0f162ffc2684187b877dfbaca6597209ffc30638a8d00ed16db946a9cc64736f6c63430008000033",
  "linkReferences": {},
  "deployedLinkReferences": {}
}