{
  "_format": "hh-sol-artifact-1",
  "contractName": "AskMiFactory",
  "sourceName": "contracts/askmi-factory.sol",
  "abi": [
    {
      "inputs": [],
      "stateMutability": "nonpayable",
      "type": "constructor"
    },
    {
      "anonymous": false,
      "inputs": [
        {
          "indexed": false,
          "internalType": "address",
          "name": "_askMiAddress",
          "type": "address"
        }
      ],
      "name": "AskMiInstantiated",
      "type": "event"
    },
    {
      "inputs": [
        {
          "internalType": "address",
          "name": "_owner",
          "type": "address"
        }
      ],
      "name": "getMyAskMi",
      "outputs": [
        {
          "internalType": "address",
          "name": "",
          "type": "address"
        }
      ],
      "stateMutability": "view",
      "type": "function"
    },
    {
      "inputs": [
        {
          "internalType": "uint256[]",
          "name": "_tiers",
          "type": "uint256[]"
        },
        {
          "internalType": "uint256",
          "name": "_tip",
          "type": "uint256"
        }
      ],
      "name": "instantiateAskMi",
      "outputs": [
        {
          "internalType": "address",
          "name": "",
          "type": "address"
        }
      ],
      "stateMutability": "nonpayable",
      "type": "function"
    }
  ],
  "bytecode": "0x608060405234801561001057600080fd5b5033600260006101000a81548173ffffffffffffffffffffffffffffffffffffffff021916908373ffffffffffffffffffffffffffffffffffffffff16021790555060008080600181540180825580915050600190039060005260206000200160009091909190916101000a81548173ffffffffffffffffffffffffffffffffffffffff021916908373ffffffffffffffffffffffffffffffffffffffff1602179055506140ca806100c36000396000f3fe60806040523480156200001157600080fd5b50600436106200003a5760003560e01c806307f07507146200003f5780637840a87b1462000075575b600080fd5b6200005d6004803603810190620000579190620004cf565b620000ab565b6040516200006c919062000655565b60405180910390f35b6200009360048036038101906200008d9190620004a3565b620002cc565b604051620000a2919062000655565b60405180910390f35b600080835111620000f3576040517f08c379a0000000000000000000000000000000000000000000000000000000008152600401620000ea90620006e8565b60405180910390fd5b6000600160003373ffffffffffffffffffffffffffffffffffffffff1673ffffffffffffffffffffffffffffffffffffffff168152602001908152602001600020541462000178576040517f08c379a00000000000000000000000000000000000000000000000000000000081526004016200016f90620006c6565b60405180910390fd5b6000338484600260009054906101000a900473ffffffffffffffffffffffffffffffffffffffff16604051620001ae90620003c5565b620001bd949392919062000672565b604051809103906000f080158015620001da573d6000803e3d6000fd5b509050600080549050600160003373ffffffffffffffffffffffffffffffffffffffff1673ffffffffffffffffffffffffffffffffffffffff168152602001908152602001600020819055506000819080600181540180825580915050600190039060005260206000200160009091909190916101000a81548173ffffffffffffffffffffffffffffffffffffffff021916908373ffffffffffffffffffffffffffffffffffffffff1602179055507f853ffed38f1ea517c00ec790a694ac2338e70620f84d8b2057e4b9b8102f6cd681604051620002ba919062000655565b60405180910390a18091505092915050565b600080600160008473ffffffffffffffffffffffffffffffffffffffff1673ffffffffffffffffffffffffffffffffffffffff1681526020019081526020016000205490506000811162000357576040517f08c379a00000000000000000000000000000000000000000000000000000000081526004016200034e906200070a565b60405180910390fd5b6000818154811062000392577f4e487b7100000000000000000000000000000000000000000000000000000000600052603260045260246000fd5b9060005260206000200160009054906101000a900473ffffffffffffffffffffffffffffffffffffffff16915050919050565b6136f180620009a483390190565b6000620003ea620003e48462000755565b6200072c565b905080838252602082019050828560208602820111156200040a57600080fd5b60005b858110156200043e57816200042388826200048c565b8452602084019350602083019250506001810190506200040d565b5050509392505050565b60008135905062000459816200096f565b92915050565b600082601f8301126200047157600080fd5b813562000483848260208601620003d3565b91505092915050565b6000813590506200049d8162000989565b92915050565b600060208284031215620004b657600080fd5b6000620004c68482850162000448565b91505092915050565b60008060408385031215620004e357600080fd5b600083013567ffffffffffffffff811115620004fe57600080fd5b6200050c858286016200045f565b92505060206200051f858286016200048c565b9150509250929050565b600062000537838362000633565b60208301905092915050565b6200054e81620007ce565b82525050565b6000620005618262000794565b6200056d8185620007ac565b93506200057a8362000784565b8060005b83811015620005b157815162000595888262000529565b9750620005a2836200079f565b9250506001810190506200057e565b5085935050505092915050565b6000620005cd602c83620007bd565b9150620005da8262000882565b604082019050919050565b6000620005f4602283620007bd565b91506200060182620008d1565b604082019050919050565b60006200061b603783620007bd565b9150620006288262000920565b604082019050919050565b6200063e8162000802565b82525050565b6200064f8162000802565b82525050565b60006020820190506200066c600083018462000543565b92915050565b600060808201905062000689600083018762000543565b81810360208301526200069d818662000554565b9050620006ae604083018562000644565b620006bd606083018462000543565b95945050505050565b60006020820190508181036000830152620006e181620005be565b9050919050565b600060208201905081810360008301526200070381620005e5565b9050919050565b6000602082019050818103600083015262000725816200060c565b9050919050565b6000620007386200074b565b90506200074682826200080c565b919050565b6000604051905090565b600067ffffffffffffffff82111562000773576200077262000842565b5b602082029050602081019050919050565b6000819050602082019050919050565b600081519050919050565b6000602082019050919050565b600082825260208201905092915050565b600082825260208201905092915050565b6000620007db82620007e2565b9050919050565b600073ffffffffffffffffffffffffffffffffffffffff82169050919050565b6000819050919050565b620008178262000871565b810181811067ffffffffffffffff8211171562000839576200083862000842565b5b80604052505050565b7f4e487b7100000000000000000000000000000000000000000000000000000000600052604160045260246000fd5b6000601f19601f8301169050919050565b7f54686973206164647265737320616c7265616479206f776e7320616e2041736b60008201527f4d6920696e7374616e63652e0000000000000000000000000000000000000000602082015250565b7f506c656173652c20696e636c756465206174206c65617374206f6e652074696560008201527f722e000000000000000000000000000000000000000000000000000000000000602082015250565b7f5468652073656c6563746564206164647265737320686173206e6f742063726560008201527f6174656420616e2041736b4d6920636f6e74726163742e000000000000000000602082015250565b6200097a81620007ce565b81146200098657600080fd5b50565b620009948162000802565b8114620009a057600080fd5b5056fe608060405260c86003553480156200001657600080fd5b50604051620036f1380380620036f183398181016040528101906200003c91906200028c565b836000806101000a81548173ffffffffffffffffffffffffffffffffffffffff021916908373ffffffffffffffffffffffffffffffffffffffff1602179055508260049080519060200190620000949291906200014b565b508160018190555080600260006101000a81548173ffffffffffffffffffffffffffffffffffffffff021916908373ffffffffffffffffffffffffffffffffffffffff160217905550600760009080600181540180825580915050600190039060005260206000200160009091909190916101000a81548173ffffffffffffffffffffffffffffffffffffffff021916908373ffffffffffffffffffffffffffffffffffffffff1602179055505050505062000451565b8280548282559060005260206000209081019282156200018a579160200282015b82811115620001895782518255916020019190600101906200016c565b5b5090506200019991906200019d565b5090565b5b80821115620001b85760008160009055506001016200019e565b5090565b6000620001d3620001cd846200033a565b62000311565b90508083825260208201905082856020860282011115620001f357600080fd5b60005b858110156200022757816200020c888262000275565b845260208401935060208301925050600181019050620001f6565b5050509392505050565b60008151905062000242816200041d565b92915050565b600082601f8301126200025a57600080fd5b81516200026c848260208601620001bc565b91505092915050565b600081519050620002868162000437565b92915050565b60008060008060808587031215620002a357600080fd5b6000620002b38782880162000231565b945050602085015167ffffffffffffffff811115620002d157600080fd5b620002df8782880162000248565b9350506040620002f28782880162000275565b9250506060620003058782880162000231565b91505092959194509250565b60006200031d62000330565b90506200032b8282620003a7565b919050565b6000604051905090565b600067ffffffffffffffff821115620003585762000357620003dd565b5b602082029050602081019050919050565b600062000376826200037d565b9050919050565b600073ffffffffffffffffffffffffffffffffffffffff82169050919050565b6000819050919050565b620003b2826200040c565b810181811067ffffffffffffffff82111715620003d457620003d3620003dd565b5b80604052505050565b7f4e487b7100000000000000000000000000000000000000000000000000000000600052604160045260246000fd5b6000601f19601f8301169050919050565b620004288162000369565b81146200043457600080fd5b50565b62000442816200039d565b81146200044e57600080fd5b50565b61329080620004616000396000f3fe6080604052600436106100ab5760003560e01c8063ba3db4f311610064578063ba3db4f3146101ab578063c3da5961146101d4578063ddca3f43146101fd578063de17057014610228578063e4c0967c14610253578063f46cd0a81461027c576100b2565b806305beb077146100b75780630dedc14c146100d35780631605c9ef146101105780632755cd2d1461012c57806388e3547a146101575780638da5cb5b14610180576100b2565b366100b257005b600080fd5b6100d160048036038101906100cc919061238e565b6102a7565b005b3480156100df57600080fd5b506100fa60048036038101906100f591906122d6565b6106a7565b6040516101079190612a52565b60405180910390f35b61012a6004803603810190610125919061240b565b6108d7565b005b34801561013857600080fd5b50610141610c15565b60405161014e9190612bf6565b60405180910390f35b34801561016357600080fd5b5061017e60048036038101906101799190612486565b610c1b565b005b34801561018c57600080fd5b50610195610cea565b6040516101a291906129b5565b60405180910390f35b3480156101b757600080fd5b506101d260048036038101906101cd919061238e565b610d0e565b005b3480156101e057600080fd5b506101fb60048036038101906101f691906123ca565b611752565b005b34801561020957600080fd5b50610212611831565b60405161021f9190612bf6565b60405180910390f35b34801561023457600080fd5b5061023d611837565b60405161024a9190612a74565b60405180910390f35b34801561025f57600080fd5b5061027a600480360381019061027591906122ff565b61188f565b005b34801561028857600080fd5b50610291611e12565b60405161029e9190612a30565b60405180910390f35b60008054906101000a900473ffffffffffffffffffffffffffffffffffffffff1673ffffffffffffffffffffffffffffffffffffffff163373ffffffffffffffffffffffffffffffffffffffff161415610336576040517f08c379a000000000000000000000000000000000000000000000000000000000815260040161032d90612b56565b60405180910390fd5b6000600560008473ffffffffffffffffffffffffffffffffffffffff1673ffffffffffffffffffffffffffffffffffffffff1681526020019081526020016000209050808054905082106103bf576040517f08c379a00000000000000000000000000000000000000000000000000000000081526004016103b690612a96565b60405180910390fd5b6001543414610403576040517f08c379a00000000000000000000000000000000000000000000000000000000081526004016103fa90612b76565b60405180910390fd5b60003490506000828481548110610443577f4e487b7100000000000000000000000000000000000000000000000000000000600052603260045260246000fd5b90600052602060002090600902019050600183858154811061048e577f4e487b7100000000000000000000000000000000000000000000000000000000600052603260045260246000fd5b9060005260206000209060090201600801546104aa9190612d8b565b8160080181905550808385815481106104ec577f4e487b7100000000000000000000000000000000000000000000000000000000600052603260045260246000fd5b90600052602060002090600902016000820181600001600082018160000190805461051690612ec4565b610521929190611fd0565b50600182015481600101556002820154816002015550506003820181600301600082018160000190805461055490612ec4565b61055f929190611fd0565b506001820154816001015560028201548160020155505060068201548160060155600782015481600701556008820154816008015590505060008060009054906101000a900473ffffffffffffffffffffffffffffffffffffffff1673ffffffffffffffffffffffffffffffffffffffff16836040516105de906129a0565b60006040518083038185875af1925050503d806000811461061b576040519150601f19603f3d011682016040523d82523d6000602084013e610620565b606091505b5050905080610664576040517f08c379a000000000000000000000000000000000000000000000000000000000815260040161065b90612ad6565b60405180910390fd5b7f5a50cca853216358cef16b50b4372aeffa1408785da94c57e62bc17839905f79338787604051610697939291906129d0565b60405180910390a1505050505050565b6060600560008373ffffffffffffffffffffffffffffffffffffffff1673ffffffffffffffffffffffffffffffffffffffff168152602001908152602001600020805480602002602001604051908101604052809291908181526020016000905b828210156108cc57838290600052602060002090600902016040518060a00160405290816000820160405180606001604052908160008201805461074b90612ec4565b80601f016020809104026020016040519081016040528092919081815260200182805461077790612ec4565b80156107c45780601f10610799576101008083540402835291602001916107c4565b820191906000526020600020905b8154815290600101906020018083116107a757829003601f168201915b505050505081526020016001820154815260200160028201548152505081526020016003820160405180606001604052908160008201805461080590612ec4565b80601f016020809104026020016040519081016040528092919081815260200182805461083190612ec4565b801561087e5780601f106108535761010080835404028352916020019161087e565b820191906000526020600020905b81548152906001019060200180831161086157829003601f168201915b50505050508152602001600182015481526020016002820154815250508152602001600682015481526020016007820154815260200160088201548152505081526020019060010190610708565b505050509050919050565b60008054906101000a900473ffffffffffffffffffffffffffffffffffffffff1673ffffffffffffffffffffffffffffffffffffffff163373ffffffffffffffffffffffffffffffffffffffff161415610966576040517f08c379a000000000000000000000000000000000000000000000000000000000815260040161095d90612b56565b60405180910390fd5b8060048054905081106109ae576040517f08c379a00000000000000000000000000000000000000000000000000000000081526004016109a590612af6565b60405180910390fd5b600481815481106109e8577f4e487b7100000000000000000000000000000000000000000000000000000000600052603260045260246000fd5b90600052602060002001543414610a34576040517f08c379a0000000000000000000000000000000000000000000000000000000008152600401610a2b90612bd6565b60405180910390fd5b610a3c611ea0565b60006040518060600160405280878152602001868152602001858152509050610a6361205d565b6000600560003373ffffffffffffffffffffffffffffffffffffffff1673ffffffffffffffffffffffffffffffffffffffff168152602001908152602001600020805490509050600560003373ffffffffffffffffffffffffffffffffffffffff1673ffffffffffffffffffffffffffffffffffffffff1681526020019081526020016000206040518060a00160405280858152602001848152602001838152602001348152602001600081525090806001815401808255809150506001900390600052602060002090600902016000909190919091506000820151816000016000820151816000019080519060200190610b5f92919061207e565b50602082015181600101556040820151816002015550506020820151816003016000820151816000019080519060200190610b9b92919061207e565b506020820151816001015560408201518160020155505060408201518160060155606082015181600701556080820151816008015550507f2e7298985f2dd624a11368cfbd0102c3a4d43891b7b687d2f922b615b550cacd3382604051610c03929190612a07565b60405180910390a15050505050505050565b60015481565b60008054906101000a900473ffffffffffffffffffffffffffffffffffffffff1673ffffffffffffffffffffffffffffffffffffffff163373ffffffffffffffffffffffffffffffffffffffff1614610ca9576040517f08c379a0000000000000000000000000000000000000000000000000000000008152600401610ca090612ab6565b60405180910390fd5b806001819055507f8e4f1d019407583d95e3ff711040e061e5135f06290bf3d551a0f006684ad77281604051610cdf9190612bf6565b60405180910390a150565b60008054906101000a900473ffffffffffffffffffffffffffffffffffffffff1681565b600860009054906101000a900460ff1615610d5e576040517f08c379a0000000000000000000000000000000000000000000000000000000008152600401610d5590612bb6565b60405180910390fd5b6001600860006101000a81548160ff021916908315150217905550600033905060008054906101000a900473ffffffffffffffffffffffffffffffffffffffff1673ffffffffffffffffffffffffffffffffffffffff163373ffffffffffffffffffffffffffffffffffffffff161415610dd6578290505b6000600560008373ffffffffffffffffffffffffffffffffffffffff1673ffffffffffffffffffffffffffffffffffffffff16815260200190815260200160002090506000818054905011610e60576040517f08c379a0000000000000000000000000000000000000000000000000000000008152600401610e5790612b16565b60405180910390fd5b80805490508310610ea6576040517f08c379a0000000000000000000000000000000000000000000000000000000008152600401610e9d90612b36565b60405180910390fd5b6040518060200160405280600081525080519060200120818481548110610ef6577f4e487b7100000000000000000000000000000000000000000000000000000000600052603260045260246000fd5b9060005260206000209060090201600301600001604051610f179190612989565b604051809103902014610f5f576040517f08c379a0000000000000000000000000000000000000000000000000000000008152600401610f5690612b96565b60405180910390fd5b6000818481548110610f9a577f4e487b7100000000000000000000000000000000000000000000000000000000600052603260045260246000fd5b90600052602060002090600902016007015490506001828054905014156112af57600060076001600780549050610fd19190612e12565b81548110611008577f4e487b7100000000000000000000000000000000000000000000000000000000600052603260045260246000fd5b9060005260206000200160009054906101000a900473ffffffffffffffffffffffffffffffffffffffff1690506000600660008673ffffffffffffffffffffffffffffffffffffffff1673ffffffffffffffffffffffffffffffffffffffff16815260200190815260200160002054905080600660008473ffffffffffffffffffffffffffffffffffffffff1673ffffffffffffffffffffffffffffffffffffffff1681526020019081526020016000208190555081600782815481106110f8577f4e487b7100000000000000000000000000000000000000000000000000000000600052603260045260246000fd5b9060005260206000200160006101000a81548173ffffffffffffffffffffffffffffffffffffffff021916908373ffffffffffffffffffffffffffffffffffffffff1602179055506007805480611178577f4e487b7100000000000000000000000000000000000000000000000000000000600052603160045260246000fd5b6001900381819060005260206000200160006101000a81549073ffffffffffffffffffffffffffffffffffffffff021916905590556000600660008773ffffffffffffffffffffffffffffffffffffffff1673ffffffffffffffffffffffffffffffffffffffff1681526020019081526020016000208190555083805480611229577f4e487b7100000000000000000000000000000000000000000000000000000000600052603160045260246000fd5b60019003818190600052602060002090600902016000808201600080820160006112539190612104565b600182016000905560028201600090555050600382016000808201600061127a9190612104565b60018201600090556002820160009055505060068201600090556007820160009055600882016000905550509055505061164a565b600082600184805490506112c39190612e12565b815481106112fa577f4e487b7100000000000000000000000000000000000000000000000000000000600052603260045260246000fd5b90600052602060002090600902016040518060a00160405290816000820160405180606001604052908160008201805461133390612ec4565b80601f016020809104026020016040519081016040528092919081815260200182805461135f90612ec4565b80156113ac5780601f10611381576101008083540402835291602001916113ac565b820191906000526020600020905b81548152906001019060200180831161138f57829003601f168201915b50505050508152602001600182015481526020016002820154815250508152602001600382016040518060600160405290816000820180546113ed90612ec4565b80601f016020809104026020016040519081016040528092919081815260200182805461141990612ec4565b80156114665780601f1061143b57610100808354040283529160200191611466565b820191906000526020600020905b81548152906001019060200180831161144957829003601f168201915b505050505081526020016001820154815260200160028201548152505081526020016006820154815260200160078201548152602001600882015481525050905084816040018181525050808386815481106114eb577f4e487b7100000000000000000000000000000000000000000000000000000000600052603260045260246000fd5b9060005260206000209060090201600082015181600001600082015181600001908051906020019061151e92919061207e565b5060208201518160010155604082015181600201555050602082015181600301600082015181600001908051906020019061155a92919061207e565b5060208201518160010155604082015181600201555050604082015181600601556060820151816007015560808201518160080155905050828054806115c9577f4e487b7100000000000000000000000000000000000000000000000000000000600052603160045260246000fd5b60019003818190600052602060002090600902016000808201600080820160006115f39190612104565b600182016000905560028201600090555050600382016000808201600061161a9190612104565b60018201600090556002820160009055505060068201600090556007820160009055600882016000905550509055505b60008373ffffffffffffffffffffffffffffffffffffffff1682604051611670906129a0565b60006040518083038185875af1925050503d80600081146116ad576040519150601f19603f3d011682016040523d82523d6000602084013e6116b2565b606091505b50509050806116f6576040517f08c379a00000000000000000000000000000000000000000000000000000000081526004016116ed90612ad6565b60405180910390fd5b7f9f023eae2648b1dc9ce9ef4768da366f2ae94207233ba25fb5894fd5227de2628486604051611727929190612a07565b60405180910390a1505050506000600860006101000a81548160ff0219169083151502179055505050565b60008054906101000a900473ffffffffffffffffffffffffffffffffffffffff1673ffffffffffffffffffffffffffffffffffffffff163373ffffffffffffffffffffffffffffffffffffffff16146117e0576040517f08c379a00000000000000000000000000000000000000000000000000000000081526004016117d790612ab6565b60405180910390fd5b80600490805190602001906117f6929190612144565b507fe0fb520658d55c7cad928e0eb0d97b2c8b74648f5d3a3966062460167836e0dd816040516118269190612a74565b60405180910390a150565b60035481565b6060600480548060200260200160405190810160405280929190818152602001828054801561188557602002820191906000526020600020905b815481526020019060010190808311611871575b5050505050905090565b600860009054906101000a900460ff16156118df576040517f08c379a00000000000000000000000000000000000000000000000000000000081526004016118d690612bb6565b60405180910390fd5b6001600860006101000a81548160ff02191690831515021790555060008054906101000a900473ffffffffffffffffffffffffffffffffffffffff1673ffffffffffffffffffffffffffffffffffffffff163373ffffffffffffffffffffffffffffffffffffffff1614611988576040517f08c379a000000000000000000000000000000000000000000000000000000000815260040161197f90612ab6565b60405180910390fd5b6000600560008773ffffffffffffffffffffffffffffffffffffffff1673ffffffffffffffffffffffffffffffffffffffff168152602001908152602001600020905080805490508210611a11576040517f08c379a0000000000000000000000000000000000000000000000000000000008152600401611a0890612a96565b60405180910390fd5b6000818381548110611a4c577f4e487b7100000000000000000000000000000000000000000000000000000000600052603260045260246000fd5b9060005260206000209060090201600701549050600060035482611a709190612de1565b905060008183611a809190612e12565b9050600060405180606001604052808a81526020018981526020018881525090506000858781548110611adc577f4e487b7100000000000000000000000000000000000000000000000000000000600052603260045260246000fd5b9060005260206000209060090201905081816003016000820151816000019080519060200190611b0d92919061207e565b5060208201518160010155604082015181600201559050506000816007018190555080868881548110611b69577f4e487b7100000000000000000000000000000000000000000000000000000000600052603260045260246000fd5b906000526020600020906009020160008201816000016000820181600001908054611b9390612ec4565b611b9e929190611fd0565b506001820154816001015560028201548160020155505060038201816003016000820181600001908054611bd190612ec4565b611bdc929190611fd0565b506001820154816001015560028201548160020155505060068201548160060155600782015481600701556008820154816008015590505060008060009054906101000a900473ffffffffffffffffffffffffffffffffffffffff1673ffffffffffffffffffffffffffffffffffffffff1684604051611c5b906129a0565b60006040518083038185875af1925050503d8060008114611c98576040519150601f19603f3d011682016040523d82523d6000602084013e611c9d565b606091505b5050905080611ce1576040517f08c379a0000000000000000000000000000000000000000000000000000000008152600401611cd890612ad6565b60405180910390fd5b6000600260009054906101000a900473ffffffffffffffffffffffffffffffffffffffff1673ffffffffffffffffffffffffffffffffffffffff1686604051611d29906129a0565b60006040518083038185875af1925050503d8060008114611d66576040519150601f19603f3d011682016040523d82523d6000602084013e611d6b565b606091505b5050905080611daf576040517f08c379a0000000000000000000000000000000000000000000000000000000008152600401611da690612ad6565b60405180910390fd5b7f429c694aa6647ed579b2576c88071af439f05fe6dc41964661e1bf0937f324c18d8a604051611de0929190612a07565b60405180910390a150505050505050506000600860006101000a81548160ff0219169083151502179055505050505050565b60606007805480602002602001604051908101604052809291908181526020018280548015611e9657602002820191906000526020600020905b8160009054906101000a900473ffffffffffffffffffffffffffffffffffffffff1673ffffffffffffffffffffffffffffffffffffffff1681526020019060010190808311611e4c575b5050505050905090565b600073ffffffffffffffffffffffffffffffffffffffff163373ffffffffffffffffffffffffffffffffffffffff1614158015611f1c57506000600660003373ffffffffffffffffffffffffffffffffffffffff1673ffffffffffffffffffffffffffffffffffffffff16815260200190815260200160002054145b15611fce57600780549050600660003373ffffffffffffffffffffffffffffffffffffffff1673ffffffffffffffffffffffffffffffffffffffff168152602001908152602001600020819055506007339080600181540180825580915050600190039060005260206000200160009091909190916101000a81548173ffffffffffffffffffffffffffffffffffffffff021916908373ffffffffffffffffffffffffffffffffffffffff1602179055505b565b828054611fdc90612ec4565b90600052602060002090601f016020900481019282611ffe576000855561204c565b82601f1061200f578054855561204c565b8280016001018555821561204c57600052602060002091601f016020900482015b8281111561204b578254825591600101919060010190612030565b5b5090506120599190612191565b5090565b60405180606001604052806060815260200160008152602001600081525090565b82805461208a90612ec4565b90600052602060002090601f0160209004810192826120ac57600085556120f3565b82601f106120c557805160ff19168380011785556120f3565b828001600101855582156120f3579182015b828111156120f25782518255916020019190600101906120d7565b5b5090506121009190612191565b5090565b50805461211090612ec4565b6000825580601f106121225750612141565b601f0160209004906000526020600020908101906121409190612191565b5b50565b828054828255906000526020600020908101928215612180579160200282015b8281111561217f578251825591602001919060010190612164565b5b50905061218d9190612191565b5090565b5b808211156121aa576000816000905550600101612192565b5090565b60006121c16121bc84612c36565b612c11565b905080838252602082019050828560208602820111156121e057600080fd5b60005b8581101561221057816121f688826122c1565b8452602084019350602083019250506001810190506121e3565b5050509392505050565b600061222d61222884612c62565b612c11565b90508281526020810184848401111561224557600080fd5b612250848285612e82565b509392505050565b6000813590506122678161322c565b92915050565b600082601f83011261227e57600080fd5b813561228e8482602086016121ae565b91505092915050565b600082601f8301126122a857600080fd5b81356122b884826020860161221a565b91505092915050565b6000813590506122d081613243565b92915050565b6000602082840312156122e857600080fd5b60006122f684828501612258565b91505092915050565b600080600080600060a0868803121561231757600080fd5b600061232588828901612258565b955050602086013567ffffffffffffffff81111561234257600080fd5b61234e88828901612297565b945050604061235f888289016122c1565b9350506060612370888289016122c1565b9250506080612381888289016122c1565b9150509295509295909350565b600080604083850312156123a157600080fd5b60006123af85828601612258565b92505060206123c0858286016122c1565b9150509250929050565b6000602082840312156123dc57600080fd5b600082013567ffffffffffffffff8111156123f657600080fd5b6124028482850161226d565b91505092915050565b6000806000806080858703121561242157600080fd5b600085013567ffffffffffffffff81111561243b57600080fd5b61244787828801612297565b9450506020612458878288016122c1565b9350506040612469878288016122c1565b925050606061247a878288016122c1565b91505092959194509250565b60006020828403121561249857600080fd5b60006124a6848285016122c1565b91505092915050565b60006124bb83836124f3565b60208301905092915050565b60006124d383836128ee565b905092915050565b60006124e7838361296b565b60208301905092915050565b6124fc81612e46565b82525050565b61250b81612e46565b82525050565b600061251c82612cd8565b6125268185612d2b565b935061253183612c93565b8060005b8381101561256257815161254988826124af565b975061255483612d04565b925050600181019050612535565b5085935050505092915050565b600061257a82612ce3565b6125848185612d3c565b93508360208202850161259685612ca3565b8060005b858110156125d257848403895281516125b385826124c7565b94506125be83612d11565b925060208a0199505060018101905061259a565b50829750879550505050505092915050565b60006125ef82612cee565b6125f98185612d4d565b935061260483612cb3565b8060005b8381101561263557815161261c88826124db565b975061262783612d1e565b925050600181019050612608565b5085935050505092915050565b6000815461264f81612ec4565b6126598186612d5e565b945060018216600081146126745760018114612685576126b8565b60ff198316865281860193506126b8565b61268e85612cc3565b60005b838110156126b057815481890152600182019150602081019050612691565b838801955050505b50505092915050565b60006126cc82612cf9565b6126d68185612d69565b93506126e6818560208601612e91565b6126ef81612fe3565b840191505092915050565b6000612707601883612d7a565b915061271282612ff4565b602082019050919050565b600061272a601c83612d7a565b91506127358261301d565b602082019050919050565b600061274d601483612d7a565b915061275882613046565b602082019050919050565b6000612770602183612d7a565b915061277b8261306f565b604082019050919050565b6000612793602183612d7a565b915061279e826130be565b604082019050919050565b60006127b6601883612d7a565b91506127c18261310d565b602082019050919050565b60006127d9600083612d5e565b91506127e482613136565b600082019050919050565b60006127fc602083612d7a565b915061280782613139565b602082019050919050565b600061281f601c83612d7a565b915061282a82613162565b602082019050919050565b6000612842601a83612d7a565b915061284d8261318b565b602082019050919050565b6000612865600f83612d7a565b9150612870826131b4565b602082019050919050565b6000612888602b83612d7a565b9150612893826131dd565b604082019050919050565b600060608301600083015184820360008601526128bb82826126c1565b91505060208301516128d0602086018261296b565b5060408301516128e3604086018261296b565b508091505092915050565b600060a083016000830151848203600086015261290b828261289e565b91505060208301518482036020860152612925828261289e565b915050604083015161293a604086018261296b565b50606083015161294d606086018261296b565b506080830151612960608086018261296b565b508091505092915050565b61297481612e78565b82525050565b61298381612e78565b82525050565b60006129958284612642565b915081905092915050565b60006129ab826127cc565b9150819050919050565b60006020820190506129ca6000830184612502565b92915050565b60006060820190506129e56000830186612502565b6129f26020830185612502565b6129ff604083018461297a565b949350505050565b6000604082019050612a1c6000830185612502565b612a29602083018461297a565b9392505050565b60006020820190508181036000830152612a4a8184612511565b905092915050565b60006020820190508181036000830152612a6c818461256f565b905092915050565b60006020820190508181036000830152612a8e81846125e4565b905092915050565b60006020820190508181036000830152612aaf816126fa565b9050919050565b60006020820190508181036000830152612acf8161271d565b9050919050565b60006020820190508181036000830152612aef81612740565b9050919050565b60006020820190508181036000830152612b0f81612763565b9050919050565b60006020820190508181036000830152612b2f81612786565b9050919050565b60006020820190508181036000830152612b4f816127a9565b9050919050565b60006020820190508181036000830152612b6f816127ef565b9050919050565b60006020820190508181036000830152612b8f81612812565b9050919050565b60006020820190508181036000830152612baf81612835565b9050919050565b60006020820190508181036000830152612bcf81612858565b9050919050565b60006020820190508181036000830152612bef8161287b565b9050919050565b6000602082019050612c0b600083018461297a565b92915050565b6000612c1b612c2c565b9050612c278282612ef6565b919050565b6000604051905090565b600067ffffffffffffffff821115612c5157612c50612fb4565b5b602082029050602081019050919050565b600067ffffffffffffffff821115612c7d57612c7c612fb4565b5b612c8682612fe3565b9050602081019050919050565b6000819050602082019050919050565b6000819050602082019050919050565b6000819050602082019050919050565b60008190508160005260206000209050919050565b600081519050919050565b600081519050919050565b600081519050919050565b600081519050919050565b6000602082019050919050565b6000602082019050919050565b6000602082019050919050565b600082825260208201905092915050565b600082825260208201905092915050565b600082825260208201905092915050565b600081905092915050565b600082825260208201905092915050565b600082825260208201905092915050565b6000612d9682612e78565b9150612da183612e78565b9250827fffffffffffffffffffffffffffffffffffffffffffffffffffffffffffffffff03821115612dd657612dd5612f27565b5b828201905092915050565b6000612dec82612e78565b9150612df783612e78565b925082612e0757612e06612f56565b5b828204905092915050565b6000612e1d82612e78565b9150612e2883612e78565b925082821015612e3b57612e3a612f27565b5b828203905092915050565b6000612e5182612e58565b9050919050565b600073ffffffffffffffffffffffffffffffffffffffff82169050919050565b6000819050919050565b82818337600083830152505050565b60005b83811015612eaf578082015181840152602081019050612e94565b83811115612ebe576000848401525b50505050565b60006002820490506001821680612edc57607f821691505b60208210811415612ef057612eef612f85565b5b50919050565b612eff82612fe3565b810181811067ffffffffffffffff82111715612f1e57612f1d612fb4565b5b80604052505050565b7f4e487b7100000000000000000000000000000000000000000000000000000000600052601160045260246000fd5b7f4e487b7100000000000000000000000000000000000000000000000000000000600052601260045260246000fd5b7f4e487b7100000000000000000000000000000000000000000000000000000000600052602260045260246000fd5b7f4e487b7100000000000000000000000000000000000000000000000000000000600052604160045260246000fd5b6000601f19601f8301169050919050565b7f45786368616e676520646f6573206e6f742065786973742e0000000000000000600082015250565b7f556e617574686f72697a65643a204d757374206265206f776e65722e00000000600082015250565b7f4661696c656420746f2073656e64204574686572000000000000000000000000600082015250565b7f5468652073656c6563746564207469657220646f6573206e6f7420657869737460008201527f2e00000000000000000000000000000000000000000000000000000000000000602082015250565b7f4e6f207175657374696f6e7320617661696c61626c6520746f2072656d6f766560008201527f2e00000000000000000000000000000000000000000000000000000000000000602082015250565b7f5175657374696f6e20646f6573206e6f742065786973742e0000000000000000600082015250565b50565b7f556e617574686f72697a65643a204d757374206e6f74206265206f776e65722e600082015250565b7f5468652074697020616d6f756e7420697320696e636f72726563742e00000000600082015250565b7f5175657374696f6e20616c726561647920616e7377657265642e000000000000600082015250565b7f4e6f2072652d656e7472616e63792e0000000000000000000000000000000000600082015250565b7f546865206465706f736974206973206e6f7420657175616c20746f207468652060008201527f746965722070726963652e000000000000000000000000000000000000000000602082015250565b61323581612e46565b811461324057600080fd5b50565b61324c81612e78565b811461325757600080fd5b5056fea264697066735822122076da514403f698687d44e9834bde777f3867b57ac8f8ab492cb0b37311216f7564736f6c63430008040033a26469706673582212200d777a315a42319bbf686c68ab701ffe581ce634b4286a39a1c0220a02b0560264736f6c63430008040033",
  "linkReferences": {},
  "deployedLinkReferences": {}
}