{
  "_format": "hh-sol-artifact-1",
  "contractName": "AskMiFactory",
  "sourceName": "contracts/askmi-ultimate/askmi-factory.sol",
  "abi": [
    {
      "inputs": [],
      "stateMutability": "nonpayable",
      "type": "constructor"
    },
    {
      "anonymous": false,
      "inputs": [
        {
          "indexed": false,
          "internalType": "address",
          "name": "askMi",
          "type": "address"
        }
      ],
      "name": "AskMiInstantiated",
      "type": "event"
    },
    {
      "inputs": [
        {
          "internalType": "address",
          "name": "owner",
          "type": "address"
        }
      ],
      "name": "getMyAskMi",
      "outputs": [
        {
          "internalType": "address",
          "name": "",
          "type": "address"
        }
      ],
      "stateMutability": "view",
      "type": "function"
    },
    {
      "inputs": [
        {
          "internalType": "address",
          "name": "functionsContract",
          "type": "address"
        },
        {
          "internalType": "address",
          "name": "tiersToken",
          "type": "address"
        },
        {
          "internalType": "address",
          "name": "tipToken",
          "type": "address"
        },
        {
          "internalType": "uint256[]",
          "name": "tiers",
          "type": "uint256[]"
        },
        {
          "internalType": "uint256",
          "name": "tip",
          "type": "uint256"
        },
        {
          "internalType": "uint256",
          "name": "removalFee",
          "type": "uint256"
        }
      ],
      "name": "instantiateAskMi",
      "outputs": [],
      "stateMutability": "nonpayable",
      "type": "function"
    }
  ],
  "bytecode": "0x608060405234801561001057600080fd5b5033600260006101000a81548173ffffffffffffffffffffffffffffffffffffffff021916908373ffffffffffffffffffffffffffffffffffffffff16021790555060008080600181540180825580915050600190039060005260206000200160009091909190916101000a81548173ffffffffffffffffffffffffffffffffffffffff021916908373ffffffffffffffffffffffffffffffffffffffff16021790555061329e806100c36000396000f3fe60806040523480156200001157600080fd5b50600436106200003a5760003560e01c80637840a87b146200003f578063ca97cb361462000075575b600080fd5b6200005d60048036038101906200005791906200044c565b62000095565b6040516200006c919062000662565b60405180910390f35b6200009360048036038101906200008d919062000478565b6200018e565b005b600080600160008473ffffffffffffffffffffffffffffffffffffffff1673ffffffffffffffffffffffffffffffffffffffff1681526020019081526020016000205490506000811162000120576040517f08c379a0000000000000000000000000000000000000000000000000000000008152600401620001179062000736565b60405180910390fd5b600081815481106200015b577f4e487b7100000000000000000000000000000000000000000000000000000000600052603260045260246000fd5b9060005260206000200160009054906101000a900473ffffffffffffffffffffffffffffffffffffffff16915050919050565b6000600160003373ffffffffffffffffffffffffffffffffffffffff1673ffffffffffffffffffffffffffffffffffffffff168152602001908152602001600020541462000213576040517f08c379a00000000000000000000000000000000000000000000000000000000081526004016200020a9062000714565b60405180910390fd5b600086600260009054906101000a900473ffffffffffffffffffffffffffffffffffffffff163388888888886040516200024d906200036e565b620002609897969594939291906200067f565b604051809103906000f0801580156200027d573d6000803e3d6000fd5b509050600080549050600160003373ffffffffffffffffffffffffffffffffffffffff1673ffffffffffffffffffffffffffffffffffffffff168152602001908152602001600020819055506000819080600181540180825580915050600190039060005260206000200160009091909190916101000a81548173ffffffffffffffffffffffffffffffffffffffff021916908373ffffffffffffffffffffffffffffffffffffffff1602179055507f853ffed38f1ea517c00ec790a694ac2338e70620f84d8b2057e4b9b8102f6cd6816040516200035d919062000662565b60405180910390a150505050505050565b6129c280620008a783390190565b6000620003936200038d846200078c565b62000758565b90508083825260208201905082856020860282011115620003b357600080fd5b60005b85811015620003e75781620003cc888262000435565b845260208401935060208301925050600181019050620003b6565b5050509392505050565b600081359050620004028162000872565b92915050565b600082601f8301126200041a57600080fd5b81356200042c8482602086016200037c565b91505092915050565b60008135905062000446816200088c565b92915050565b6000602082840312156200045f57600080fd5b60006200046f84828501620003f1565b91505092915050565b60008060008060008060c087890312156200049257600080fd5b6000620004a289828a01620003f1565b9650506020620004b589828a01620003f1565b9550506040620004c889828a01620003f1565b945050606087013567ffffffffffffffff811115620004e657600080fd5b620004f489828a0162000408565b93505060806200050789828a0162000435565b92505060a06200051a89828a0162000435565b9150509295509295509295565b600062000535838362000640565b60208301905092915050565b6200054c8162000805565b82525050565b60006200055f82620007cb565b6200056b8185620007e3565b93506200057883620007bb565b8060005b83811015620005af57815162000593888262000527565b9750620005a083620007d6565b9250506001810190506200057c565b5085935050505092915050565b6000620005cb600483620007f4565b91507f45525232000000000000000000000000000000000000000000000000000000006000830152602082019050919050565b60006200060d600483620007f4565b91507f45525231000000000000000000000000000000000000000000000000000000006000830152602082019050919050565b6200064b8162000839565b82525050565b6200065c8162000839565b82525050565b600060208201905062000679600083018462000541565b92915050565b60006101008201905062000697600083018b62000541565b620006a6602083018a62000541565b620006b5604083018962000541565b620006c4606083018862000541565b620006d3608083018762000541565b81810360a0830152620006e7818662000552565b9050620006f860c083018562000651565b6200070760e083018462000651565b9998505050505050505050565b600060208201905081810360008301526200072f81620005bc565b9050919050565b600060208201905081810360008301526200075181620005fe565b9050919050565b6000604051905081810181811067ffffffffffffffff8211171562000782576200078162000843565b5b8060405250919050565b600067ffffffffffffffff821115620007aa57620007a962000843565b5b602082029050602081019050919050565b6000819050602082019050919050565b600081519050919050565b6000602082019050919050565b600082825260208201905092915050565b600082825260208201905092915050565b6000620008128262000819565b9050919050565b600073ffffffffffffffffffffffffffffffffffffffff82169050919050565b6000819050919050565b7f4e487b7100000000000000000000000000000000000000000000000000000000600052604160045260246000fd5b6200087d8162000805565b81146200088957600080fd5b50565b620008978162000839565b8114620008a357600080fd5b5056fe60806040523480156200001157600080fd5b50604051620029c2380380620029c28339818101604052810190620000379190620005cf565b86600360006101000a81548173ffffffffffffffffffffffffffffffffffffffff021916908373ffffffffffffffffffffffffffffffffffffffff160217905550856000806101000a81548173ffffffffffffffffffffffffffffffffffffffff021916908373ffffffffffffffffffffffffffffffffffffffff16021790555060c860046001018190555060008873ffffffffffffffffffffffffffffffffffffffff1682604051602401620000ef919062000912565b6040516020818303038152906040527f65b1b48e000000000000000000000000000000000000000000000000000000007bffffffffffffffffffffffffffffffffffffffffffffffffffffffff19166020820180517bffffffffffffffffffffffffffffffffffffffffffffffffffffffff83818316178352505050506040516200017b91906200085f565b600060405180830381855af49150503d8060008114620001b8576040519150601f19603f3d011682016040523d82523d6000602084013e620001bd565b606091505b505090508062000204576040517f08c379a0000000000000000000000000000000000000000000000000000000008152600401620001fb90620008f0565b60405180910390fd5b60008973ffffffffffffffffffffffffffffffffffffffff1687866040516024016200023292919062000878565b6040516020818303038152906040527f3080e2ed000000000000000000000000000000000000000000000000000000007bffffffffffffffffffffffffffffffffffffffffffffffffffffffff19166020820180517bffffffffffffffffffffffffffffffffffffffffffffffffffffffff8381831617835250505050604051620002be91906200085f565b600060405180830381855af49150503d8060008114620002fb576040519150601f19603f3d011682016040523d82523d6000602084013e62000300565b606091505b505090508062000347576040517f08c379a00000000000000000000000000000000000000000000000000000000081526004016200033e90620008ac565b60405180910390fd5b60008a73ffffffffffffffffffffffffffffffffffffffff168588604051602401620003759291906200092f565b6040516020818303038152906040527ff2bcd515000000000000000000000000000000000000000000000000000000007bffffffffffffffffffffffffffffffffffffffffffffffffffffffff19166020820180517bffffffffffffffffffffffffffffffffffffffffffffffffffffffff83818316178352505050506040516200040191906200085f565b600060405180830381855af49150503d80600081146200043e576040519150601f19603f3d011682016040523d82523d6000602084013e62000443565b606091505b50509050806200048a576040517f08c379a00000000000000000000000000000000000000000000000000000000081526004016200048190620008ce565b60405180910390fd5b600660009080600181540180825580915050600190039060005260206000200160009091909190916101000a81548173ffffffffffffffffffffffffffffffffffffffff021916908373ffffffffffffffffffffffffffffffffffffffff160217905550505050505050505050505062000af6565b600062000516620005108462000990565b6200095c565b905080838252602082019050828560208602820111156200053657600080fd5b60005b858110156200056a57816200054f8882620005b8565b84526020840193506020830192505060018101905062000539565b5050509392505050565b600081519050620005858162000ac2565b92915050565b600082601f8301126200059d57600080fd5b8151620005af848260208601620004ff565b91505092915050565b600081519050620005c98162000adc565b92915050565b600080600080600080600080610100898b031215620005ed57600080fd5b6000620005fd8b828c0162000574565b9850506020620006108b828c0162000574565b9750506040620006238b828c0162000574565b9650506060620006368b828c0162000574565b9550506080620006498b828c0162000574565b94505060a089015167ffffffffffffffff8111156200066757600080fd5b620006758b828c016200058b565b93505060c0620006888b828c01620005b8565b92505060e06200069b8b828c01620005b8565b9150509295985092959890939650565b6000620006b983836200083d565b60208301905092915050565b620006d08162000a1f565b82525050565b6000620006e382620009cf565b620006ef8185620009f2565b9350620006fc83620009bf565b8060005b8381101562000733578151620007178882620006ab565b97506200072483620009e5565b92505060018101905062000700565b5085935050505092915050565b60006200074d82620009da565b62000759818562000a03565b93506200076b81856020860162000a5d565b80840191505092915050565b60006200078660148362000a0e565b91507f75706461746554696572732829206661696c65640000000000000000000000006000830152602082019050919050565b6000620007c860128362000a0e565b91507f7570646174655469702829206661696c656400000000000000000000000000006000830152602082019050919050565b60006200080a60198362000a0e565b91507f75706461746552656d6f76616c4665652829206661696c6564000000000000006000830152602082019050919050565b620008488162000a53565b82525050565b620008598162000a53565b82525050565b60006200086d828462000740565b915081905092915050565b60006040820190506200088f6000830185620006c5565b8181036020830152620008a38184620006d6565b90509392505050565b60006020820190508181036000830152620008c78162000777565b9050919050565b60006020820190508181036000830152620008e981620007b9565b9050919050565b600060208201905081810360008301526200090b81620007fb565b9050919050565b60006020820190506200092960008301846200084e565b92915050565b60006040820190506200094660008301856200084e565b620009556020830184620006c5565b9392505050565b6000604051905081810181811067ffffffffffffffff8211171562000986576200098562000a93565b5b8060405250919050565b600067ffffffffffffffff821115620009ae57620009ad62000a93565b5b602082029050602081019050919050565b6000819050602082019050919050565b600081519050919050565b600081519050919050565b6000602082019050919050565b600082825260208201905092915050565b600081905092915050565b600082825260208201905092915050565b600062000a2c8262000a33565b9050919050565b600073ffffffffffffffffffffffffffffffffffffffff82169050919050565b6000819050919050565b60005b8381101562000a7d57808201518184015260208101905062000a60565b8381111562000a8d576000848401525b50505050565b7f4e487b7100000000000000000000000000000000000000000000000000000000600052604160045260246000fd5b62000acd8162000a1f565b811462000ad957600080fd5b50565b62000ae78162000a53565b811462000af357600080fd5b50565b611ebc8062000b066000396000f3fe6080604052600436106100e85760003560e01c8063709acc751161008a578063b2bdfa7b11610059578063b2bdfa7b146102d1578063cef3d8aa146102fc578063d212a69a14610328578063e3a490c714610354576100e8565b8063709acc75146102295780638628f26114610252578063b002249d1461027b578063b014a3d4146102a6576100e8565b806357013023116100c6578063570130231461015d57806359e5fd04146101865780635eaf8b97146101af5780636a064d2d146101ec576100e8565b806313e13c5a146100ed57806345dd6ddd146101165780634d11284714610132575b600080fd5b3480156100f957600080fd5b50610114600480360381019061010f91906113c8565b610370565b005b610130600480360381019061012b91906112d8565b6104b0565b005b34801561013e57600080fd5b506101476105f9565b6040516101549190611a65565b60405180910390f35b34801561016957600080fd5b50610184600480360381019061017f9190611271565b61060c565b005b34801561019257600080fd5b506101ad60048036038101906101a89190611379565b61074c565b005b3480156101bb57600080fd5b506101d660048036038101906101d19190611248565b61088c565b6040516101e39190611a43565b60405180910390f35b3480156101f857600080fd5b50610213600480360381019061020e9190611248565b610923565b6040516102209190611a21565b60405180910390f35b34801561023557600080fd5b50610250600480360381019061024b9190611248565b610ba9565b005b34801561025e57600080fd5b50610279600480360381019061027491906112d8565b610cda565b005b34801561028757600080fd5b50610290610e5c565b60405161029d91906119ff565b60405180910390f35b3480156102b257600080fd5b506102bb610eea565b6040516102c891906119ff565b60405180910390f35b3480156102dd57600080fd5b506102e6610f78565b6040516102f39190611931565b60405180910390f35b34801561030857600080fd5b50610311610f9c565b60405161031f9291906119d6565b60405180910390f35b34801561033457600080fd5b5061033d610fce565b60405161034b929190611b89565b60405180910390f35b61036e60048036038101906103699190611379565b610fe0565b005b60008373ffffffffffffffffffffffffffffffffffffffff16838360405160240161039c929190611b60565b6040516020818303038152906040527ff2bcd515000000000000000000000000000000000000000000000000000000007bffffffffffffffffffffffffffffffffffffffffffffffffffffffff19166020820180517bffffffffffffffffffffffffffffffffffffffffffffffffffffffff8381831617835250505050604051610426919061191a565b600060405180830381855af49150503d8060008114610461576040519150601f19603f3d011682016040523d82523d6000602084013e610466565b606091505b50509050806104aa576040517f08c379a00000000000000000000000000000000000000000000000000000000081526004016104a190611b20565b60405180910390fd5b50505050565b60008673ffffffffffffffffffffffffffffffffffffffff1686868686866040516024016104e295949392919061197c565b6040516020818303038152906040527ff65bf460000000000000000000000000000000000000000000000000000000007bffffffffffffffffffffffffffffffffffffffffffffffffffffffff19166020820180517bffffffffffffffffffffffffffffffffffffffffffffffffffffffff838183161783525050505060405161056c919061191a565b600060405180830381855af49150503d80600081146105a7576040519150601f19603f3d011682016040523d82523d6000602084013e6105ac565b606091505b50509050806105f0576040517f08c379a00000000000000000000000000000000000000000000000000000000081526004016105e790611ac0565b60405180910390fd5b50505050505050565b600060159054906101000a900460ff1681565b60008373ffffffffffffffffffffffffffffffffffffffff16838360405160240161063892919061194c565b6040516020818303038152906040527f3080e2ed000000000000000000000000000000000000000000000000000000007bffffffffffffffffffffffffffffffffffffffffffffffffffffffff19166020820180517bffffffffffffffffffffffffffffffffffffffffffffffffffffffff83818316178352505050506040516106c2919061191a565b600060405180830381855af49150503d80600081146106fd576040519150601f19603f3d011682016040523d82523d6000602084013e610702565b606091505b5050905080610746576040517f08c379a000000000000000000000000000000000000000000000000000000000815260040161073d90611a80565b60405180910390fd5b50505050565b60008373ffffffffffffffffffffffffffffffffffffffff1683836040516024016107789291906119d6565b6040516020818303038152906040527fabe7f1ab000000000000000000000000000000000000000000000000000000007bffffffffffffffffffffffffffffffffffffffffffffffffffffffff19166020820180517bffffffffffffffffffffffffffffffffffffffffffffffffffffffff8381831617835250505050604051610802919061191a565b600060405180830381855af49150503d806000811461083d576040519150601f19603f3d011682016040523d82523d6000602084013e610842565b606091505b5050905080610886576040517f08c379a000000000000000000000000000000000000000000000000000000000815260040161087d90611aa0565b60405180910390fd5b50505050565b6060600b60008373ffffffffffffffffffffffffffffffffffffffff1673ffffffffffffffffffffffffffffffffffffffff16815260200190815260200160002080548060200260200160405190810160405280929190818152602001828054801561091757602002820191906000526020600020905b815481526020019060010190808311610903575b50505050509050919050565b6060600860008373ffffffffffffffffffffffffffffffffffffffff1673ffffffffffffffffffffffffffffffffffffffff168152602001908152602001600020805480602002602001604051908101604052809291908181526020016000905b82821015610b9e57838290600052602060002090600a02016040518060c0016040529081600082016040518060600160405290816000820180546109c790611db7565b80601f01602080910402602001604051908101604052809291908181526020018280546109f390611db7565b8015610a405780601f10610a1557610100808354040283529160200191610a40565b820191906000526020600020905b815481529060010190602001808311610a2357829003601f168201915b5050505050815260200160018201548152602001600282015481525050815260200160038201604051806060016040529081600082018054610a8190611db7565b80601f0160208091040260200160405190810160405280929190818152602001828054610aad90611db7565b8015610afa5780601f10610acf57610100808354040283529160200191610afa565b820191906000526020600020905b815481529060010190602001808311610add57829003601f168201915b505050505081526020016001820154815260200160028201548152505081526020016006820160009054906101000a900473ffffffffffffffffffffffffffffffffffffffff1673ffffffffffffffffffffffffffffffffffffffff1673ffffffffffffffffffffffffffffffffffffffff168152602001600782015481526020016008820154815260200160098201548152505081526020019060010190610984565b505050509050919050565b60008173ffffffffffffffffffffffffffffffffffffffff166040516024016040516020818303038152906040527f621b99a7000000000000000000000000000000000000000000000000000000007bffffffffffffffffffffffffffffffffffffffffffffffffffffffff19166020820180517bffffffffffffffffffffffffffffffffffffffffffffffffffffffff8381831617835250505050604051610c52919061191a565b600060405180830381855af49150503d8060008114610c8d576040519150601f19603f3d011682016040523d82523d6000602084013e610c92565b606091505b5050905080610cd6576040517f08c379a0000000000000000000000000000000000000000000000000000000008152600401610ccd90611ae0565b60405180910390fd5b5050565b60008673ffffffffffffffffffffffffffffffffffffffff168686868686604051602401610d0c95949392919061197c565b6040516020818303038152906040527fe4c0967c000000000000000000000000000000000000000000000000000000007bffffffffffffffffffffffffffffffffffffffffffffffffffffffff19166020820180517bffffffffffffffffffffffffffffffffffffffffffffffffffffffff8381831617835250505050604051610d96919061191a565b600060405180830381855af49150503d8060008114610dd1576040519150601f19603f3d011682016040523d82523d6000602084013e610dd6565b606091505b5050905080610e1a576040517f08c379a0000000000000000000000000000000000000000000000000000000008152600401610e1190611b40565b60405180910390fd5b7f429c694aa6647ed579b2576c88071af439f05fe6dc41964661e1bf0937f324c18683604051610e4b9291906119d6565b60405180910390a150505050505050565b60606009805480602002602001604051908101604052809291908181526020018280548015610ee057602002820191906000526020600020905b8160009054906101000a900473ffffffffffffffffffffffffffffffffffffffff1673ffffffffffffffffffffffffffffffffffffffff1681526020019060010190808311610e96575b5050505050905090565b60606006805480602002602001604051908101604052809291908181526020018280548015610f6e57602002820191906000526020600020905b8160009054906101000a900473ffffffffffffffffffffffffffffffffffffffff1673ffffffffffffffffffffffffffffffffffffffff1681526020019060010190808311610f24575b5050505050905090565b60008054906101000a900473ffffffffffffffffffffffffffffffffffffffff1681565b60018060000160009054906101000a900473ffffffffffffffffffffffffffffffffffffffff16908060010154905082565b60048060000154908060010154905082565b60008373ffffffffffffffffffffffffffffffffffffffff16838360405160240161100c9291906119d6565b6040516020818303038152906040527f05beb077000000000000000000000000000000000000000000000000000000007bffffffffffffffffffffffffffffffffffffffffffffffffffffffff19166020820180517bffffffffffffffffffffffffffffffffffffffffffffffffffffffff8381831617835250505050604051611096919061191a565b600060405180830381855af49150503d80600081146110d1576040519150601f19603f3d011682016040523d82523d6000602084013e6110d6565b606091505b505090508061111a576040517f08c379a000000000000000000000000000000000000000000000000000000000815260040161111190611b00565b60405180910390fd5b50505050565b600061113361112e84611be3565b611bb2565b9050808382526020820190508285602086028201111561115257600080fd5b60005b8581101561118257816111688882611233565b845260208401935060208301925050600181019050611155565b5050509392505050565b600061119f61119a84611c0f565b611bb2565b9050828152602081018484840111156111b757600080fd5b6111c2848285611d75565b509392505050565b6000813590506111d981611e58565b92915050565b600082601f8301126111f057600080fd5b8135611200848260208601611120565b91505092915050565b600082601f83011261121a57600080fd5b813561122a84826020860161118c565b91505092915050565b60008135905061124281611e6f565b92915050565b60006020828403121561125a57600080fd5b6000611268848285016111ca565b91505092915050565b60008060006060848603121561128657600080fd5b6000611294868287016111ca565b93505060206112a5868287016111ca565b925050604084013567ffffffffffffffff8111156112c257600080fd5b6112ce868287016111df565b9150509250925092565b60008060008060008060c087890312156112f157600080fd5b60006112ff89828a016111ca565b965050602061131089828a016111ca565b955050604087013567ffffffffffffffff81111561132d57600080fd5b61133989828a01611209565b945050606061134a89828a01611233565b935050608061135b89828a01611233565b92505060a061136c89828a01611233565b9150509295509295509295565b60008060006060848603121561138e57600080fd5b600061139c868287016111ca565b93505060206113ad868287016111ca565b92505060406113be86828701611233565b9150509250925092565b6000806000606084860312156113dd57600080fd5b60006113eb868287016111ca565b93505060206113fc86828701611233565b925050604061140d868287016111ca565b9150509250925092565b6000611423838361145b565b60208301905092915050565b600061143b838361186c565b905092915050565b600061144f83836118fc565b60208301905092915050565b61146481611d2d565b82525050565b61147381611d2d565b82525050565b600061148482611c6f565b61148e8185611ccd565b935061149983611c3f565b8060005b838110156114ca5781516114b18882611417565b97506114bc83611ca6565b92505060018101905061149d565b5085935050505092915050565b60006114e282611c7a565b6114ec8185611cde565b9350836020820285016114fe85611c4f565b8060005b8581101561153a578484038952815161151b858261142f565b945061152683611cb3565b925060208a01995050600181019050611502565b50829750879550505050505092915050565b600061155782611c85565b6115618185611cef565b935061156c83611c5f565b8060005b8381101561159d5781516115848882611443565b975061158f83611cc0565b925050600181019050611570565b5085935050505092915050565b6115b381611d3f565b82525050565b60006115c482611c90565b6115ce8185611d00565b93506115de818560208601611d84565b80840191505092915050565b60006115f582611c9b565b6115ff8185611d0b565b935061160f818560208601611d84565b61161881611e47565b840191505092915050565b600061162e82611c9b565b6116388185611d1c565b9350611648818560208601611d84565b61165181611e47565b840191505092915050565b6000611669601483611d1c565b91507f75706461746554696572732829206661696c65640000000000000000000000006000830152602082019050919050565b60006116a9600f83611d1c565b91507f72656d6f76652829206661696c656400000000000000000000000000000000006000830152602082019050919050565b60006116e9600c83611d1c565b91507f61736b2829206661696c656400000000000000000000000000000000000000006000830152602082019050919050565b6000611729601783611d1c565b91507f746f67676c6544697361626c65642829206661696c65640000000000000000006000830152602082019050919050565b6000611769601183611d1c565b91507f69737375655469702829206661696c65640000000000000000000000000000006000830152602082019050919050565b60006117a9601283611d1c565b91507f7570646174655469702829206661696c656400000000000000000000000000006000830152602082019050919050565b60006117e9601083611d1c565b91507f726573706f6e642829206661696c6564000000000000000000000000000000006000830152602082019050919050565b6000606083016000830151848203600086015261183982826115ea565b915050602083015161184e60208601826118fc565b50604083015161186160408601826118fc565b508091505092915050565b600060c0830160008301518482036000860152611889828261181c565b915050602083015184820360208601526118a3828261181c565b91505060408301516118b8604086018261145b565b5060608301516118cb60608601826118fc565b5060808301516118de60808601826118fc565b5060a08301516118f160a08601826118fc565b508091505092915050565b61190581611d6b565b82525050565b61191481611d6b565b82525050565b600061192682846115b9565b915081905092915050565b6000602082019050611946600083018461146a565b92915050565b6000604082019050611961600083018561146a565b8181036020830152611973818461154c565b90509392505050565b600060a082019050611991600083018861146a565b81810360208301526119a38187611623565b90506119b2604083018661190b565b6119bf606083018561190b565b6119cc608083018461190b565b9695505050505050565b60006040820190506119eb600083018561146a565b6119f8602083018461190b565b9392505050565b60006020820190508181036000830152611a198184611479565b905092915050565b60006020820190508181036000830152611a3b81846114d7565b905092915050565b60006020820190508181036000830152611a5d818461154c565b905092915050565b6000602082019050611a7a60008301846115aa565b92915050565b60006020820190508181036000830152611a998161165c565b9050919050565b60006020820190508181036000830152611ab98161169c565b9050919050565b60006020820190508181036000830152611ad9816116dc565b9050919050565b60006020820190508181036000830152611af98161171c565b9050919050565b60006020820190508181036000830152611b198161175c565b9050919050565b60006020820190508181036000830152611b398161179c565b9050919050565b60006020820190508181036000830152611b59816117dc565b9050919050565b6000604082019050611b75600083018561190b565b611b82602083018461146a565b9392505050565b6000604082019050611b9e600083018561190b565b611bab602083018461190b565b9392505050565b6000604051905081810181811067ffffffffffffffff82111715611bd957611bd8611e18565b5b8060405250919050565b600067ffffffffffffffff821115611bfe57611bfd611e18565b5b602082029050602081019050919050565b600067ffffffffffffffff821115611c2a57611c29611e18565b5b601f19601f8301169050602081019050919050565b6000819050602082019050919050565b6000819050602082019050919050565b6000819050602082019050919050565b600081519050919050565b600081519050919050565b600081519050919050565b600081519050919050565b600081519050919050565b6000602082019050919050565b6000602082019050919050565b6000602082019050919050565b600082825260208201905092915050565b600082825260208201905092915050565b600082825260208201905092915050565b600081905092915050565b600082825260208201905092915050565b600082825260208201905092915050565b6000611d3882611d4b565b9050919050565b60008115159050919050565b600073ffffffffffffffffffffffffffffffffffffffff82169050919050565b6000819050919050565b82818337600083830152505050565b60005b83811015611da2578082015181840152602081019050611d87565b83811115611db1576000848401525b50505050565b60006002820490506001821680611dcf57607f821691505b60208210811415611de357611de2611de9565b5b50919050565b7f4e487b7100000000000000000000000000000000000000000000000000000000600052602260045260246000fd5b7f4e487b7100000000000000000000000000000000000000000000000000000000600052604160045260246000fd5b6000601f19601f8301169050919050565b611e6181611d2d565b8114611e6c57600080fd5b50565b611e7881611d6b565b8114611e8357600080fd5b5056fea26469706673582212205fae03f9d0805bf1ef68a90ea40ed8e3f765a4ea0d3743bcc146cd714db5748c64736f6c63430008000033a264697066735822122048d01746490a61483e859ef3a099c438a263b361d62b4c6e662bdd6585e4297d64736f6c63430008000033",
  "linkReferences": {},
  "deployedLinkReferences": {}
}