{
  "_format": "hh-sol-artifact-1",
  "contractName": "AskMiFunctions",
  "sourceName": "contracts/askmi-functions.sol",
  "abi": [
    {
      "inputs": [],
      "name": "_disabled",
      "outputs": [
        {
          "internalType": "bool",
          "name": "",
          "type": "bool"
        }
      ],
      "stateMutability": "view",
      "type": "function"
    },
    {
      "inputs": [],
      "name": "_fees",
      "outputs": [
        {
          "internalType": "uint256",
          "name": "removal",
          "type": "uint256"
        },
        {
          "internalType": "uint256",
          "name": "developer",
          "type": "uint256"
        }
      ],
      "stateMutability": "view",
      "type": "function"
    },
    {
      "inputs": [],
      "name": "_owner",
      "outputs": [
        {
          "internalType": "address",
          "name": "",
          "type": "address"
        }
      ],
      "stateMutability": "view",
      "type": "function"
    },
    {
      "inputs": [],
      "name": "_tip",
      "outputs": [
        {
          "internalType": "address",
          "name": "token",
          "type": "address"
        },
        {
          "internalType": "uint256",
          "name": "tip",
          "type": "uint256"
        }
      ],
      "stateMutability": "view",
      "type": "function"
    },
    {
      "inputs": [
        {
          "internalType": "address",
          "name": "token",
          "type": "address"
        },
        {
          "internalType": "string",
          "name": "digest",
          "type": "string"
        },
        {
          "internalType": "uint256",
          "name": "hashFunction",
          "type": "uint256"
        },
        {
          "internalType": "uint256",
          "name": "size",
          "type": "uint256"
        },
        {
          "internalType": "uint256",
          "name": "index",
          "type": "uint256"
        }
      ],
      "name": "ask",
      "outputs": [],
      "stateMutability": "payable",
      "type": "function"
    },
    {
      "inputs": [
        {
          "internalType": "address",
          "name": "questioner",
          "type": "address"
        },
        {
          "internalType": "uint256",
          "name": "index",
          "type": "uint256"
        }
      ],
      "name": "issueTip",
      "outputs": [],
      "stateMutability": "payable",
      "type": "function"
    },
    {
      "inputs": [
        {
          "internalType": "address",
          "name": "questioner",
          "type": "address"
        },
        {
          "internalType": "uint256",
          "name": "index",
          "type": "uint256"
        }
      ],
      "name": "remove",
      "outputs": [],
      "stateMutability": "nonpayable",
      "type": "function"
    },
    {
      "inputs": [
        {
          "internalType": "address",
          "name": "questioner",
          "type": "address"
        },
        {
          "internalType": "string",
          "name": "digest",
          "type": "string"
        },
        {
          "internalType": "uint256",
          "name": "hashFunction",
          "type": "uint256"
        },
        {
          "internalType": "uint256",
          "name": "size",
          "type": "uint256"
        },
        {
          "internalType": "uint256",
          "name": "index",
          "type": "uint256"
        }
      ],
      "name": "respond",
      "outputs": [],
      "stateMutability": "nonpayable",
      "type": "function"
    },
    {
      "inputs": [],
      "name": "toggleDisabled",
      "outputs": [],
      "stateMutability": "nonpayable",
      "type": "function"
    },
    {
      "inputs": [
        {
          "internalType": "uint256",
          "name": "removalFee",
          "type": "uint256"
        }
      ],
      "name": "updateRemovalFee",
      "outputs": [],
      "stateMutability": "nonpayable",
      "type": "function"
    },
    {
      "inputs": [
        {
          "internalType": "address",
          "name": "token",
          "type": "address"
        },
        {
          "internalType": "uint256[]",
          "name": "tiers",
          "type": "uint256[]"
        }
      ],
      "name": "updateTiers",
      "outputs": [],
      "stateMutability": "nonpayable",
      "type": "function"
    },
    {
      "inputs": [
        {
          "internalType": "uint256",
          "name": "tip",
          "type": "uint256"
        },
        {
          "internalType": "address",
          "name": "token",
          "type": "address"
        }
      ],
      "name": "updateTip",
      "outputs": [],
      "stateMutability": "nonpayable",
      "type": "function"
    }
  ],
  "bytecode": "0x608060405234801561001057600080fd5b506143fa806100206000396000f3fe6080604052600436106100a75760003560e01c8063b2bdfa7b11610064578063b2bdfa7b14610185578063cef3d8aa146101b0578063d212a69a146101dc578063e4c0967c14610208578063f2bcd51514610231578063f65bf4601461025a576100a7565b806305beb077146100ac5780633080e2ed146100c85780634d112847146100f1578063621b99a71461011c57806365b1b48e14610133578063abe7f1ab1461015c575b600080fd5b6100c660048036038101906100c191906136e3565b610276565b005b3480156100d457600080fd5b506100ef60048036038101906100ea9190613600565b610a7f565b005b3480156100fd57600080fd5b5061010661103b565b6040516101139190613d9a565b60405180910390f35b34801561012857600080fd5b5061013161104e565b005b34801561013f57600080fd5b5061015a60048036038101906101559190613748565b611108565b005b34801561016857600080fd5b50610183600480360381019061017e91906136e3565b6111e8565b005b34801561019157600080fd5b5061019a6120d4565b6040516101a79190613d1f565b60405180910390f35b3480156101bc57600080fd5b506101c56120f8565b6040516101d3929190613d71565b60405180910390f35b3480156101e857600080fd5b506101f161212a565b6040516101ff929190613ff5565b60405180910390f35b34801561021457600080fd5b5061022f600480360381019061022a9190613654565b61213c565b005b34801561023d57600080fd5b5061025860048036038101906102539190613771565b612bad565b005b610274600480360381019061026f9190613654565b612c32565b005b60008054906101000a900473ffffffffffffffffffffffffffffffffffffffff1673ffffffffffffffffffffffffffffffffffffffff163373ffffffffffffffffffffffffffffffffffffffff161415610305576040517f08c379a00000000000000000000000000000000000000000000000000000000081526004016102fc90613f95565b60405180910390fd5b600060018001541161034c576040517f08c379a000000000000000000000000000000000000000000000000000000000815260040161034390613dd5565b60405180910390fd5b6000600860008473ffffffffffffffffffffffffffffffffffffffff1673ffffffffffffffffffffffffffffffffffffffff1681526020019081526020016000209050808054905082106103d5576040517f08c379a00000000000000000000000000000000000000000000000000000000081526004016103cc90613db5565b60405180910390fd5b6000818381548110610410577f4e487b7100000000000000000000000000000000000000000000000000000000600052603260045260246000fd5b90600052602060002090600a020160060160009054906101000a900473ffffffffffffffffffffffffffffffffffffffff169050600060018001549050600073ffffffffffffffffffffffffffffffffffffffff16600160000160009054906101000a900473ffffffffffffffffffffffffffffffffffffffff1673ffffffffffffffffffffffffffffffffffffffff1614156105bc578034146104e9576040517f08c379a00000000000000000000000000000000000000000000000000000000081526004016104e090613f35565b60405180910390fd5b60008060009054906101000a900473ffffffffffffffffffffffffffffffffffffffff1673ffffffffffffffffffffffffffffffffffffffff163460405161053090613d0a565b60006040518083038185875af1925050503d806000811461056d576040519150601f19603f3d011682016040523d82523d6000602084013e610572565b606091505b50509050806105b6576040517f08c379a00000000000000000000000000000000000000000000000000000000081526004016105ad90613f15565b60405180910390fd5b506106b1565b60008290508073ffffffffffffffffffffffffffffffffffffffff166323b872dd3360008054906101000a900473ffffffffffffffffffffffffffffffffffffffff16856040518463ffffffff1660e01b815260040161061e93929190613d3a565b602060405180830381600087803b15801561063857600080fd5b505af115801561064c573d6000803e3d6000fd5b505050506040513d601f19601f82011682018060405250810190610670919061371f565b6106af576040517f08c379a00000000000000000000000000000000000000000000000000000000081526004016106a690613e15565b60405180910390fd5b505b60008385815481106106ec577f4e487b7100000000000000000000000000000000000000000000000000000000600052603260045260246000fd5b90600052602060002090600a02016040518060c00160405290816000820160405180606001604052908160008201805461072590614248565b80601f016020809104026020016040519081016040528092919081815260200182805461075190614248565b801561079e5780601f106107735761010080835404028352916020019161079e565b820191906000526020600020905b81548152906001019060200180831161078157829003601f168201915b50505050508152602001600182015481526020016002820154815250508152602001600382016040518060600160405290816000820180546107df90614248565b80601f016020809104026020016040519081016040528092919081815260200182805461080b90614248565b80156108585780601f1061082d57610100808354040283529160200191610858565b820191906000526020600020905b81548152906001019060200180831161083b57829003601f168201915b505050505081526020016001820154815260200160028201548152505081526020016006820160009054906101000a900473ffffffffffffffffffffffffffffffffffffffff1673ffffffffffffffffffffffffffffffffffffffff1673ffffffffffffffffffffffffffffffffffffffff16815260200160078201548152602001600882015481526020016009820154815250509050600184868154811061092a577f4e487b7100000000000000000000000000000000000000000000000000000000600052603260045260246000fd5b90600052602060002090600a02016009015461094691906140dc565b8160a001818152505080848681548110610989577f4e487b7100000000000000000000000000000000000000000000000000000000600052603260045260246000fd5b90600052602060002090600a020160008201518160000160008201518160000190805190602001906109bc929190613372565b506020820151816001015560408201518160020155505060208201518160030160008201518160000190805190602001906109f8929190613372565b506020820151816001015560408201518160020155505060408201518160060160006101000a81548173ffffffffffffffffffffffffffffffffffffffff021916908373ffffffffffffffffffffffffffffffffffffffff160217905550606082015181600701556080820151816008015560a08201518160090155905050505050505050565b60008054906101000a900473ffffffffffffffffffffffffffffffffffffffff1673ffffffffffffffffffffffffffffffffffffffff163373ffffffffffffffffffffffffffffffffffffffff1614610b0d576040517f08c379a0000000000000000000000000000000000000000000000000000000008152600401610b0490613fb5565b60405180910390fd5b6000815190506000811415610df85781600b60008573ffffffffffffffffffffffffffffffffffffffff1673ffffffffffffffffffffffffffffffffffffffff1681526020019081526020016000209080519060200190610b6f9291906133f8565b50600060098054905014610df35760016009805490501415610bfd576009805480610bc3577f4e487b7100000000000000000000000000000000000000000000000000000000600052603160045260246000fd5b6001900381819060005260206000200160006101000a81549073ffffffffffffffffffffffffffffffffffffffff02191690559055610df2565b600060096001600980549050610c1391906141bd565b81548110610c4a577f4e487b7100000000000000000000000000000000000000000000000000000000600052603260045260246000fd5b9060005260206000200160009054906101000a900473ffffffffffffffffffffffffffffffffffffffff1690506000600a60008673ffffffffffffffffffffffffffffffffffffffff1673ffffffffffffffffffffffffffffffffffffffff16815260200190815260200160002054905080600a60008473ffffffffffffffffffffffffffffffffffffffff1673ffffffffffffffffffffffffffffffffffffffff168152602001908152602001600020819055508160098281548110610d3a577f4e487b7100000000000000000000000000000000000000000000000000000000600052603260045260246000fd5b9060005260206000200160006101000a81548173ffffffffffffffffffffffffffffffffffffffff021916908373ffffffffffffffffffffffffffffffffffffffff1602179055506009805480610dba577f4e487b7100000000000000000000000000000000000000000000000000000000600052603160045260246000fd5b6001900381819060005260206000200160006101000a81549073ffffffffffffffffffffffffffffffffffffffff0219169055905550505b5b611036565b6000600b60008573ffffffffffffffffffffffffffffffffffffffff1673ffffffffffffffffffffffffffffffffffffffff168152602001908152602001600020805490501415610ef057600980549050600a60008573ffffffffffffffffffffffffffffffffffffffff1673ffffffffffffffffffffffffffffffffffffffff168152602001908152602001600020819055506009839080600181540180825580915050600190039060005260206000200160009091909190916101000a81548173ffffffffffffffffffffffffffffffffffffffff021916908373ffffffffffffffffffffffffffffffffffffffff1602179055505b600081118015610f005750600a81105b610f3f576040517f08c379a0000000000000000000000000000000000000000000000000000000008152600401610f3690613df5565b60405180910390fd5b60005b81811015610fe0576000838281518110610f85577f4e487b7100000000000000000000000000000000000000000000000000000000600052603260045260246000fd5b602002602001015111610fcd576040517f08c379a0000000000000000000000000000000000000000000000000000000008152600401610fc490613e55565b60405180910390fd5b8080610fd89061427a565b915050610f42565b5081600b60008573ffffffffffffffffffffffffffffffffffffffff1673ffffffffffffffffffffffffffffffffffffffff16815260200190815260200160002090805190602001906110349291906133f8565b505b505050565b600060159054906101000a900460ff1681565b60008054906101000a900473ffffffffffffffffffffffffffffffffffffffff1673ffffffffffffffffffffffffffffffffffffffff163373ffffffffffffffffffffffffffffffffffffffff16146110dc576040517f08c379a00000000000000000000000000000000000000000000000000000000081526004016110d390613fb5565b60405180910390fd5b600060159054906101000a900460ff1615600060156101000a81548160ff021916908315150217905550565b60008054906101000a900473ffffffffffffffffffffffffffffffffffffffff1673ffffffffffffffffffffffffffffffffffffffff163373ffffffffffffffffffffffffffffffffffffffff1614611196576040517f08c379a000000000000000000000000000000000000000000000000000000000815260040161118d90613fb5565b60405180910390fd5b6127108111156111db576040517f08c379a00000000000000000000000000000000000000000000000000000000081526004016111d290613ef5565b60405180910390fd5b8060046000018190555050565b600060149054906101000a900460ff1615611238576040517f08c379a000000000000000000000000000000000000000000000000000000000815260040161122f90613f55565b60405180910390fd5b6001600060146101000a81548160ff02191690831515021790555060008060009054906101000a900473ffffffffffffffffffffffffffffffffffffffff1673ffffffffffffffffffffffffffffffffffffffff163373ffffffffffffffffffffffffffffffffffffffff1614156112b2578290506112b6565b3390505b6000600860008373ffffffffffffffffffffffffffffffffffffffff1673ffffffffffffffffffffffffffffffffffffffff16815260200190815260200160002090506000818054905011611340576040517f08c379a000000000000000000000000000000000000000000000000000000000815260040161133790613f75565b60405180910390fd5b80805490508310611386576040517f08c379a000000000000000000000000000000000000000000000000000000000815260040161137d90613ed5565b60405180910390fd5b60405180602001604052806000815250805190602001208184815481106113d6577f4e487b7100000000000000000000000000000000000000000000000000000000600052603260045260246000fd5b90600052602060002090600a02016003016000016040516113f79190613cf3565b60405180910390201461143f576040517f08c379a000000000000000000000000000000000000000000000000000000000815260040161143690613fd5565b60405180910390fd5b600081848154811061147a577f4e487b7100000000000000000000000000000000000000000000000000000000600052603260045260246000fd5b90600052602060002090600a02016008015490506000612710600460000154836114a49190614163565b6114ae9190614132565b9050600081836114be91906141bd565b905060008487815481106114fb577f4e487b7100000000000000000000000000000000000000000000000000000000600052603260045260246000fd5b90600052602060002090600a020160060160009054906101000a900473ffffffffffffffffffffffffffffffffffffffff169050600073ffffffffffffffffffffffffffffffffffffffff168173ffffffffffffffffffffffffffffffffffffffff1614156116e45760008060009054906101000a900473ffffffffffffffffffffffffffffffffffffffff1673ffffffffffffffffffffffffffffffffffffffff16846040516115ab90613d0a565b60006040518083038185875af1925050503d80600081146115e8576040519150601f19603f3d011682016040523d82523d6000602084013e6115ed565b606091505b5050905080611631576040517f08c379a000000000000000000000000000000000000000000000000000000000815260040161162890613f15565b60405180910390fd5b60008973ffffffffffffffffffffffffffffffffffffffff168460405161165790613d0a565b60006040518083038185875af1925050503d8060008114611694576040519150601f19603f3d011682016040523d82523d6000602084013e611699565b606091505b50509050806116dd576040517f08c379a00000000000000000000000000000000000000000000000000000000081526004016116d490613f15565b60405180910390fd5b5050611929565b6000600b60008373ffffffffffffffffffffffffffffffffffffffff1673ffffffffffffffffffffffffffffffffffffffff16815260200190815260200160002080549050141561176a576040517f08c379a000000000000000000000000000000000000000000000000000000000815260040161176190613eb5565b60405180910390fd5b60008190508073ffffffffffffffffffffffffffffffffffffffff1663a9059cbb60008054906101000a900473ffffffffffffffffffffffffffffffffffffffff16866040518363ffffffff1660e01b81526004016117ca929190613d71565b602060405180830381600087803b1580156117e457600080fd5b505af11580156117f8573d6000803e3d6000fd5b505050506040513d601f19601f8201168201806040525081019061181c919061371f565b61185b576040517f08c379a000000000000000000000000000000000000000000000000000000000815260040161185290613e15565b60405180910390fd5b8073ffffffffffffffffffffffffffffffffffffffff1663a9059cbb8a856040518363ffffffff1660e01b8152600401611896929190613d71565b602060405180830381600087803b1580156118b057600080fd5b505af11580156118c4573d6000803e3d6000fd5b505050506040513d601f19601f820116820180604052508101906118e8919061371f565b611927576040517f08c379a000000000000000000000000000000000000000000000000000000000815260040161191e90613e15565b60405180910390fd5b505b600185805490501415611c515760006006600160068054905061194c91906141bd565b81548110611983577f4e487b7100000000000000000000000000000000000000000000000000000000600052603260045260246000fd5b9060005260206000200160009054906101000a900473ffffffffffffffffffffffffffffffffffffffff1690506000600760008973ffffffffffffffffffffffffffffffffffffffff1673ffffffffffffffffffffffffffffffffffffffff16815260200190815260200160002054905080600760008473ffffffffffffffffffffffffffffffffffffffff1673ffffffffffffffffffffffffffffffffffffffff168152602001908152602001600020819055508160068281548110611a73577f4e487b7100000000000000000000000000000000000000000000000000000000600052603260045260246000fd5b9060005260206000200160006101000a81548173ffffffffffffffffffffffffffffffffffffffff021916908373ffffffffffffffffffffffffffffffffffffffff1602179055506006805480611af3577f4e487b7100000000000000000000000000000000000000000000000000000000600052603160045260246000fd5b6001900381819060005260206000200160006101000a81549073ffffffffffffffffffffffffffffffffffffffff021916905590556000600760008c73ffffffffffffffffffffffffffffffffffffffff1673ffffffffffffffffffffffffffffffffffffffff1681526020019081526020016000208190555086805480611ba4577f4e487b7100000000000000000000000000000000000000000000000000000000600052603160045260246000fd5b60019003818190600052602060002090600a0201600080820160008082016000611bce9190613445565b6001820160009055600282016000905550506003820160008082016000611bf59190613445565b6001820160009055600282016000905550506006820160006101000a81549073ffffffffffffffffffffffffffffffffffffffff02191690556007820160009055600882016000905560098201600090555050905550506120b0565b60008560018780549050611c6591906141bd565b81548110611c9c577f4e487b7100000000000000000000000000000000000000000000000000000000600052603260045260246000fd5b90600052602060002090600a02016040518060c001604052908160008201604051806060016040529081600082018054611cd590614248565b80601f0160208091040260200160405190810160405280929190818152602001828054611d0190614248565b8015611d4e5780601f10611d2357610100808354040283529160200191611d4e565b820191906000526020600020905b815481529060010190602001808311611d3157829003601f168201915b5050505050815260200160018201548152602001600282015481525050815260200160038201604051806060016040529081600082018054611d8f90614248565b80601f0160208091040260200160405190810160405280929190818152602001828054611dbb90614248565b8015611e085780601f10611ddd57610100808354040283529160200191611e08565b820191906000526020600020905b815481529060010190602001808311611deb57829003601f168201915b505050505081526020016001820154815260200160028201548152505081526020016006820160009054906101000a900473ffffffffffffffffffffffffffffffffffffffff1673ffffffffffffffffffffffffffffffffffffffff1673ffffffffffffffffffffffffffffffffffffffff168152602001600782015481526020016008820154815260200160098201548152505090508781606001818152505080868981548110611ee3577f4e487b7100000000000000000000000000000000000000000000000000000000600052603260045260246000fd5b90600052602060002090600a02016000820151816000016000820151816000019080519060200190611f16929190613372565b50602082015181600101556040820151816002015550506020820151816003016000820151816000019080519060200190611f52929190613372565b506020820151816001015560408201518160020155505060408201518160060160006101000a81548173ffffffffffffffffffffffffffffffffffffffff021916908373ffffffffffffffffffffffffffffffffffffffff160217905550606082015181600701556080820151816008015560a0820151816009015590505085805480612008577f4e487b7100000000000000000000000000000000000000000000000000000000600052603160045260246000fd5b60019003818190600052602060002090600a02016000808201600080820160006120329190613445565b60018201600090556002820160009055505060038201600080820160006120599190613445565b6001820160009055600282016000905550506006820160006101000a81549073ffffffffffffffffffffffffffffffffffffffff021916905560078201600090556008820160009055600982016000905550509055505b50505050505060008060146101000a81548160ff0219169083151502179055505050565b60008054906101000a900473ffffffffffffffffffffffffffffffffffffffff1681565b60018060000160009054906101000a900473ffffffffffffffffffffffffffffffffffffffff16908060010154905082565b60048060000154908060010154905082565b600060149054906101000a900460ff161561218c576040517f08c379a000000000000000000000000000000000000000000000000000000000815260040161218390613f55565b60405180910390fd5b6001600060146101000a81548160ff02191690831515021790555060008054906101000a900473ffffffffffffffffffffffffffffffffffffffff1673ffffffffffffffffffffffffffffffffffffffff163373ffffffffffffffffffffffffffffffffffffffff1614612235576040517f08c379a000000000000000000000000000000000000000000000000000000000815260040161222c90613fb5565b60405180910390fd5b6000600860008773ffffffffffffffffffffffffffffffffffffffff1673ffffffffffffffffffffffffffffffffffffffff1681526020019081526020016000209050808054905082106122be576040517f08c379a00000000000000000000000000000000000000000000000000000000081526004016122b590613db5565b60405180910390fd5b60008183815481106122f9577f4e487b7100000000000000000000000000000000000000000000000000000000600052603260045260246000fd5b90600052602060002090600a02016008015490506000612710600460010154836123239190614163565b61232d9190614132565b90506000818361233d91906141bd565b9050600084868154811061237a577f4e487b7100000000000000000000000000000000000000000000000000000000600052603260045260246000fd5b90600052602060002090600a020160060160009054906101000a900473ffffffffffffffffffffffffffffffffffffffff169050600073ffffffffffffffffffffffffffffffffffffffff168173ffffffffffffffffffffffffffffffffffffffff1614156125855760008060009054906101000a900473ffffffffffffffffffffffffffffffffffffffff1673ffffffffffffffffffffffffffffffffffffffff168360405161242a90613d0a565b60006040518083038185875af1925050503d8060008114612467576040519150601f19603f3d011682016040523d82523d6000602084013e61246c565b606091505b50509050806124b0576040517f08c379a00000000000000000000000000000000000000000000000000000000081526004016124a790613f15565b60405180910390fd5b6000600360009054906101000a900473ffffffffffffffffffffffffffffffffffffffff1673ffffffffffffffffffffffffffffffffffffffff16856040516124f890613d0a565b60006040518083038185875af1925050503d8060008114612535576040519150601f19603f3d011682016040523d82523d6000602084013e61253a565b606091505b505090508061257e576040517f08c379a000000000000000000000000000000000000000000000000000000000815260040161257590613f15565b60405180910390fd5b50506127ec565b6000600b60008373ffffffffffffffffffffffffffffffffffffffff1673ffffffffffffffffffffffffffffffffffffffff16815260200190815260200160002080549050141561260b576040517f08c379a000000000000000000000000000000000000000000000000000000000815260040161260290613eb5565b60405180910390fd5b60008190508073ffffffffffffffffffffffffffffffffffffffff1663a9059cbb60008054906101000a900473ffffffffffffffffffffffffffffffffffffffff16856040518363ffffffff1660e01b815260040161266b929190613d71565b602060405180830381600087803b15801561268557600080fd5b505af1158015612699573d6000803e3d6000fd5b505050506040513d601f19601f820116820180604052508101906126bd919061371f565b6126fc576040517f08c379a00000000000000000000000000000000000000000000000000000000081526004016126f390613e15565b60405180910390fd5b8073ffffffffffffffffffffffffffffffffffffffff1663a9059cbb600360009054906101000a900473ffffffffffffffffffffffffffffffffffffffff16866040518363ffffffff1660e01b8152600401612759929190613d71565b602060405180830381600087803b15801561277357600080fd5b505af1158015612787573d6000803e3d6000fd5b505050506040513d601f19601f820116820180604052508101906127ab919061371f565b6127ea576040517f08c379a00000000000000000000000000000000000000000000000000000000081526004016127e190613e15565b60405180910390fd5b505b600060405180606001604052808b81526020018a81526020018981525090506000868881548110612846577f4e487b7100000000000000000000000000000000000000000000000000000000600052603260045260246000fd5b90600052602060002090600a02016040518060c00160405290816000820160405180606001604052908160008201805461287f90614248565b80601f01602080910402602001604051908101604052809291908181526020018280546128ab90614248565b80156128f85780601f106128cd576101008083540402835291602001916128f8565b820191906000526020600020905b8154815290600101906020018083116128db57829003601f168201915b505050505081526020016001820154815260200160028201548152505081526020016003820160405180606001604052908160008201805461293990614248565b80601f016020809104026020016040519081016040528092919081815260200182805461296590614248565b80156129b25780601f10612987576101008083540402835291602001916129b2565b820191906000526020600020905b81548152906001019060200180831161299557829003601f168201915b505050505081526020016001820154815260200160028201548152505081526020016006820160009054906101000a900473ffffffffffffffffffffffffffffffffffffffff1673ffffffffffffffffffffffffffffffffffffffff1673ffffffffffffffffffffffffffffffffffffffff16815260200160078201548152602001600882015481526020016009820154815250509050818160200181905250600081608001818152505080878981548110612a97577f4e487b7100000000000000000000000000000000000000000000000000000000600052603260045260246000fd5b90600052602060002090600a02016000820151816000016000820151816000019080519060200190612aca929190613372565b50602082015181600101556040820151816002015550506020820151816003016000820151816000019080519060200190612b06929190613372565b506020820151816001015560408201518160020155505060408201518160060160006101000a81548173ffffffffffffffffffffffffffffffffffffffff021916908373ffffffffffffffffffffffffffffffffffffffff160217905550606082015181600701556080820151816008015560a082015181600901559050505050505050505060008060146101000a81548160ff0219169083151502179055505050505050565b60405180604001604052808273ffffffffffffffffffffffffffffffffffffffff16815260200183815250600160008201518160000160006101000a81548173ffffffffffffffffffffffffffffffffffffffff021916908373ffffffffffffffffffffffffffffffffffffffff160217905550602082015181600101559050505050565b60008054906101000a900473ffffffffffffffffffffffffffffffffffffffff1673ffffffffffffffffffffffffffffffffffffffff163373ffffffffffffffffffffffffffffffffffffffff161415612cc1576040517f08c379a0000000000000000000000000000000000000000000000000000000008152600401612cb890613f95565b60405180910390fd5b600060159054906101000a900460ff1615612d11576040517f08c379a0000000000000000000000000000000000000000000000000000000008152600401612d0890613e95565b60405180910390fd5b6000600b60008773ffffffffffffffffffffffffffffffffffffffff1673ffffffffffffffffffffffffffffffffffffffff168152602001908152602001600020805480602002602001604051908101604052809291908181526020018280548015612d9c57602002820191906000526020600020905b815481526020019060010190808311612d88575b5050505050905080518210612de6576040517f08c379a0000000000000000000000000000000000000000000000000000000008152600401612ddd90613e75565b60405180910390fd5b600073ffffffffffffffffffffffffffffffffffffffff168673ffffffffffffffffffffffffffffffffffffffff161415612ea257808281518110612e54577f4e487b7100000000000000000000000000000000000000000000000000000000600052603260045260246000fd5b60200260200101513414612e9d576040517f08c379a0000000000000000000000000000000000000000000000000000000008152600401612e9490613e35565b60405180910390fd5b612ffc565b600081511415612ee7576040517f08c379a0000000000000000000000000000000000000000000000000000000008152600401612ede90613eb5565b60405180910390fd5b60008690508073ffffffffffffffffffffffffffffffffffffffff166323b872dd3330858781518110612f43577f4e487b7100000000000000000000000000000000000000000000000000000000600052603260045260246000fd5b60200260200101516040518463ffffffff1660e01b8152600401612f6993929190613d3a565b602060405180830381600087803b158015612f8357600080fd5b505af1158015612f97573d6000803e3d6000fd5b505050506040513d601f19601f82011682018060405250810190612fbb919061371f565b612ffa576040517f08c379a0000000000000000000000000000000000000000000000000000000008152600401612ff190613e15565b60405180910390fd5b505b613004613242565b6000604051806060016040528087815260200186815260200185815250905061302b613485565b600860003373ffffffffffffffffffffffffffffffffffffffff1673ffffffffffffffffffffffffffffffffffffffff1681526020019081526020016000206040518060c001604052808481526020018381526020018a73ffffffffffffffffffffffffffffffffffffffff168152602001600860003373ffffffffffffffffffffffffffffffffffffffff1673ffffffffffffffffffffffffffffffffffffffff16815260200190815260200160002080549050815260200185878151811061311e577f4e487b7100000000000000000000000000000000000000000000000000000000600052603260045260246000fd5b60200260200101518152602001600081525090806001815401808255809150506001900390600052602060002090600a0201600090919091909150600082015181600001600082015181600001908051906020019061317e929190613372565b506020820151816001015560408201518160020155505060208201518160030160008201518160000190805190602001906131ba929190613372565b506020820151816001015560408201518160020155505060408201518160060160006101000a81548173ffffffffffffffffffffffffffffffffffffffff021916908373ffffffffffffffffffffffffffffffffffffffff160217905550606082015181600701556080820151816008015560a0820151816009015550505050505050505050565b600073ffffffffffffffffffffffffffffffffffffffff163373ffffffffffffffffffffffffffffffffffffffff16141580156132be57506000600760003373ffffffffffffffffffffffffffffffffffffffff1673ffffffffffffffffffffffffffffffffffffffff16815260200190815260200160002054145b1561337057600680549050600760003373ffffffffffffffffffffffffffffffffffffffff1673ffffffffffffffffffffffffffffffffffffffff168152602001908152602001600020819055506006339080600181540180825580915050600190039060005260206000200160009091909190916101000a81548173ffffffffffffffffffffffffffffffffffffffff021916908373ffffffffffffffffffffffffffffffffffffffff1602179055505b565b82805461337e90614248565b90600052602060002090601f0160209004810192826133a057600085556133e7565b82601f106133b957805160ff19168380011785556133e7565b828001600101855582156133e7579182015b828111156133e65782518255916020019190600101906133cb565b5b5090506133f491906134a6565b5090565b828054828255906000526020600020908101928215613434579160200282015b82811115613433578251825591602001919060010190613418565b5b50905061344191906134a6565b5090565b50805461345190614248565b6000825580601f106134635750613482565b601f01602090049060005260206000209081019061348191906134a6565b5b50565b60405180606001604052806060815260200160008152602001600081525090565b5b808211156134bf5760008160009055506001016134a7565b5090565b60006134d66134d18461404f565b61401e565b905080838252602082019050828560208602820111156134f557600080fd5b60005b85811015613525578161350b88826135eb565b8452602084019350602083019250506001810190506134f8565b5050509392505050565b600061354261353d8461407b565b61401e565b90508281526020810184848401111561355a57600080fd5b613565848285614239565b509392505050565b60008135905061357c8161437f565b92915050565b600082601f83011261359357600080fd5b81356135a38482602086016134c3565b91505092915050565b6000815190506135bb81614396565b92915050565b600082601f8301126135d257600080fd5b81356135e284826020860161352f565b91505092915050565b6000813590506135fa816143ad565b92915050565b6000806040838503121561361357600080fd5b60006136218582860161356d565b925050602083013567ffffffffffffffff81111561363e57600080fd5b61364a85828601613582565b9150509250929050565b600080600080600060a0868803121561366c57600080fd5b600061367a8882890161356d565b955050602086013567ffffffffffffffff81111561369757600080fd5b6136a3888289016135c1565b94505060406136b4888289016135eb565b93505060606136c5888289016135eb565b92505060806136d6888289016135eb565b9150509295509295909350565b600080604083850312156136f657600080fd5b60006137048582860161356d565b9250506020613715858286016135eb565b9150509250929050565b60006020828403121561373157600080fd5b600061373f848285016135ac565b91505092915050565b60006020828403121561375a57600080fd5b6000613768848285016135eb565b91505092915050565b6000806040838503121561378457600080fd5b6000613792858286016135eb565b92505060206137a38582860161356d565b9150509250929050565b6137b6816141f1565b82525050565b6137c581614203565b82525050565b600081546137d881614248565b6137e281866140c0565b945060018216600081146137fd576001811461380e57613841565b60ff19831686528186019350613841565b613817856140ab565b60005b838110156138395781548189015260018201915060208101905061381a565b838801955050505b50505092915050565b60006138576005836140cb565b91507f45525231360000000000000000000000000000000000000000000000000000006000830152602082019050919050565b60006138976005836140cb565b91507f45525231390000000000000000000000000000000000000000000000000000006000830152602082019050919050565b60006138d76004836140cb565b91507f45525236000000000000000000000000000000000000000000000000000000006000830152602082019050919050565b60006139176005836140cb565b91507f45525231310000000000000000000000000000000000000000000000000000006000830152602082019050919050565b60006139576004836140cb565b91507f45525239000000000000000000000000000000000000000000000000000000006000830152602082019050919050565b60006139976004836140cb565b91507f45525232000000000000000000000000000000000000000000000000000000006000830152602082019050919050565b60006139d76004836140cb565b91507f45525238000000000000000000000000000000000000000000000000000000006000830152602082019050919050565b6000613a176005836140cb565b91507f45525231380000000000000000000000000000000000000000000000000000006000830152602082019050919050565b6000613a576005836140cb565b91507f45525231300000000000000000000000000000000000000000000000000000006000830152602082019050919050565b6000613a976005836140cb565b91507f45525231330000000000000000000000000000000000000000000000000000006000830152602082019050919050565b6000613ad76004836140cb565b91507f45525231000000000000000000000000000000000000000000000000000000006000830152602082019050919050565b6000613b176005836140cb565b91507f45525231350000000000000000000000000000000000000000000000000000006000830152602082019050919050565b6000613b576005836140cb565b91507f45525231370000000000000000000000000000000000000000000000000000006000830152602082019050919050565b6000613b976000836140c0565b9150600082019050919050565b6000613bb16004836140cb565b91507f45525235000000000000000000000000000000000000000000000000000000006000830152602082019050919050565b6000613bf16005836140cb565b91507f45525231320000000000000000000000000000000000000000000000000000006000830152602082019050919050565b6000613c316004836140cb565b91507f45525234000000000000000000000000000000000000000000000000000000006000830152602082019050919050565b6000613c716004836140cb565b91507f45525233000000000000000000000000000000000000000000000000000000006000830152602082019050919050565b6000613cb16005836140cb565b91507f45525231340000000000000000000000000000000000000000000000000000006000830152602082019050919050565b613ced8161422f565b82525050565b6000613cff82846137cb565b915081905092915050565b6000613d1582613b8a565b9150819050919050565b6000602082019050613d3460008301846137ad565b92915050565b6000606082019050613d4f60008301866137ad565b613d5c60208301856137ad565b613d696040830184613ce4565b949350505050565b6000604082019050613d8660008301856137ad565b613d936020830184613ce4565b9392505050565b6000602082019050613daf60008301846137bc565b92915050565b60006020820190508181036000830152613dce8161384a565b9050919050565b60006020820190508181036000830152613dee8161388a565b9050919050565b60006020820190508181036000830152613e0e816138ca565b9050919050565b60006020820190508181036000830152613e2e8161390a565b9050919050565b60006020820190508181036000830152613e4e8161394a565b9050919050565b60006020820190508181036000830152613e6e8161398a565b9050919050565b60006020820190508181036000830152613e8e816139ca565b9050919050565b60006020820190508181036000830152613eae81613a0a565b9050919050565b60006020820190508181036000830152613ece81613a4a565b9050919050565b60006020820190508181036000830152613eee81613a8a565b9050919050565b60006020820190508181036000830152613f0e81613aca565b9050919050565b60006020820190508181036000830152613f2e81613b0a565b9050919050565b60006020820190508181036000830152613f4e81613b4a565b9050919050565b60006020820190508181036000830152613f6e81613ba4565b9050919050565b60006020820190508181036000830152613f8e81613be4565b9050919050565b60006020820190508181036000830152613fae81613c24565b9050919050565b60006020820190508181036000830152613fce81613c64565b9050919050565b60006020820190508181036000830152613fee81613ca4565b9050919050565b600060408201905061400a6000830185613ce4565b6140176020830184613ce4565b9392505050565b6000604051905081810181811067ffffffffffffffff8211171561404557614044614350565b5b8060405250919050565b600067ffffffffffffffff82111561406a57614069614350565b5b602082029050602081019050919050565b600067ffffffffffffffff82111561409657614095614350565b5b601f19601f8301169050602081019050919050565b60008190508160005260206000209050919050565b600081905092915050565b600082825260208201905092915050565b60006140e78261422f565b91506140f28361422f565b9250827fffffffffffffffffffffffffffffffffffffffffffffffffffffffffffffffff03821115614127576141266142c3565b5b828201905092915050565b600061413d8261422f565b91506141488361422f565b925082614158576141576142f2565b5b828204905092915050565b600061416e8261422f565b91506141798361422f565b9250817fffffffffffffffffffffffffffffffffffffffffffffffffffffffffffffffff04831182151516156141b2576141b16142c3565b5b828202905092915050565b60006141c88261422f565b91506141d38361422f565b9250828210156141e6576141e56142c3565b5b828203905092915050565b60006141fc8261420f565b9050919050565b60008115159050919050565b600073ffffffffffffffffffffffffffffffffffffffff82169050919050565b6000819050919050565b82818337600083830152505050565b6000600282049050600182168061426057607f821691505b6020821081141561427457614273614321565b5b50919050565b60006142858261422f565b91507fffffffffffffffffffffffffffffffffffffffffffffffffffffffffffffffff8214156142b8576142b76142c3565b5b600182019050919050565b7f4e487b7100000000000000000000000000000000000000000000000000000000600052601160045260246000fd5b7f4e487b7100000000000000000000000000000000000000000000000000000000600052601260045260246000fd5b7f4e487b7100000000000000000000000000000000000000000000000000000000600052602260045260246000fd5b7f4e487b7100000000000000000000000000000000000000000000000000000000600052604160045260246000fd5b614388816141f1565b811461439357600080fd5b50565b61439f81614203565b81146143aa57600080fd5b50565b6143b68161422f565b81146143c157600080fd5b5056fea264697066735822122005efdfbff45598e3ffa4450c20584ea7a4de155f635950ae45ca26a82053a62f64736f6c63430008000033",
  "linkReferences": {},
  "deployedLinkReferences": {}
}