{
  "_format": "hh-sol-artifact-1",
  "contractName": "AskMi",
  "sourceName": "contracts/askmi.sol",
  "abi": [
    {
      "inputs": [
        {
          "internalType": "address",
          "name": "_owner",
          "type": "address"
        },
        {
          "internalType": "uint256[]",
          "name": "_tiers",
          "type": "uint256[]"
        },
        {
          "internalType": "uint256",
          "name": "_tip",
          "type": "uint256"
        },
        {
          "internalType": "address",
          "name": "_dev",
          "type": "address"
        }
      ],
      "stateMutability": "nonpayable",
      "type": "constructor"
    },
    {
      "anonymous": false,
      "inputs": [
        {
          "indexed": false,
          "internalType": "address",
          "name": "_questioner",
          "type": "address"
        },
        {
          "indexed": false,
          "internalType": "uint256",
          "name": "_exchangeIndex",
          "type": "uint256"
        }
      ],
      "name": "QuestionAnswered",
      "type": "event"
    },
    {
      "anonymous": false,
      "inputs": [
        {
          "indexed": false,
          "internalType": "address",
          "name": "_questioner",
          "type": "address"
        },
        {
          "indexed": false,
          "internalType": "uint256",
          "name": "_exchangeIndex",
          "type": "uint256"
        }
      ],
      "name": "QuestionAsked",
      "type": "event"
    },
    {
      "anonymous": false,
      "inputs": [
        {
          "indexed": false,
          "internalType": "address",
          "name": "_questioner",
          "type": "address"
        },
        {
          "indexed": false,
          "internalType": "uint256",
          "name": "_exchangeIndex",
          "type": "uint256"
        }
      ],
      "name": "QuestionRemoved",
      "type": "event"
    },
    {
      "anonymous": false,
      "inputs": [
        {
          "indexed": false,
          "internalType": "address",
          "name": "_questioner",
          "type": "address"
        },
        {
          "indexed": false,
          "internalType": "uint256",
          "name": "_exchangeIndex",
          "type": "uint256"
        }
      ],
      "name": "TipIssued",
      "type": "event"
    },
    {
      "inputs": [
        {
          "internalType": "string",
          "name": "_digest",
          "type": "string"
        },
        {
          "internalType": "uint256",
          "name": "_hashFunction",
          "type": "uint256"
        },
        {
          "internalType": "uint256",
          "name": "_size",
          "type": "uint256"
        },
        {
          "internalType": "uint256",
          "name": "_tierIndex",
          "type": "uint256"
        }
      ],
      "name": "ask",
      "outputs": [],
      "stateMutability": "payable",
      "type": "function"
    },
    {
      "inputs": [],
      "name": "fee",
      "outputs": [
        {
          "internalType": "uint256",
          "name": "",
          "type": "uint256"
        }
      ],
      "stateMutability": "view",
      "type": "function"
    },
    {
      "inputs": [],
      "name": "getQuestioners",
      "outputs": [
        {
          "internalType": "address[]",
          "name": "",
          "type": "address[]"
        }
      ],
      "stateMutability": "view",
      "type": "function"
    },
    {
      "inputs": [
        {
          "internalType": "address",
          "name": "_questioner",
          "type": "address"
        }
      ],
      "name": "getQuestions",
      "outputs": [
        {
          "components": [
            {
              "components": [
                {
                  "internalType": "string",
                  "name": "digest",
                  "type": "string"
                },
                {
                  "internalType": "uint256",
                  "name": "hashFunction",
                  "type": "uint256"
                },
                {
                  "internalType": "uint256",
                  "name": "size",
                  "type": "uint256"
                }
              ],
              "internalType": "struct AskMi.Cid",
              "name": "question",
              "type": "tuple"
            },
            {
              "components": [
                {
                  "internalType": "string",
                  "name": "digest",
                  "type": "string"
                },
                {
                  "internalType": "uint256",
                  "name": "hashFunction",
                  "type": "uint256"
                },
                {
                  "internalType": "uint256",
                  "name": "size",
                  "type": "uint256"
                }
              ],
              "internalType": "struct AskMi.Cid",
              "name": "answer",
              "type": "tuple"
            },
            {
              "internalType": "uint256",
              "name": "exchangeIndex",
              "type": "uint256"
            },
            {
              "internalType": "uint256",
              "name": "balance",
              "type": "uint256"
            },
            {
              "internalType": "uint256",
              "name": "tips",
              "type": "uint256"
            }
          ],
          "internalType": "struct AskMi.Exchange[]",
          "name": "",
          "type": "tuple[]"
        }
      ],
      "stateMutability": "view",
      "type": "function"
    },
    {
      "inputs": [],
      "name": "getTiers",
      "outputs": [
        {
          "internalType": "uint256[]",
          "name": "",
          "type": "uint256[]"
        }
      ],
      "stateMutability": "view",
      "type": "function"
    },
    {
      "inputs": [
        {
          "internalType": "address",
          "name": "_questioner",
          "type": "address"
        },
        {
          "internalType": "uint256",
          "name": "_exchangeIndex",
          "type": "uint256"
        }
      ],
      "name": "issueTip",
      "outputs": [],
      "stateMutability": "payable",
      "type": "function"
    },
    {
      "inputs": [],
      "name": "owner",
      "outputs": [
        {
          "internalType": "address",
          "name": "",
          "type": "address"
        }
      ],
      "stateMutability": "view",
      "type": "function"
    },
    {
      "inputs": [
        {
          "internalType": "uint256",
          "name": "_exchangeIndex",
          "type": "uint256"
        }
      ],
      "name": "removeQuestion",
      "outputs": [],
      "stateMutability": "nonpayable",
      "type": "function"
    },
    {
      "inputs": [
        {
          "internalType": "address",
          "name": "_questioner",
          "type": "address"
        },
        {
          "internalType": "string",
          "name": "_digest",
          "type": "string"
        },
        {
          "internalType": "uint256",
          "name": "_hashFunction",
          "type": "uint256"
        },
        {
          "internalType": "uint256",
          "name": "_size",
          "type": "uint256"
        },
        {
          "internalType": "uint256",
          "name": "_exchangeIndex",
          "type": "uint256"
        }
      ],
      "name": "respond",
      "outputs": [],
      "stateMutability": "nonpayable",
      "type": "function"
    },
    {
      "inputs": [],
      "name": "tip",
      "outputs": [
        {
          "internalType": "uint256",
          "name": "",
          "type": "uint256"
        }
      ],
      "stateMutability": "view",
      "type": "function"
    },
    {
      "inputs": [
        {
          "internalType": "uint256[]",
          "name": "_newTiers",
          "type": "uint256[]"
        }
      ],
      "name": "updateTiers",
      "outputs": [],
      "stateMutability": "nonpayable",
      "type": "function"
    },
    {
      "inputs": [
        {
          "internalType": "uint256",
          "name": "_tip",
          "type": "uint256"
        }
      ],
      "name": "updateTip",
      "outputs": [],
      "stateMutability": "nonpayable",
      "type": "function"
    },
    {
      "stateMutability": "payable",
      "type": "receive"
    }
  ],
  "bytecode": "0x608060405260c86003553480156200001657600080fd5b50604051620036c3380380620036c383398181016040528101906200003c91906200028c565b836000806101000a81548173ffffffffffffffffffffffffffffffffffffffff021916908373ffffffffffffffffffffffffffffffffffffffff1602179055508260049080519060200190620000949291906200014b565b508160018190555080600260006101000a81548173ffffffffffffffffffffffffffffffffffffffff021916908373ffffffffffffffffffffffffffffffffffffffff160217905550600860009080600181540180825580915050600190039060005260206000200160009091909190916101000a81548173ffffffffffffffffffffffffffffffffffffffff021916908373ffffffffffffffffffffffffffffffffffffffff1602179055505050505062000451565b8280548282559060005260206000209081019282156200018a579160200282015b82811115620001895782518255916020019190600101906200016c565b5b5090506200019991906200019d565b5090565b5b80821115620001b85760008160009055506001016200019e565b5090565b6000620001d3620001cd846200033a565b62000311565b90508083825260208201905082856020860282011115620001f357600080fd5b60005b858110156200022757816200020c888262000275565b845260208401935060208301925050600181019050620001f6565b5050509392505050565b60008151905062000242816200041d565b92915050565b600082601f8301126200025a57600080fd5b81516200026c848260208601620001bc565b91505092915050565b600081519050620002868162000437565b92915050565b60008060008060808587031215620002a357600080fd5b6000620002b38782880162000231565b945050602085015167ffffffffffffffff811115620002d157600080fd5b620002df8782880162000248565b9350506040620002f28782880162000275565b9250506060620003058782880162000231565b91505092959194509250565b60006200031d62000330565b90506200032b8282620003a7565b919050565b6000604051905090565b600067ffffffffffffffff821115620003585762000357620003dd565b5b602082029050602081019050919050565b600062000376826200037d565b9050919050565b600073ffffffffffffffffffffffffffffffffffffffff82169050919050565b6000819050919050565b620003b2826200040c565b810181811067ffffffffffffffff82111715620003d457620003d3620003dd565b5b80604052505050565b7f4e487b7100000000000000000000000000000000000000000000000000000000600052604160045260246000fd5b6000601f19601f8301169050919050565b620004288162000369565b81146200043457600080fd5b50565b62000442816200039d565b81146200044e57600080fd5b50565b61326280620004616000396000f3fe6080604052600436106100ab5760003560e01c80638da5cb5b116100645780638da5cb5b146101a9578063c3da5961146101d4578063ddca3f43146101fd578063de17057014610228578063e4c0967c14610253578063f46cd0a81461027c576100b2565b806305beb077146100b75780630dedc14c146100d35780631605c9ef146101105780632755cd2d1461012c5780633cd94d901461015757806388e3547a14610180576100b2565b366100b257005b600080fd5b6100d160048036038101906100cc9190612397565b6102a7565b005b3480156100df57600080fd5b506100fa60048036038101906100f591906122df565b6106a5565b6040516101079190612a24565b60405180910390f35b61012a60048036038101906101259190612414565b6108d5565b005b34801561013857600080fd5b50610141610c13565b60405161014e9190612bc8565b60405180910390f35b34801561016357600080fd5b5061017e6004803603810190610179919061248f565b610c19565b005b34801561018c57600080fd5b506101a760048036038101906101a2919061248f565b6115fe565b005b3480156101b557600080fd5b506101be611696565b6040516101cb91906129be565b60405180910390f35b3480156101e057600080fd5b506101fb60048036038101906101f691906123d3565b6116ba565b005b34801561020957600080fd5b50610212611762565b60405161021f9190612bc8565b60405180910390f35b34801561023457600080fd5b5061023d611768565b60405161024a9190612a46565b60405180910390f35b34801561025f57600080fd5b5061027a60048036038101906102759190612308565b6117c0565b005b34801561028857600080fd5b50610291611e1b565b60405161029e9190612a02565b60405180910390f35b60008054906101000a900473ffffffffffffffffffffffffffffffffffffffff1673ffffffffffffffffffffffffffffffffffffffff163373ffffffffffffffffffffffffffffffffffffffff161415610336576040517f08c379a000000000000000000000000000000000000000000000000000000000815260040161032d90612b28565b60405180910390fd5b6000600660008473ffffffffffffffffffffffffffffffffffffffff1673ffffffffffffffffffffffffffffffffffffffff1681526020019081526020016000209050808054905082106103bf576040517f08c379a00000000000000000000000000000000000000000000000000000000081526004016103b690612a68565b60405180910390fd5b6001543414610403576040517f08c379a00000000000000000000000000000000000000000000000000000000081526004016103fa90612b48565b60405180910390fd5b60003490506000828481548110610443577f4e487b7100000000000000000000000000000000000000000000000000000000600052603260045260246000fd5b90600052602060002090600902019050600183858154811061048e577f4e487b7100000000000000000000000000000000000000000000000000000000600052603260045260246000fd5b9060005260206000209060090201600801546104aa9190612d5d565b8160080181905550808385815481106104ec577f4e487b7100000000000000000000000000000000000000000000000000000000600052603260045260246000fd5b90600052602060002090600902016000820181600001600082018160000190805461051690612e96565b610521929190611fd9565b50600182015481600101556002820154816002015550506003820181600301600082018160000190805461055490612e96565b61055f929190611fd9565b506001820154816001015560028201548160020155505060068201548160060155600782015481600701556008820154816008015590505060008060009054906101000a900473ffffffffffffffffffffffffffffffffffffffff1673ffffffffffffffffffffffffffffffffffffffff16836040516105de906129a9565b60006040518083038185875af1925050503d806000811461061b576040519150601f19603f3d011682016040523d82523d6000602084013e610620565b606091505b5050905080610664576040517f08c379a000000000000000000000000000000000000000000000000000000000815260040161065b90612aa8565b60405180910390fd5b7f1a9b818e62a6f69fbcdd55bff6811e94cf2b20d257fcfe3c9de4475121ffe30586866040516106959291906129d9565b60405180910390a1505050505050565b6060600660008373ffffffffffffffffffffffffffffffffffffffff1673ffffffffffffffffffffffffffffffffffffffff168152602001908152602001600020805480602002602001604051908101604052809291908181526020016000905b828210156108ca57838290600052602060002090600902016040518060a00160405290816000820160405180606001604052908160008201805461074990612e96565b80601f016020809104026020016040519081016040528092919081815260200182805461077590612e96565b80156107c25780601f10610797576101008083540402835291602001916107c2565b820191906000526020600020905b8154815290600101906020018083116107a557829003601f168201915b505050505081526020016001820154815260200160028201548152505081526020016003820160405180606001604052908160008201805461080390612e96565b80601f016020809104026020016040519081016040528092919081815260200182805461082f90612e96565b801561087c5780601f106108515761010080835404028352916020019161087c565b820191906000526020600020905b81548152906001019060200180831161085f57829003601f168201915b50505050508152602001600182015481526020016002820154815250508152602001600682015481526020016007820154815260200160088201548152505081526020019060010190610706565b505050509050919050565b60008054906101000a900473ffffffffffffffffffffffffffffffffffffffff1673ffffffffffffffffffffffffffffffffffffffff163373ffffffffffffffffffffffffffffffffffffffff161415610964576040517f08c379a000000000000000000000000000000000000000000000000000000000815260040161095b90612b28565b60405180910390fd5b8060048054905081106109ac576040517f08c379a00000000000000000000000000000000000000000000000000000000081526004016109a390612ac8565b60405180910390fd5b600481815481106109e6577f4e487b7100000000000000000000000000000000000000000000000000000000600052603260045260246000fd5b90600052602060002001543414610a32576040517f08c379a0000000000000000000000000000000000000000000000000000000008152600401610a2990612ba8565b60405180910390fd5b610a3a611ea9565b60006040518060600160405280878152602001868152602001858152509050610a61612066565b6000600660003373ffffffffffffffffffffffffffffffffffffffff1673ffffffffffffffffffffffffffffffffffffffff168152602001908152602001600020805490509050600660003373ffffffffffffffffffffffffffffffffffffffff1673ffffffffffffffffffffffffffffffffffffffff1681526020019081526020016000206040518060a00160405280858152602001848152602001838152602001348152602001600081525090806001815401808255809150506001900390600052602060002090600902016000909190919091506000820151816000016000820151816000019080519060200190610b5d929190612087565b50602082015181600101556040820151816002015550506020820151816003016000820151816000019080519060200190610b99929190612087565b506020820151816001015560408201518160020155505060408201518160060155606082015181600701556080820151816008015550507f2e7298985f2dd624a11368cfbd0102c3a4d43891b7b687d2f922b615b550cacd3382604051610c019291906129d9565b60405180910390a15050505050505050565b60015481565b600560009054906101000a900460ff1615610c69576040517f08c379a0000000000000000000000000000000000000000000000000000000008152600401610c6090612b88565b60405180910390fd5b6001600560006101000a81548160ff0219169083151502179055506000600660003373ffffffffffffffffffffffffffffffffffffffff1673ffffffffffffffffffffffffffffffffffffffff16815260200190815260200160002090506000818054905011610d0e576040517f08c379a0000000000000000000000000000000000000000000000000000000008152600401610d0590612ae8565b60405180910390fd5b80805490508210610d54576040517f08c379a0000000000000000000000000000000000000000000000000000000008152600401610d4b90612b08565b60405180910390fd5b6040518060200160405280600081525080519060200120818381548110610da4577f4e487b7100000000000000000000000000000000000000000000000000000000600052603260045260246000fd5b9060005260206000209060090201600301600001604051610dc59190612992565b604051809103902014610e0d576040517f08c379a0000000000000000000000000000000000000000000000000000000008152600401610e0490612b68565b60405180910390fd5b6000818381548110610e48577f4e487b7100000000000000000000000000000000000000000000000000000000600052603260045260246000fd5b906000526020600020906009020160070154905060018280549050141561115d57600060086001600880549050610e7f9190612de4565b81548110610eb6577f4e487b7100000000000000000000000000000000000000000000000000000000600052603260045260246000fd5b9060005260206000200160009054906101000a900473ffffffffffffffffffffffffffffffffffffffff1690506000600760003373ffffffffffffffffffffffffffffffffffffffff1673ffffffffffffffffffffffffffffffffffffffff16815260200190815260200160002054905080600760008473ffffffffffffffffffffffffffffffffffffffff1673ffffffffffffffffffffffffffffffffffffffff168152602001908152602001600020819055508160088281548110610fa6577f4e487b7100000000000000000000000000000000000000000000000000000000600052603260045260246000fd5b9060005260206000200160006101000a81548173ffffffffffffffffffffffffffffffffffffffff021916908373ffffffffffffffffffffffffffffffffffffffff1602179055506008805480611026577f4e487b7100000000000000000000000000000000000000000000000000000000600052603160045260246000fd5b6001900381819060005260206000200160006101000a81549073ffffffffffffffffffffffffffffffffffffffff021916905590556000600760003373ffffffffffffffffffffffffffffffffffffffff1673ffffffffffffffffffffffffffffffffffffffff16815260200190815260200160002081905550838054806110d7577f4e487b7100000000000000000000000000000000000000000000000000000000600052603160045260246000fd5b6001900381819060005260206000209060090201600080820160008082016000611101919061210d565b6001820160009055600282016000905550506003820160008082016000611128919061210d565b6001820160009055600282016000905550506006820160009055600782016000905560088201600090555050905550506114f8565b600082600184805490506111719190612de4565b815481106111a8577f4e487b7100000000000000000000000000000000000000000000000000000000600052603260045260246000fd5b90600052602060002090600902016040518060a0016040529081600082016040518060600160405290816000820180546111e190612e96565b80601f016020809104026020016040519081016040528092919081815260200182805461120d90612e96565b801561125a5780601f1061122f5761010080835404028352916020019161125a565b820191906000526020600020905b81548152906001019060200180831161123d57829003601f168201915b505050505081526020016001820154815260200160028201548152505081526020016003820160405180606001604052908160008201805461129b90612e96565b80601f01602080910402602001604051908101604052809291908181526020018280546112c790612e96565b80156113145780601f106112e957610100808354040283529160200191611314565b820191906000526020600020905b8154815290600101906020018083116112f757829003601f168201915b50505050508152602001600182015481526020016002820154815250508152602001600682015481526020016007820154815260200160088201548152505090508381604001818152505080838581548110611399577f4e487b7100000000000000000000000000000000000000000000000000000000600052603260045260246000fd5b906000526020600020906009020160008201518160000160008201518160000190805190602001906113cc929190612087565b50602082015181600101556040820151816002015550506020820151816003016000820151816000019080519060200190611408929190612087565b506020820151816001015560408201518160020155505060408201518160060155606082015181600701556080820151816008015590505082805480611477577f4e487b7100000000000000000000000000000000000000000000000000000000600052603160045260246000fd5b60019003818190600052602060002090600902016000808201600080820160006114a1919061210d565b60018201600090556002820160009055505060038201600080820160006114c8919061210d565b60018201600090556002820160009055505060068201600090556007820160009055600882016000905550509055505b60003373ffffffffffffffffffffffffffffffffffffffff168260405161151e906129a9565b60006040518083038185875af1925050503d806000811461155b576040519150601f19603f3d011682016040523d82523d6000602084013e611560565b606091505b50509050806115a4576040517f08c379a000000000000000000000000000000000000000000000000000000000815260040161159b90612aa8565b60405180910390fd5b7f9f023eae2648b1dc9ce9ef4768da366f2ae94207233ba25fb5894fd5227de26233856040516115d59291906129d9565b60405180910390a15050506000600560006101000a81548160ff02191690831515021790555050565b60008054906101000a900473ffffffffffffffffffffffffffffffffffffffff1673ffffffffffffffffffffffffffffffffffffffff163373ffffffffffffffffffffffffffffffffffffffff161461168c576040517f08c379a000000000000000000000000000000000000000000000000000000000815260040161168390612a88565b60405180910390fd5b8060018190555050565b60008054906101000a900473ffffffffffffffffffffffffffffffffffffffff1681565b60008054906101000a900473ffffffffffffffffffffffffffffffffffffffff1673ffffffffffffffffffffffffffffffffffffffff163373ffffffffffffffffffffffffffffffffffffffff1614611748576040517f08c379a000000000000000000000000000000000000000000000000000000000815260040161173f90612a88565b60405180910390fd5b806004908051906020019061175e92919061214d565b5050565b60035481565b606060048054806020026020016040519081016040528092919081815260200182805480156117b657602002820191906000526020600020905b8154815260200190600101908083116117a2575b5050505050905090565b600560009054906101000a900460ff1615611810576040517f08c379a000000000000000000000000000000000000000000000000000000000815260040161180790612b88565b60405180910390fd5b6001600560006101000a81548160ff02191690831515021790555060008054906101000a900473ffffffffffffffffffffffffffffffffffffffff1673ffffffffffffffffffffffffffffffffffffffff163373ffffffffffffffffffffffffffffffffffffffff16146118b9576040517f08c379a00000000000000000000000000000000000000000000000000000000081526004016118b090612a88565b60405180910390fd5b6000600660008773ffffffffffffffffffffffffffffffffffffffff1673ffffffffffffffffffffffffffffffffffffffff168152602001908152602001600020905080805490508210611942576040517f08c379a000000000000000000000000000000000000000000000000000000000815260040161193990612a68565b60405180910390fd5b600081838154811061197d577f4e487b7100000000000000000000000000000000000000000000000000000000600052603260045260246000fd5b90600052602060002090600902016007015490506000600354826119a19190612db3565b9050600081836119b19190612de4565b9050600060405180606001604052808a81526020018981526020018881525090506040518060a00160405280868881548110611a16577f4e487b7100000000000000000000000000000000000000000000000000000000600052603260045260246000fd5b9060005260206000209060090201600001604051806060016040529081600082018054611a4290612e96565b80601f0160208091040260200160405190810160405280929190818152602001828054611a6e90612e96565b8015611abb5780601f10611a9057610100808354040283529160200191611abb565b820191906000526020600020905b815481529060010190602001808311611a9e57829003601f168201915b5050505050815260200160018201548152602001600282015481525050815260200182815260200187815260200160008152602001868881548110611b29577f4e487b7100000000000000000000000000000000000000000000000000000000600052603260045260246000fd5b906000526020600020906009020160080154815250858781548110611b77577f4e487b7100000000000000000000000000000000000000000000000000000000600052603260045260246000fd5b90600052602060002090600902016000820151816000016000820151816000019080519060200190611baa929190612087565b50602082015181600101556040820151816002015550506020820151816003016000820151816000019080519060200190611be6929190612087565b506020820151816001015560408201518160020155505060408201518160060155606082015181600701556080820151816008015590505060008060009054906101000a900473ffffffffffffffffffffffffffffffffffffffff1673ffffffffffffffffffffffffffffffffffffffff1683604051611c65906129a9565b60006040518083038185875af1925050503d8060008114611ca2576040519150601f19603f3d011682016040523d82523d6000602084013e611ca7565b606091505b5050905080611ceb576040517f08c379a0000000000000000000000000000000000000000000000000000000008152600401611ce290612aa8565b60405180910390fd5b6000600260009054906101000a900473ffffffffffffffffffffffffffffffffffffffff1673ffffffffffffffffffffffffffffffffffffffff1685604051611d33906129a9565b60006040518083038185875af1925050503d8060008114611d70576040519150601f19603f3d011682016040523d82523d6000602084013e611d75565b606091505b5050905080611db9576040517f08c379a0000000000000000000000000000000000000000000000000000000008152600401611db090612aa8565b60405180910390fd5b7f429c694aa6647ed579b2576c88071af439f05fe6dc41964661e1bf0937f324c18c89604051611dea9291906129d9565b60405180910390a1505050505050506000600560006101000a81548160ff0219169083151502179055505050505050565b60606008805480602002602001604051908101604052809291908181526020018280548015611e9f57602002820191906000526020600020905b8160009054906101000a900473ffffffffffffffffffffffffffffffffffffffff1673ffffffffffffffffffffffffffffffffffffffff1681526020019060010190808311611e55575b5050505050905090565b600073ffffffffffffffffffffffffffffffffffffffff163373ffffffffffffffffffffffffffffffffffffffff1614158015611f2557506000600760003373ffffffffffffffffffffffffffffffffffffffff1673ffffffffffffffffffffffffffffffffffffffff16815260200190815260200160002054145b15611fd757600880549050600760003373ffffffffffffffffffffffffffffffffffffffff1673ffffffffffffffffffffffffffffffffffffffff168152602001908152602001600020819055506008339080600181540180825580915050600190039060005260206000200160009091909190916101000a81548173ffffffffffffffffffffffffffffffffffffffff021916908373ffffffffffffffffffffffffffffffffffffffff1602179055505b565b828054611fe590612e96565b90600052602060002090601f0160209004810192826120075760008555612055565b82601f106120185780548555612055565b8280016001018555821561205557600052602060002091601f016020900482015b82811115612054578254825591600101919060010190612039565b5b509050612062919061219a565b5090565b60405180606001604052806060815260200160008152602001600081525090565b82805461209390612e96565b90600052602060002090601f0160209004810192826120b557600085556120fc565b82601f106120ce57805160ff19168380011785556120fc565b828001600101855582156120fc579182015b828111156120fb5782518255916020019190600101906120e0565b5b509050612109919061219a565b5090565b50805461211990612e96565b6000825580601f1061212b575061214a565b601f016020900490600052602060002090810190612149919061219a565b5b50565b828054828255906000526020600020908101928215612189579160200282015b8281111561218857825182559160200191906001019061216d565b5b509050612196919061219a565b5090565b5b808211156121b357600081600090555060010161219b565b5090565b60006121ca6121c584612c08565b612be3565b905080838252602082019050828560208602820111156121e957600080fd5b60005b8581101561221957816121ff88826122ca565b8452602084019350602083019250506001810190506121ec565b5050509392505050565b600061223661223184612c34565b612be3565b90508281526020810184848401111561224e57600080fd5b612259848285612e54565b509392505050565b600081359050612270816131fe565b92915050565b600082601f83011261228757600080fd5b81356122978482602086016121b7565b91505092915050565b600082601f8301126122b157600080fd5b81356122c1848260208601612223565b91505092915050565b6000813590506122d981613215565b92915050565b6000602082840312156122f157600080fd5b60006122ff84828501612261565b91505092915050565b600080600080600060a0868803121561232057600080fd5b600061232e88828901612261565b955050602086013567ffffffffffffffff81111561234b57600080fd5b612357888289016122a0565b9450506040612368888289016122ca565b9350506060612379888289016122ca565b925050608061238a888289016122ca565b9150509295509295909350565b600080604083850312156123aa57600080fd5b60006123b885828601612261565b92505060206123c9858286016122ca565b9150509250929050565b6000602082840312156123e557600080fd5b600082013567ffffffffffffffff8111156123ff57600080fd5b61240b84828501612276565b91505092915050565b6000806000806080858703121561242a57600080fd5b600085013567ffffffffffffffff81111561244457600080fd5b612450878288016122a0565b9450506020612461878288016122ca565b9350506040612472878288016122ca565b9250506060612483878288016122ca565b91505092959194509250565b6000602082840312156124a157600080fd5b60006124af848285016122ca565b91505092915050565b60006124c483836124fc565b60208301905092915050565b60006124dc83836128f7565b905092915050565b60006124f08383612974565b60208301905092915050565b61250581612e18565b82525050565b61251481612e18565b82525050565b600061252582612caa565b61252f8185612cfd565b935061253a83612c65565b8060005b8381101561256b57815161255288826124b8565b975061255d83612cd6565b92505060018101905061253e565b5085935050505092915050565b600061258382612cb5565b61258d8185612d0e565b93508360208202850161259f85612c75565b8060005b858110156125db57848403895281516125bc85826124d0565b94506125c783612ce3565b925060208a019950506001810190506125a3565b50829750879550505050505092915050565b60006125f882612cc0565b6126028185612d1f565b935061260d83612c85565b8060005b8381101561263e57815161262588826124e4565b975061263083612cf0565b925050600181019050612611565b5085935050505092915050565b6000815461265881612e96565b6126628186612d30565b9450600182166000811461267d576001811461268e576126c1565b60ff198316865281860193506126c1565b61269785612c95565b60005b838110156126b95781548189015260018201915060208101905061269a565b838801955050505b50505092915050565b60006126d582612ccb565b6126df8185612d3b565b93506126ef818560208601612e63565b6126f881612fb5565b840191505092915050565b6000612710601883612d4c565b915061271b82612fc6565b602082019050919050565b6000612733601c83612d4c565b915061273e82612fef565b602082019050919050565b6000612756601483612d4c565b915061276182613018565b602082019050919050565b6000612779602183612d4c565b915061278482613041565b604082019050919050565b600061279c602183612d4c565b91506127a782613090565b604082019050919050565b60006127bf601883612d4c565b91506127ca826130df565b602082019050919050565b60006127e2600083612d30565b91506127ed82613108565b600082019050919050565b6000612805602083612d4c565b91506128108261310b565b602082019050919050565b6000612828601c83612d4c565b915061283382613134565b602082019050919050565b600061284b601a83612d4c565b91506128568261315d565b602082019050919050565b600061286e600f83612d4c565b915061287982613186565b602082019050919050565b6000612891602b83612d4c565b915061289c826131af565b604082019050919050565b600060608301600083015184820360008601526128c482826126ca565b91505060208301516128d96020860182612974565b5060408301516128ec6040860182612974565b508091505092915050565b600060a083016000830151848203600086015261291482826128a7565b9150506020830151848203602086015261292e82826128a7565b91505060408301516129436040860182612974565b5060608301516129566060860182612974565b5060808301516129696080860182612974565b508091505092915050565b61297d81612e4a565b82525050565b61298c81612e4a565b82525050565b600061299e828461264b565b915081905092915050565b60006129b4826127d5565b9150819050919050565b60006020820190506129d3600083018461250b565b92915050565b60006040820190506129ee600083018561250b565b6129fb6020830184612983565b9392505050565b60006020820190508181036000830152612a1c818461251a565b905092915050565b60006020820190508181036000830152612a3e8184612578565b905092915050565b60006020820190508181036000830152612a6081846125ed565b905092915050565b60006020820190508181036000830152612a8181612703565b9050919050565b60006020820190508181036000830152612aa181612726565b9050919050565b60006020820190508181036000830152612ac181612749565b9050919050565b60006020820190508181036000830152612ae18161276c565b9050919050565b60006020820190508181036000830152612b018161278f565b9050919050565b60006020820190508181036000830152612b21816127b2565b9050919050565b60006020820190508181036000830152612b41816127f8565b9050919050565b60006020820190508181036000830152612b618161281b565b9050919050565b60006020820190508181036000830152612b818161283e565b9050919050565b60006020820190508181036000830152612ba181612861565b9050919050565b60006020820190508181036000830152612bc181612884565b9050919050565b6000602082019050612bdd6000830184612983565b92915050565b6000612bed612bfe565b9050612bf98282612ec8565b919050565b6000604051905090565b600067ffffffffffffffff821115612c2357612c22612f86565b5b602082029050602081019050919050565b600067ffffffffffffffff821115612c4f57612c4e612f86565b5b612c5882612fb5565b9050602081019050919050565b6000819050602082019050919050565b6000819050602082019050919050565b6000819050602082019050919050565b60008190508160005260206000209050919050565b600081519050919050565b600081519050919050565b600081519050919050565b600081519050919050565b6000602082019050919050565b6000602082019050919050565b6000602082019050919050565b600082825260208201905092915050565b600082825260208201905092915050565b600082825260208201905092915050565b600081905092915050565b600082825260208201905092915050565b600082825260208201905092915050565b6000612d6882612e4a565b9150612d7383612e4a565b9250827fffffffffffffffffffffffffffffffffffffffffffffffffffffffffffffffff03821115612da857612da7612ef9565b5b828201905092915050565b6000612dbe82612e4a565b9150612dc983612e4a565b925082612dd957612dd8612f28565b5b828204905092915050565b6000612def82612e4a565b9150612dfa83612e4a565b925082821015612e0d57612e0c612ef9565b5b828203905092915050565b6000612e2382612e2a565b9050919050565b600073ffffffffffffffffffffffffffffffffffffffff82169050919050565b6000819050919050565b82818337600083830152505050565b60005b83811015612e81578082015181840152602081019050612e66565b83811115612e90576000848401525b50505050565b60006002820490506001821680612eae57607f821691505b60208210811415612ec257612ec1612f57565b5b50919050565b612ed182612fb5565b810181811067ffffffffffffffff82111715612ef057612eef612f86565b5b80604052505050565b7f4e487b7100000000000000000000000000000000000000000000000000000000600052601160045260246000fd5b7f4e487b7100000000000000000000000000000000000000000000000000000000600052601260045260246000fd5b7f4e487b7100000000000000000000000000000000000000000000000000000000600052602260045260246000fd5b7f4e487b7100000000000000000000000000000000000000000000000000000000600052604160045260246000fd5b6000601f19601f8301169050919050565b7f45786368616e676520646f6573206e6f742065786973742e0000000000000000600082015250565b7f556e617574686f72697a65643a204d757374206265206f776e65722e00000000600082015250565b7f4661696c656420746f2073656e64204574686572000000000000000000000000600082015250565b7f5468652073656c6563746564207469657220646f6573206e6f7420657869737460008201527f2e00000000000000000000000000000000000000000000000000000000000000602082015250565b7f4e6f207175657374696f6e7320617661696c61626c6520746f2072656d6f766560008201527f2e00000000000000000000000000000000000000000000000000000000000000602082015250565b7f5175657374696f6e20646f6573206e6f742065786973742e0000000000000000600082015250565b50565b7f556e617574686f72697a65643a204d757374206e6f74206265206f776e65722e600082015250565b7f5468652074697020616d6f756e7420697320696e636f72726563742e00000000600082015250565b7f5175657374696f6e20616c726561647920616e7377657265642e000000000000600082015250565b7f4e6f2072652d656e7472616e63792e0000000000000000000000000000000000600082015250565b7f546865206465706f736974206973206e6f7420657175616c20746f207468652060008201527f746965722070726963652e000000000000000000000000000000000000000000602082015250565b61320781612e18565b811461321257600080fd5b50565b61321e81612e4a565b811461322957600080fd5b5056fea2646970667358221220e071e1bb7bd58172d57fba8d2302dc0880fef81793276652fafbdaa9bb1fff3064736f6c63430008040033",
  "linkReferences": {},
  "deployedLinkReferences": {}
}