{
  "_format": "hh-sol-artifact-1",
  "contractName": "Dqanda",
  "sourceName": "contracts/Dqanda.sol",
  "abi": [
    {
      "inputs": [
        {
          "internalType": "uint256",
          "name": "_price",
          "type": "uint256"
        }
      ],
      "stateMutability": "nonpayable",
      "type": "constructor"
    },
    {
      "anonymous": false,
      "inputs": [
        {
          "indexed": false,
          "internalType": "address",
          "name": "_questioner",
          "type": "address"
        },
        {
          "indexed": false,
          "internalType": "uint256",
          "name": "_qIndex",
          "type": "uint256"
        }
      ],
      "name": "QuestionAnswered",
      "type": "event"
    },
    {
      "anonymous": false,
      "inputs": [
        {
          "indexed": false,
          "internalType": "address",
          "name": "_questioner",
          "type": "address"
        },
        {
          "indexed": false,
          "internalType": "uint256",
          "name": "_qIndex",
          "type": "uint256"
        }
      ],
      "name": "QuestionAsked",
      "type": "event"
    },
    {
      "anonymous": false,
      "inputs": [
        {
          "indexed": false,
          "internalType": "address",
          "name": "_questioner",
          "type": "address"
        },
        {
          "indexed": false,
          "internalType": "uint256",
          "name": "_qIndex",
          "type": "uint256"
        }
      ],
      "name": "QuestionRemoved",
      "type": "event"
    },
    {
      "inputs": [
        {
          "internalType": "string",
          "name": "_digest",
          "type": "string"
        },
        {
          "internalType": "uint256",
          "name": "_hashFunction",
          "type": "uint256"
        },
        {
          "internalType": "uint256",
          "name": "_size",
          "type": "uint256"
        }
      ],
      "name": "ask",
      "outputs": [],
      "stateMutability": "payable",
      "type": "function"
    },
    {
      "inputs": [],
      "name": "getQuestioners",
      "outputs": [
        {
          "internalType": "address[]",
          "name": "",
          "type": "address[]"
        }
      ],
      "stateMutability": "view",
      "type": "function"
    },
    {
      "inputs": [
        {
          "internalType": "address",
          "name": "_questioner",
          "type": "address"
        }
      ],
      "name": "getQuestions",
      "outputs": [
        {
          "components": [
            {
              "components": [
                {
                  "internalType": "string",
                  "name": "digest",
                  "type": "string"
                },
                {
                  "internalType": "uint256",
                  "name": "hashFunction",
                  "type": "uint256"
                },
                {
                  "internalType": "uint256",
                  "name": "size",
                  "type": "uint256"
                }
              ],
              "internalType": "struct Dqanda.Cid",
              "name": "question",
              "type": "tuple"
            },
            {
              "components": [
                {
                  "internalType": "string",
                  "name": "digest",
                  "type": "string"
                },
                {
                  "internalType": "uint256",
                  "name": "hashFunction",
                  "type": "uint256"
                },
                {
                  "internalType": "uint256",
                  "name": "size",
                  "type": "uint256"
                }
              ],
              "internalType": "struct Dqanda.Cid",
              "name": "answer",
              "type": "tuple"
            },
            {
              "internalType": "uint256",
              "name": "qIndex",
              "type": "uint256"
            },
            {
              "internalType": "uint256",
              "name": "balance",
              "type": "uint256"
            }
          ],
          "internalType": "struct Dqanda.Question[]",
          "name": "",
          "type": "tuple[]"
        }
      ],
      "stateMutability": "view",
      "type": "function"
    },
    {
      "inputs": [],
      "name": "owner",
      "outputs": [
        {
          "internalType": "address",
          "name": "",
          "type": "address"
        }
      ],
      "stateMutability": "view",
      "type": "function"
    },
    {
      "inputs": [],
      "name": "price",
      "outputs": [
        {
          "internalType": "uint256",
          "name": "",
          "type": "uint256"
        }
      ],
      "stateMutability": "view",
      "type": "function"
    },
    {
      "inputs": [
        {
          "internalType": "uint256",
          "name": "_qIndex",
          "type": "uint256"
        }
      ],
      "name": "removeQuestion",
      "outputs": [],
      "stateMutability": "nonpayable",
      "type": "function"
    },
    {
      "inputs": [
        {
          "internalType": "address",
          "name": "_questioner",
          "type": "address"
        },
        {
          "internalType": "string",
          "name": "_digest",
          "type": "string"
        },
        {
          "internalType": "uint256",
          "name": "_hashFunction",
          "type": "uint256"
        },
        {
          "internalType": "uint256",
          "name": "_size",
          "type": "uint256"
        },
        {
          "internalType": "uint256",
          "name": "_qIndex",
          "type": "uint256"
        }
      ],
      "name": "respond",
      "outputs": [],
      "stateMutability": "nonpayable",
      "type": "function"
    },
    {
      "stateMutability": "payable",
      "type": "receive"
    }
  ],
  "bytecode": "0x60806040523480156200001157600080fd5b50604051620025e2380380620025e2833981810160405281019062000037919062000100565b336000806101000a81548173ffffffffffffffffffffffffffffffffffffffff021916908373ffffffffffffffffffffffffffffffffffffffff16021790555080600181905550600560009080600181540180825580915050600190039060005260206000200160009091909190916101000a81548173ffffffffffffffffffffffffffffffffffffffff021916908373ffffffffffffffffffffffffffffffffffffffff1602179055505062000150565b600081519050620000fa8162000136565b92915050565b6000602082840312156200011357600080fd5b60006200012384828501620000e9565b91505092915050565b6000819050919050565b62000141816200012c565b81146200014d57600080fd5b50565b61248280620001606000396000f3fe6080604052600436106100745760003560e01c80638da5cb5b1161004e5780638da5cb5b14610102578063a035b1fe1461012d578063e4c0967c14610158578063f46cd0a8146101815761007b565b80630dedc14c146100805780633cd94d90146100bd57806345483ed5146100e65761007b565b3661007b57005b600080fd5b34801561008c57600080fd5b506100a760048036038101906100a291906118c0565b6101ac565b6040516100b49190611e82565b60405180910390f35b3480156100c957600080fd5b506100e460048036038101906100df91906119df565b6103d2565b005b61010060048036038101906100fb9190611978565b610d93565b005b34801561010e57600080fd5b50610117611034565b6040516101249190611e1c565b60405180910390f35b34801561013957600080fd5b50610142611058565b60405161014f9190611fa4565b60405180910390f35b34801561016457600080fd5b5061017f600480360381019061017a91906118e9565b61105e565b005b34801561018d57600080fd5b5061019661156c565b6040516101a39190611e60565b60405180910390f35b6060600360008373ffffffffffffffffffffffffffffffffffffffff1673ffffffffffffffffffffffffffffffffffffffff168152602001908152602001600020805480602002602001604051908101604052809291908181526020016000905b828210156103c757838290600052602060002090600802016040518060800160405290816000820160405180606001604052908160008201805461025090612186565b80601f016020809104026020016040519081016040528092919081815260200182805461027c90612186565b80156102c95780601f1061029e576101008083540402835291602001916102c9565b820191906000526020600020905b8154815290600101906020018083116102ac57829003601f168201915b505050505081526020016001820154815260200160028201548152505081526020016003820160405180606001604052908160008201805461030a90612186565b80601f016020809104026020016040519081016040528092919081815260200182805461033690612186565b80156103835780601f1061035857610100808354040283529160200191610383565b820191906000526020600020905b81548152906001019060200180831161036657829003601f168201915b50505050508152602001600182015481526020016002820154815250508152602001600682015481526020016007820154815250508152602001906001019061020d565b505050509050919050565b600260009054906101000a900460ff1615610422576040517f08c379a000000000000000000000000000000000000000000000000000000000815260040161041990611f84565b60405180910390fd5b6001600260006101000a81548160ff0219169083151502179055506000600360003373ffffffffffffffffffffffffffffffffffffffff1673ffffffffffffffffffffffffffffffffffffffff168152602001908152602001600020905060008180549050116104c7576040517f08c379a00000000000000000000000000000000000000000000000000000000081526004016104be90611f04565b60405180910390fd5b8080549050821061050d576040517f08c379a000000000000000000000000000000000000000000000000000000000815260040161050490611f24565b60405180910390fd5b604051806020016040528060008152508051906020012081838154811061055d577f4e487b7100000000000000000000000000000000000000000000000000000000600052603260045260246000fd5b906000526020600020906008020160030160000160405161057e9190611df0565b6040518091039020146105c6576040517f08c379a00000000000000000000000000000000000000000000000000000000081526004016105bd90611f64565b60405180910390fd5b6000818381548110610601577f4e487b7100000000000000000000000000000000000000000000000000000000600052603260045260246000fd5b906000526020600020906008020160070154905060018280549050141561090e5760006005600160058054905061063891906120d4565b8154811061066f577f4e487b7100000000000000000000000000000000000000000000000000000000600052603260045260246000fd5b9060005260206000200160009054906101000a900473ffffffffffffffffffffffffffffffffffffffff1690506000600460003373ffffffffffffffffffffffffffffffffffffffff1673ffffffffffffffffffffffffffffffffffffffff16815260200190815260200160002054905080600460008473ffffffffffffffffffffffffffffffffffffffff1673ffffffffffffffffffffffffffffffffffffffff16815260200190815260200160002081905550816005828154811061075f577f4e487b7100000000000000000000000000000000000000000000000000000000600052603260045260246000fd5b9060005260206000200160006101000a81548173ffffffffffffffffffffffffffffffffffffffff021916908373ffffffffffffffffffffffffffffffffffffffff16021790555060058054806107df577f4e487b7100000000000000000000000000000000000000000000000000000000600052603160045260246000fd5b6001900381819060005260206000200160006101000a81549073ffffffffffffffffffffffffffffffffffffffff021916905590556000600460003373ffffffffffffffffffffffffffffffffffffffff1673ffffffffffffffffffffffffffffffffffffffff1681526020019081526020016000208190555083805480610890577f4e487b7100000000000000000000000000000000000000000000000000000000600052603160045260246000fd5b60019003818190600052602060002090600802016000808201600080820160006108ba919061172a565b60018201600090556002820160009055505060038201600080820160006108e1919061172a565b60018201600090556002820160009055505060068201600090556007820160009055505090555050610c8d565b6000826001848054905061092291906120d4565b81548110610959577f4e487b7100000000000000000000000000000000000000000000000000000000600052603260045260246000fd5b90600052602060002090600802016040518060800160405290816000820160405180606001604052908160008201805461099290612186565b80601f01602080910402602001604051908101604052809291908181526020018280546109be90612186565b8015610a0b5780601f106109e057610100808354040283529160200191610a0b565b820191906000526020600020905b8154815290600101906020018083116109ee57829003601f168201915b5050505050815260200160018201548152602001600282015481525050815260200160038201604051806060016040529081600082018054610a4c90612186565b80601f0160208091040260200160405190810160405280929190818152602001828054610a7890612186565b8015610ac55780601f10610a9a57610100808354040283529160200191610ac5565b820191906000526020600020905b815481529060010190602001808311610aa857829003601f168201915b505050505081526020016001820154815260200160028201548152505081526020016006820154815260200160078201548152505090508381604001818152505080838581548110610b40577f4e487b7100000000000000000000000000000000000000000000000000000000600052603260045260246000fd5b90600052602060002090600802016000820151816000016000820151816000019080519060200190610b7392919061176a565b50602082015181600101556040820151816002015550506020820151816003016000820151816000019080519060200190610baf92919061176a565b5060208201518160010155604082015181600201555050604082015181600601556060820151816007015590505082805480610c14577f4e487b7100000000000000000000000000000000000000000000000000000000600052603160045260246000fd5b6001900381819060005260206000209060080201600080820160008082016000610c3e919061172a565b6001820160009055600282016000905550506003820160008082016000610c65919061172a565b6001820160009055600282016000905550506006820160009055600782016000905550509055505b60003373ffffffffffffffffffffffffffffffffffffffff1682604051610cb390611e07565b60006040518083038185875af1925050503d8060008114610cf0576040519150601f19603f3d011682016040523d82523d6000602084013e610cf5565b606091505b5050905080610d39576040517f08c379a0000000000000000000000000000000000000000000000000000000008152600401610d3090611ee4565b60405180910390fd5b7f9f023eae2648b1dc9ce9ef4768da366f2ae94207233ba25fb5894fd5227de2623385604051610d6a929190611e37565b60405180910390a15050506000600260006101000a81548160ff02191690831515021790555050565b60008054906101000a900473ffffffffffffffffffffffffffffffffffffffff1673ffffffffffffffffffffffffffffffffffffffff163373ffffffffffffffffffffffffffffffffffffffff161415610e22576040517f08c379a0000000000000000000000000000000000000000000000000000000008152600401610e1990611f44565b60405180910390fd5b6001543414610e66576040517f08c379a0000000000000000000000000000000000000000000000000000000008152600401610e5d90611ec4565b60405180910390fd5b610e6e6115fa565b60006040518060600160405280858152602001848152602001838152509050610e956117f0565b6000600360003373ffffffffffffffffffffffffffffffffffffffff1673ffffffffffffffffffffffffffffffffffffffff168152602001908152602001600020805490509050600360003373ffffffffffffffffffffffffffffffffffffffff1673ffffffffffffffffffffffffffffffffffffffff16815260200190815260200160002060405180608001604052808581526020018481526020018381526020013481525090806001815401808255809150506001900390600052602060002090600802016000909190919091506000820151816000016000820151816000019080519060200190610f8a92919061176a565b50602082015181600101556040820151816002015550506020820151816003016000820151816000019080519060200190610fc692919061176a565b5060208201518160010155604082015181600201555050604082015181600601556060820151816007015550507f2e7298985f2dd624a11368cfbd0102c3a4d43891b7b687d2f922b615b550cacd3382604051611024929190611e37565b60405180910390a1505050505050565b60008054906101000a900473ffffffffffffffffffffffffffffffffffffffff1681565b60015481565b600260009054906101000a900460ff16156110ae576040517f08c379a00000000000000000000000000000000000000000000000000000000081526004016110a590611f84565b60405180910390fd5b6001600260006101000a81548160ff02191690831515021790555060008054906101000a900473ffffffffffffffffffffffffffffffffffffffff1673ffffffffffffffffffffffffffffffffffffffff163373ffffffffffffffffffffffffffffffffffffffff1614611157576040517f08c379a000000000000000000000000000000000000000000000000000000000815260040161114e90611ea4565b60405180910390fd5b6000600360008773ffffffffffffffffffffffffffffffffffffffff1673ffffffffffffffffffffffffffffffffffffffff1681526020019081526020016000209050808054905082106111e0576040517f08c379a00000000000000000000000000000000000000000000000000000000081526004016111d790611f24565b60405180910390fd5b600081838154811061121b577f4e487b7100000000000000000000000000000000000000000000000000000000600052603260045260246000fd5b9060005260206000209060080201600701549050600060405180606001604052808881526020018781526020018681525090506040518060800160405280848681548110611292577f4e487b7100000000000000000000000000000000000000000000000000000000600052603260045260246000fd5b90600052602060002090600802016000016040518060600160405290816000820180546112be90612186565b80601f01602080910402602001604051908101604052809291908181526020018280546112ea90612186565b80156113375780601f1061130c57610100808354040283529160200191611337565b820191906000526020600020905b81548152906001019060200180831161131a57829003601f168201915b5050505050815260200160018201548152602001600282015481525050815260200182815260200185815260200160008152508385815481106113a3577f4e487b7100000000000000000000000000000000000000000000000000000000600052603260045260246000fd5b906000526020600020906008020160008201518160000160008201518160000190805190602001906113d692919061176a565b5060208201518160010155604082015181600201555050602082015181600301600082015181600001908051906020019061141292919061176a565b5060208201518160010155604082015181600201555050604082015181600601556060820151816007015590505060008060009054906101000a900473ffffffffffffffffffffffffffffffffffffffff1673ffffffffffffffffffffffffffffffffffffffff168360405161148790611e07565b60006040518083038185875af1925050503d80600081146114c4576040519150601f19603f3d011682016040523d82523d6000602084013e6114c9565b606091505b505090508061150d576040517f08c379a000000000000000000000000000000000000000000000000000000000815260040161150490611ee4565b60405180910390fd5b7f429c694aa6647ed579b2576c88071af439f05fe6dc41964661e1bf0937f324c1898660405161153e929190611e37565b60405180910390a1505050506000600260006101000a81548160ff0219169083151502179055505050505050565b606060058054806020026020016040519081016040528092919081815260200182805480156115f057602002820191906000526020600020905b8160009054906101000a900473ffffffffffffffffffffffffffffffffffffffff1673ffffffffffffffffffffffffffffffffffffffff16815260200190600101908083116115a6575b5050505050905090565b600073ffffffffffffffffffffffffffffffffffffffff163373ffffffffffffffffffffffffffffffffffffffff161415801561167657506000600460003373ffffffffffffffffffffffffffffffffffffffff1673ffffffffffffffffffffffffffffffffffffffff16815260200190815260200160002054145b1561172857600580549050600460003373ffffffffffffffffffffffffffffffffffffffff1673ffffffffffffffffffffffffffffffffffffffff168152602001908152602001600020819055506005339080600181540180825580915050600190039060005260206000200160009091909190916101000a81548173ffffffffffffffffffffffffffffffffffffffff021916908373ffffffffffffffffffffffffffffffffffffffff1602179055505b565b50805461173690612186565b6000825580601f106117485750611767565b601f0160209004906000526020600020908101906117669190611811565b5b50565b82805461177690612186565b90600052602060002090601f01602090048101928261179857600085556117df565b82601f106117b157805160ff19168380011785556117df565b828001600101855582156117df579182015b828111156117de5782518255916020019190600101906117c3565b5b5090506117ec9190611811565b5090565b60405180606001604052806060815260200160008152602001600081525090565b5b8082111561182a576000816000905550600101611812565b5090565b600061184161183c84611fe4565b611fbf565b90508281526020810184848401111561185957600080fd5b611864848285612144565b509392505050565b60008135905061187b8161241e565b92915050565b600082601f83011261189257600080fd5b81356118a284826020860161182e565b91505092915050565b6000813590506118ba81612435565b92915050565b6000602082840312156118d257600080fd5b60006118e08482850161186c565b91505092915050565b600080600080600060a0868803121561190157600080fd5b600061190f8882890161186c565b955050602086013567ffffffffffffffff81111561192c57600080fd5b61193888828901611881565b9450506040611949888289016118ab565b935050606061195a888289016118ab565b925050608061196b888289016118ab565b9150509295509295909350565b60008060006060848603121561198d57600080fd5b600084013567ffffffffffffffff8111156119a757600080fd5b6119b386828701611881565b93505060206119c4868287016118ab565b92505060406119d5868287016118ab565b9150509250925092565b6000602082840312156119f157600080fd5b60006119ff848285016118ab565b91505092915050565b6000611a148383611a34565b60208301905092915050565b6000611a2c8383611d68565b905092915050565b611a3d81612108565b82525050565b611a4c81612108565b82525050565b6000611a5d8261204a565b611a678185612085565b9350611a7283612015565b8060005b83811015611aa3578151611a8a8882611a08565b9750611a958361206b565b925050600181019050611a76565b5085935050505092915050565b6000611abb82612055565b611ac58185612096565b935083602082028501611ad785612025565b8060005b85811015611b135784840389528151611af48582611a20565b9450611aff83612078565b925060208a01995050600181019050611adb565b50829750879550505050505092915050565b60008154611b3281612186565b611b3c81866120a7565b94506001821660008114611b575760018114611b6857611b9b565b60ff19831686528186019350611b9b565b611b7185612035565b60005b83811015611b9357815481890152600182019150602081019050611b74565b838801955050505b50505092915050565b6000611baf82612060565b611bb981856120b2565b9350611bc9818560208601612153565b611bd281612276565b840191505092915050565b6000611bea601c836120c3565b9150611bf582612287565b602082019050919050565b6000611c0d6022836120c3565b9150611c18826122b0565b604082019050919050565b6000611c306014836120c3565b9150611c3b826122ff565b602082019050919050565b6000611c536021836120c3565b9150611c5e82612328565b604082019050919050565b6000611c766018836120c3565b9150611c8182612377565b602082019050919050565b6000611c996000836120a7565b9150611ca4826123a0565b600082019050919050565b6000611cbc6020836120c3565b9150611cc7826123a3565b602082019050919050565b6000611cdf601a836120c3565b9150611cea826123cc565b602082019050919050565b6000611d02600f836120c3565b9150611d0d826123f5565b602082019050919050565b60006060830160008301518482036000860152611d358282611ba4565b9150506020830151611d4a6020860182611dd2565b506040830151611d5d6040860182611dd2565b508091505092915050565b60006080830160008301518482036000860152611d858282611d18565b91505060208301518482036020860152611d9f8282611d18565b9150506040830151611db46040860182611dd2565b506060830151611dc76060860182611dd2565b508091505092915050565b611ddb8161213a565b82525050565b611dea8161213a565b82525050565b6000611dfc8284611b25565b915081905092915050565b6000611e1282611c8c565b9150819050919050565b6000602082019050611e316000830184611a43565b92915050565b6000604082019050611e4c6000830185611a43565b611e596020830184611de1565b9392505050565b60006020820190508181036000830152611e7a8184611a52565b905092915050565b60006020820190508181036000830152611e9c8184611ab0565b905092915050565b60006020820190508181036000830152611ebd81611bdd565b9050919050565b60006020820190508181036000830152611edd81611c00565b9050919050565b60006020820190508181036000830152611efd81611c23565b9050919050565b60006020820190508181036000830152611f1d81611c46565b9050919050565b60006020820190508181036000830152611f3d81611c69565b9050919050565b60006020820190508181036000830152611f5d81611caf565b9050919050565b60006020820190508181036000830152611f7d81611cd2565b9050919050565b60006020820190508181036000830152611f9d81611cf5565b9050919050565b6000602082019050611fb96000830184611de1565b92915050565b6000611fc9611fda565b9050611fd582826121b8565b919050565b6000604051905090565b600067ffffffffffffffff821115611fff57611ffe612247565b5b61200882612276565b9050602081019050919050565b6000819050602082019050919050565b6000819050602082019050919050565b60008190508160005260206000209050919050565b600081519050919050565b600081519050919050565b600081519050919050565b6000602082019050919050565b6000602082019050919050565b600082825260208201905092915050565b600082825260208201905092915050565b600081905092915050565b600082825260208201905092915050565b600082825260208201905092915050565b60006120df8261213a565b91506120ea8361213a565b9250828210156120fd576120fc6121e9565b5b828203905092915050565b60006121138261211a565b9050919050565b600073ffffffffffffffffffffffffffffffffffffffff82169050919050565b6000819050919050565b82818337600083830152505050565b60005b83811015612171578082015181840152602081019050612156565b83811115612180576000848401525b50505050565b6000600282049050600182168061219e57607f821691505b602082108114156121b2576121b1612218565b5b50919050565b6121c182612276565b810181811067ffffffffffffffff821117156121e0576121df612247565b5b80604052505050565b7f4e487b7100000000000000000000000000000000000000000000000000000000600052601160045260246000fd5b7f4e487b7100000000000000000000000000000000000000000000000000000000600052602260045260246000fd5b7f4e487b7100000000000000000000000000000000000000000000000000000000600052604160045260246000fd5b6000601f19601f8301169050919050565b7f556e617574686f72697a65643a204d757374206265206f776e65722e00000000600082015250565b7f5061796d656e74206973206e6f7420657175616c20746f20746865207072696360008201527f652e000000000000000000000000000000000000000000000000000000000000602082015250565b7f4661696c656420746f2073656e64204574686572000000000000000000000000600082015250565b7f4e6f207175657374696f6e7320617661696c61626c6520746f2072656d6f766560008201527f2e00000000000000000000000000000000000000000000000000000000000000602082015250565b7f5175657374696f6e20646f6573206e6f742065786973742e0000000000000000600082015250565b50565b7f556e617574686f72697a65643a204d757374206e6f74206265206f776e65722e600082015250565b7f5175657374696f6e20616c726561647920616e7377657265642e000000000000600082015250565b7f4e6f2072652d656e7472616e63792e0000000000000000000000000000000000600082015250565b61242781612108565b811461243257600080fd5b50565b61243e8161213a565b811461244957600080fd5b5056fea26469706673582212201d0c77fee59d81d5ffaa30109a7bfacfb10298a665ad215c878df2d56ed5bb2c64736f6c63430008040033",
  "linkReferences": {},
  "deployedLinkReferences": {}
}